{
  "transactions": [
    {
      "hash": "0x9ed3d37272391e5fa23b33d054b93ca248061ef99a46c8cecc541e516f82de27",
      "transactionType": "CALL",
      "contractName": null,
      "contractAddress": "0x0dcb5f7195ca0dc566db58b0c9202bbd5e846b8a",
      "function": "approve(address,uint256)",
      "arguments": [
        "0x34F494c5FC1535Bc20DcECa39b6A590C743fc088",
        "6000000000000000000000"
      ],
      "transaction": {
        "from": "0x384f416b0fdeb9b8555128e6901ff3949005bc5d",
        "to": "0x0dcb5f7195ca0dc566db58b0c9202bbd5e846b8a",
        "gas": "0xf816",
        "value": "0x0",
        "input": "0x095ea7b300000000000000000000000034f494c5fc1535bc20dceca39b6a590c743fc08800000000000000000000000000000000000000000000014542ba12a337c00000",
        "nonce": "0x85",
        "chainId": "0x530"
      },
      "additionalContracts": [],
      "isFixedGasLimit": false
    },
    {
      "hash": "0x33d1540f08fd8b062959a2dde836ea0001142174fea34162dd6e6894fdfa16da",
      "transactionType": "CALL",
      "contractName": null,
      "contractAddress": "0x34f494c5fc1535bc20dceca39b6a590c743fc088",
      "function": "buyTokens(address,uint256)",
      "arguments": [
        "0xf1A3E56926cD0cd2989aC6F0A201C449D9f556ea",
        "6000000000000000000000"
      ],
      "transaction": {
        "from": "0x384f416b0fdeb9b8555128e6901ff3949005bc5d",
        "to": "0x34f494c5fc1535bc20dceca39b6a590c743fc088",
        "gas": "0x1920e",
        "value": "0x0",
        "input": "0x0752881a000000000000000000000000f1a3e56926cd0cd2989ac6f0a201c449d9f556ea00000000000000000000000000000000000000000000014542ba12a337c00000",
        "nonce": "0x86",
        "chainId": "0x530"
      },
      "additionalContracts": [],
      "isFixedGasLimit": false
    }
  ],
  "receipts": [
    {
      "status": "0x1",
      "cumulativeGasUsed": "0x0",
      "logs": [
        {
          "address": "0x0dcb5f7195ca0dc566db58b0c9202bbd5e846b8a",
          "topics": [
            "0x8c5be1e5ebec7d5bd14f71427d1e84f3dd0314c0f7b2291e5b200ac8c7c3b925",
            "0x000000000000000000000000384f416b0fdeb9b8555128e6901ff3949005bc5d",
            "0x00000000000000000000000034f494c5fc1535bc20dceca39b6a590c743fc088"
          ],
          "data": "0x00000000000000000000000000000000000000000000014542ba12a337c00000",
          "blockHash": "0x80eefcb5deded448124a72151f01f72c35af6f37dbd326d902bb659fd0d028fe",
          "blockNumber": "0xb1e0174",
          "transactionHash": "0x9ed3d37272391e5fa23b33d054b93ca248061ef99a46c8cecc541e516f82de27",
          "transactionIndex": "0x3",
          "logIndex": "0x9",
          "removed": false
        }
      ],
      "logsBloom": "0x00000000000000000000000000000000000000000000001000000000000000000000000000000000000001000000000000000000000000000000000000200000000000000000000000000000000000000000000000000000000000000000000000000000000000000000000000000000000000000000000000000000000000000000000000000000000000000000000000000000400000000000000000000000020000000000000000000000000000000001000000000000001001000000000000000000000000000100000000000000000000000000000000000000000000000010000000000000000000000000000000000000000010000000000000000000",
      "type": "0x2",
      "transactionHash": "0x9ed3d37272391e5fa23b33d054b93ca248061ef99a46c8cecc541e516f82de27",
      "transactionIndex": "0x3",
      "blockHash": "0x80eefcb5deded448124a72151f01f72c35af6f37dbd326d902bb659fd0d028fe",
      "blockNumber": "0xb1e0174",
      "gasUsed": "0xb39d",
      "effectiveGasPrice": "0x7d340fbc",
      "from": "0x384f416b0fdeb9b8555128e6901ff3949005bc5d",
      "to": "0x0dcb5f7195ca0dc566db58b0c9202bbd5e846b8a",
      "contractAddress": null
    },
    {
      "status": "0x1",
      "cumulativeGasUsed": "0x0",
      "logs": [
        {
          "address": "0x0dcb5f7195ca0dc566db58b0c9202bbd5e846b8a",
          "topics": [
            "0xddf252ad1be2c89b69c2b068fc378daa952ba7f163c4a11628f55a4df523b3ef",
            "0x000000000000000000000000384f416b0fdeb9b8555128e6901ff3949005bc5d",
            "0x00000000000000000000000034f494c5fc1535bc20dceca39b6a590c743fc088"
          ],
          "data": "0x00000000000000000000000000000000000000000000014542ba12a337c00000",
          "blockHash": "0x98a84b51a16d6c147bc08f3a962ab6823f65d3e6fd995af968e9aaa837e4bf83",
          "blockNumber": "0xb1e0175",
          "transactionHash": "0x33d1540f08fd8b062959a2dde836ea0001142174fea34162dd6e6894fdfa16da",
          "transactionIndex": "0x2",
          "logIndex": "0x6",
          "removed": false
        },
        {
          "address": "0xf1a3e56926cd0cd2989ac6f0a201c449d9f556ea",
          "topics": [
            "0xddf252ad1be2c89b69c2b068fc378daa952ba7f163c4a11628f55a4df523b3ef",
            "0x0000000000000000000000000000000000000000000000000000000000000000",
            "0x000000000000000000000000384f416b0fdeb9b8555128e6901ff3949005bc5d"
          ],
          "data": "0x00000000000000000000000000000000000000000049f6b81927117654cc0000",
          "blockHash": "0x98a84b51a16d6c147bc08f3a962ab6823f65d3e6fd995af968e9aaa837e4bf83",
          "blockNumber": "0xb1e0175",
          "transactionHash": "0x33d1540f08fd8b062959a2dde836ea0001142174fea34162dd6e6894fdfa16da",
          "transactionIndex": "0x2",
          "logIndex": "0x7",
          "removed": false
        },
        {
          "address": "0x34f494c5fc1535bc20dceca39b6a590c743fc088",
          "topics": [
            "0xc29b8032387f267ddc010037627574acbf3b1a65a6022ca8ba6c25f0ba85ee75",
            "0x000000000000000000000000384f416b0fdeb9b8555128e6901ff3949005bc5d",
            "0x000000000000000000000000f1a3e56926cd0cd2989ac6f0a201c449d9f556ea"
          ],
          "data": "0x00000000000000000000000000000000000000000000014542ba12a337c0000000000000000000000000000000000000000000000049f6b81927117654cc000000000000000000000000000000000000000000000000000000002dc57a0af5770000000000000000000000000000000000000000000000000000515f11dd235d",
          "blockHash": "0x98a84b51a16d6c147bc08f3a962ab6823f65d3e6fd995af968e9aaa837e4bf83",
          "blockNumber": "0xb1e0175",
          "transactionHash": "0x33d1540f08fd8b062959a2dde836ea0001142174fea34162dd6e6894fdfa16da",
          "transactionIndex": "0x2",
          "logIndex": "0x8",
          "removed": false
        }
      ],
      "logsBloom": "0x00000000000000000000000000000000000000000000001000000000000000000000000000000000000001000000000000000000000000000000000000200000000000000004000000000008000000000000000000000000400000000000000000020008020800000000000000000800000000000000000000000010000000004400000000020000000000000000000000000000400000000000000000100000000000000000000000000000000000000001000000000000001001000000000000000002000000000100000000000000000000000000000000020000000020000000000000000000000000000000000000000040000010000000000002000000",
      "type": "0x2",
      "transactionHash": "0x33d1540f08fd8b062959a2dde836ea0001142174fea34162dd6e6894fdfa16da",
      "transactionIndex": "0x2",
      "blockHash": "0x98a84b51a16d6c147bc08f3a962ab6823f65d3e6fd995af968e9aaa837e4bf83",
      "blockNumber": "0xb1e0175",
      "gasUsed": "0x112e9",
      "effectiveGasPrice": "0x7d340fbc",
      "from": "0x384f416b0fdeb9b8555128e6901ff3949005bc5d",
      "to": "0x34f494c5fc1535bc20dceca39b6a590c743fc088",
      "contractAddress": null
    }
  ],
  "libraries": [],
  "pending": [],
  "returns": {},
  "timestamp": 1753111058,
  "chain": 1328,
  "commit": "ebbf48e"
}