{
  "transactions": [
    {
      "hash": "0x0966f89b6ea1a547c19c58c00658ef9b1f6fb2a418ec1d2c75cde80d6a29b3fa",
      "transactionType": "CALL",
      "contractName": null,
      "contractAddress": "0xcd13fdb6befdcc73500a23eeb03bd06ded3b4eee",
      "function": "approve(address,uint256)",
      "arguments": [
        "0x1e8Fc2c136c9B7064b320F74D05c22DaF81f504e",
        "115792089237316195423570985008687907853269984665640564039457584007913129639935"
      ],
      "transaction": {
        "from": "0x384f416b0fdeb9b8555128e6901ff3949005bc5d",
        "to": "0xcd13fdb6befdcc73500a23eeb03bd06ded3b4eee",
        "gas": "0x9382",
        "value": "0x0",
        "input": "0x095ea7b30000000000000000000000001e8fc2c136c9b7064b320f74d05c22daf81f504effffffffffffffffffffffffffffffffffffffffffffffffffffffffffffffff",
        "nonce": "0x25",
        "chainId": "0x530"
      },
      "additionalContracts": [],
      "isFixedGasLimit": false
    },
    {
      "hash": "0x44c409311f0a8986c21d83549ee0e9665b3b8bba2c5205a20b58e0adeece8782",
      "transactionType": "CALL",
      "contractName": null,
      "contractAddress": "0x1e8fc2c136c9b7064b320f74d05c22daf81f504e",
      "function": "approve(address,address,uint160,uint48)",
      "arguments": [
        "0xcd13FDb6BEfdCC73500a23eEB03bD06ded3B4eeE",
        "0x9B4C7AddF27c2d5Ee5dAD18Ba2abfeA82C4A3B85",
        "1461501637330902918203684832716283019655932542975",
        "281474976710655"
      ],
      "transaction": {
        "from": "0x384f416b0fdeb9b8555128e6901ff3949005bc5d",
        "to": "0x1e8fc2c136c9b7064b320f74d05c22daf81f504e",
        "gas": "0x96a0",
        "value": "0x0",
        "input": "0x87517c45000000000000000000000000cd13fdb6befdcc73500a23eeb03bd06ded3b4eee0000000000000000000000009b4c7addf27c2d5ee5dad18ba2abfea82c4a3b85000000000000000000000000ffffffffffffffffffffffffffffffffffffffff0000000000000000000000000000000000000000000000000000ffffffffffff",
        "nonce": "0x26",
        "chainId": "0x530"
      },
      "additionalContracts": [],
      "isFixedGasLimit": false
    },
    {
      "hash": "0x147e0a2edaf5080d5b00ee6dba8da290506b01d186e45e32239fce565480fad1",
      "transactionType": "CALL",
      "contractName": null,
      "contractAddress": "0x081d574f2b23a820adca454a3278739263cb2c2c",
      "function": "approve(address,uint256)",
      "arguments": [
        "0x1e8Fc2c136c9B7064b320F74D05c22DaF81f504e",
        "115792089237316195423570985008687907853269984665640564039457584007913129639935"
      ],
      "transaction": {
        "from": "0x384f416b0fdeb9b8555128e6901ff3949005bc5d",
        "to": "0x081d574f2b23a820adca454a3278739263cb2c2c",
        "gas": "0x9382",
        "value": "0x0",
        "input": "0x095ea7b30000000000000000000000001e8fc2c136c9b7064b320f74d05c22daf81f504effffffffffffffffffffffffffffffffffffffffffffffffffffffffffffffff",
        "nonce": "0x27",
        "chainId": "0x530"
      },
      "additionalContracts": [],
      "isFixedGasLimit": false
    },
    {
      "hash": "0xb18fe8a657b13d24e2d7334d9008b2ccc21408a17fc39f924cc5e348b1c6c876",
      "transactionType": "CALL",
      "contractName": null,
      "contractAddress": "0x1e8fc2c136c9b7064b320f74d05c22daf81f504e",
      "function": "approve(address,address,uint160,uint48)",
      "arguments": [
        "0x081D574f2B23a820aDCA454A3278739263CB2c2C",
        "0x9B4C7AddF27c2d5Ee5dAD18Ba2abfeA82C4A3B85",
        "1461501637330902918203684832716283019655932542975",
        "281474976710655"
      ],
      "transaction": {
        "from": "0x384f416b0fdeb9b8555128e6901ff3949005bc5d",
        "to": "0x1e8fc2c136c9b7064b320f74d05c22daf81f504e",
        "gas": "0x96a0",
        "value": "0x0",
        "input": "0x87517c45000000000000000000000000081d574f2b23a820adca454a3278739263cb2c2c0000000000000000000000009b4c7addf27c2d5ee5dad18ba2abfea82c4a3b85000000000000000000000000ffffffffffffffffffffffffffffffffffffffff0000000000000000000000000000000000000000000000000000ffffffffffff",
        "nonce": "0x28",
        "chainId": "0x530"
      },
      "additionalContracts": [],
      "isFixedGasLimit": false
    },
    {
      "hash": "0x7cc395f7145f5bbee0d3512a1c0517c8762477f17f3beb4c0ec8c8acbd5034d0",
      "transactionType": "CALL",
      "contractName": null,
      "contractAddress": "0x9b4c7addf27c2d5ee5dad18ba2abfea82c4a3b85",
      "function": "multicall(bytes[])",
      "arguments": [
        "[0xdd46508f000000000000000000000000000000000000000000000000000000000000004000000000000000000000000000000000000000000000000000000000687c4fdd0000000000000000000000000000000000000000000000000000000000000400000000000000000000000000000000000000000000000000000000000000004000000000000000000000000000000000000000000000000000000000000000800000000000000000000000000000000000000000000000000000000000000004020d14140000000000000000000000000000000000000000000000000000000000000000000000000000000000000000000000000000000000000000000000040000000000000000000000000000000000000000000000000000000000000080000000000000000000000000000000000000000000000000000000000000024000000000000000000000000000000000000000000000000000000000000002a0000000000000000000000000000000000000000000000000000000000000030000000000000000000000000000000000000000000000000000000000000001a0000000000000000000000000081d574f2b23a820adca454a3278739263cb2c2c000000000000000000000000cd13fdb6befdcc73500a23eeb03bd06ded3b4eee00000000000000000000000000000000000000000000000000000000000013880000000000000000000000000000000000000000000000000000000000000064000000000000000000000000004888ee239d247562822a500166b1f3d31fcac0fffffffffffffffffffffffffffffffffffffffffffffffffffffffffffe796000000000000000000000000000000000000000000000000000000000000186a00000000000000000000000000000000000000000000000000df8d1f3f486792d0000000000000000000000000000000000000000000000000de0b6b3a76400010000000000000000000000000000000000000000000000000de0b6b3a7640001000000000000000000000000384f416b0fdeb9b8555128e6901ff3949005bc5d000000000000000000000000000000000000000000000000000000000000018000000000000000000000000000000000000000000000000000000000000000000000000000000000000000000000000000000000000000000000000000000040000000000000000000000000081d574f2b23a820adca454a3278739263cb2c2c000000000000000000000000cd13fdb6befdcc73500a23eeb03bd06ded3b4eee0000000000000000000000000000000000000000000000000000000000000040000000000000000000000000081d574f2b23a820adca454a3278739263cb2c2c000000000000000000000000384f416b0fdeb9b8555128e6901ff3949005bc5d0000000000000000000000000000000000000000000000000000000000000040000000000000000000000000cd13fdb6befdcc73500a23eeb03bd06ded3b4eee000000000000000000000000384f416b0fdeb9b8555128e6901ff3949005bc5d]"
      ],
      "transaction": {
        "from": "0x384f416b0fdeb9b8555128e6901ff3949005bc5d",
        "to": "0x9b4c7addf27c2d5ee5dad18ba2abfea82c4a3b85",
        "gas": "0x7134a",
        "value": "0x0",
        "input": "0xac9650d80000000000000000000000000000000000000000000000000000000000000020000000000000000000000000000000000000000000000000000000000000000100000000000000000000000000000000000000000000000000000000000000200000000000000000000000000000000000000000000000000000000000000464dd46508f000000000000000000000000000000000000000000000000000000000000004000000000000000000000000000000000000000000000000000000000687c4fdd0000000000000000000000000000000000000000000000000000000000000400000000000000000000000000000000000000000000000000000000000000004000000000000000000000000000000000000000000000000000000000000000800000000000000000000000000000000000000000000000000000000000000004020d14140000000000000000000000000000000000000000000000000000000000000000000000000000000000000000000000000000000000000000000000040000000000000000000000000000000000000000000000000000000000000080000000000000000000000000000000000000000000000000000000000000024000000000000000000000000000000000000000000000000000000000000002a0000000000000000000000000000000000000000000000000000000000000030000000000000000000000000000000000000000000000000000000000000001a0000000000000000000000000081d574f2b23a820adca454a3278739263cb2c2c000000000000000000000000cd13fdb6befdcc73500a23eeb03bd06ded3b4eee00000000000000000000000000000000000000000000000000000000000013880000000000000000000000000000000000000000000000000000000000000064000000000000000000000000004888ee239d247562822a500166b1f3d31fcac0fffffffffffffffffffffffffffffffffffffffffffffffffffffffffffe796000000000000000000000000000000000000000000000000000000000000186a00000000000000000000000000000000000000000000000000df8d1f3f486792d0000000000000000000000000000000000000000000000000de0b6b3a76400010000000000000000000000000000000000000000000000000de0b6b3a7640001000000000000000000000000384f416b0fdeb9b8555128e6901ff3949005bc5d000000000000000000000000000000000000000000000000000000000000018000000000000000000000000000000000000000000000000000000000000000000000000000000000000000000000000000000000000000000000000000000040000000000000000000000000081d574f2b23a820adca454a3278739263cb2c2c000000000000000000000000cd13fdb6befdcc73500a23eeb03bd06ded3b4eee0000000000000000000000000000000000000000000000000000000000000040000000000000000000000000081d574f2b23a820adca454a3278739263cb2c2c000000000000000000000000384f416b0fdeb9b8555128e6901ff3949005bc5d0000000000000000000000000000000000000000000000000000000000000040000000000000000000000000cd13fdb6befdcc73500a23eeb03bd06ded3b4eee000000000000000000000000384f416b0fdeb9b8555128e6901ff3949005bc5d00000000000000000000000000000000000000000000000000000000",
        "nonce": "0x29",
        "chainId": "0x530"
      },
      "additionalContracts": [],
      "isFixedGasLimit": false
    }
  ],
  "receipts": [
    {
      "status": "0x1",
      "cumulativeGasUsed": "0x0",
      "logs": [
        {
          "address": "0xcd13fdb6befdcc73500a23eeb03bd06ded3b4eee",
          "topics": [
            "0x8c5be1e5ebec7d5bd14f71427d1e84f3dd0314c0f7b2291e5b200ac8c7c3b925",
            "0x000000000000000000000000384f416b0fdeb9b8555128e6901ff3949005bc5d",
            "0x0000000000000000000000001e8fc2c136c9b7064b320f74d05c22daf81f504e"
          ],
          "data": "0xffffffffffffffffffffffffffffffffffffffffffffffffffffffffffffffff",
          "blockHash": "0x1cd38a6bf6321d9f4d50b10dbd703e450583dcf13e853096395cca4cca8b0c14",
          "blockNumber": "0xb18c460",
          "transactionHash": "0x0966f89b6ea1a547c19c58c00658ef9b1f6fb2a418ec1d2c75cde80d6a29b3fa",
          "transactionIndex": "0x1",
          "logIndex": "0x3",
          "removed": false
        }
      ],
      "logsBloom": "0x00000000040000000000000000000000200000000000000000000000000000000000000000000000000000000000000000000000000000000000000000200000000000000000000000000000000000000000000000000000000000000040000000000000400000000008000000000000000000000000000000000000000000000000000000000000000000000000000000000000000000000000000000000000020000000000000000000000000000000000000000000000001000000000010000000000000000000000000000000000000000000000000000000000000000000010000000000000000000000000000000000000000010000000000000000000",
      "type": "0x2",
      "transactionHash": "0x0966f89b6ea1a547c19c58c00658ef9b1f6fb2a418ec1d2c75cde80d6a29b3fa",
      "transactionIndex": "0x1",
      "blockHash": "0x1cd38a6bf6321d9f4d50b10dbd703e450583dcf13e853096395cca4cca8b0c14",
      "blockNumber": "0xb18c460",
      "gasUsed": "0x6acc",
      "effectiveGasPrice": "0x8a486400",
      "from": "0x384f416b0fdeb9b8555128e6901ff3949005bc5d",
      "to": "0xcd13fdb6befdcc73500a23eeb03bd06ded3b4eee",
      "contractAddress": null
    },
    {
      "status": "0x1",
      "cumulativeGasUsed": "0x0",
      "logs": [
        {
          "address": "0x1e8fc2c136c9b7064b320f74d05c22daf81f504e",
          "topics": [
            "0xda9fa7c1b00402c17d0161b249b1ab8bbec047c5a52207b9c112deffd817036b",
            "0x000000000000000000000000384f416b0fdeb9b8555128e6901ff3949005bc5d",
            "0x000000000000000000000000cd13fdb6befdcc73500a23eeb03bd06ded3b4eee",
            "0x0000000000000000000000009b4c7addf27c2d5ee5dad18ba2abfea82c4a3b85"
          ],
          "data": "0x000000000000000000000000ffffffffffffffffffffffffffffffffffffffff0000000000000000000000000000000000000000000000000000ffffffffffff",
          "blockHash": "0xc166f7b89067fc13b8e73fca96d3e46b5e607476da7475da5b109be12ca8a4cf",
          "blockNumber": "0xb18c461",
          "transactionHash": "0x44c409311f0a8986c21d83549ee0e9665b3b8bba2c5205a20b58e0adeece8782",
          "transactionIndex": "0x0",
          "logIndex": "0x0",
          "removed": false
        }
      ],
      "logsBloom": "0x00000000000000000000000000000000000000000000200000000000000000010000000000000000000000000000000000000000000000000000000000200000000000000000000000000000000000000000000002000000000000000000000000000000000000000000000000000000000000000000000000000000000000000020000000000000000000000000000000000000000000000000000000000000001000000000000000000000000000000000000000000000001000080000000020000000010000000000000000000000000000000000000040000000000000000000000000000000001000000000000000000000800010000008000000000000",
      "type": "0x2",
      "transactionHash": "0x44c409311f0a8986c21d83549ee0e9665b3b8bba2c5205a20b58e0adeece8782",
      "transactionIndex": "0x0",
      "blockHash": "0xc166f7b89067fc13b8e73fca96d3e46b5e607476da7475da5b109be12ca8a4cf",
      "blockNumber": "0xb18c461",
      "gasUsed": "0x6d0e",
      "effectiveGasPrice": "0x8a486400",
      "from": "0x384f416b0fdeb9b8555128e6901ff3949005bc5d",
      "to": "0x1e8fc2c136c9b7064b320f74d05c22daf81f504e",
      "contractAddress": null
    },
    {
      "status": "0x1",
      "cumulativeGasUsed": "0x0",
      "logs": [
        {
          "address": "0x081d574f2b23a820adca454a3278739263cb2c2c",
          "topics": [
            "0x8c5be1e5ebec7d5bd14f71427d1e84f3dd0314c0f7b2291e5b200ac8c7c3b925",
            "0x000000000000000000000000384f416b0fdeb9b8555128e6901ff3949005bc5d",
            "0x0000000000000000000000001e8fc2c136c9b7064b320f74d05c22daf81f504e"
          ],
          "data": "0xffffffffffffffffffffffffffffffffffffffffffffffffffffffffffffffff",
          "blockHash": "0x9c5723fbbe5117973124c7ba76cb19876ff1b6e8c4da23b748c5fc6222ffa59e",
          "blockNumber": "0xb18c462",
          "transactionHash": "0x147e0a2edaf5080d5b00ee6dba8da290506b01d186e45e32239fce565480fad1",
          "transactionIndex": "0x1",
          "logIndex": "0x3",
          "removed": false
        }
      ],
      "logsBloom": "0x00000000040000000000000000000000000000000000000000000000000000000000100000000000000000000000000000000000000000000000000000200000200000000000000000000000000000000000000000000000000000000040000000000000400000000000000000000000000000000000000000000000000000000000000000000000000000000000000000000000000000000000000000000000020000000000000010000000000000000000000000000000001000000000000000000000000000000000000000000000000000000000000000000000000000000010000000000000000000000000000000000000000010000000000000000000",
      "type": "0x2",
      "transactionHash": "0x147e0a2edaf5080d5b00ee6dba8da290506b01d186e45e32239fce565480fad1",
      "transactionIndex": "0x1",
      "blockHash": "0x9c5723fbbe5117973124c7ba76cb19876ff1b6e8c4da23b748c5fc6222ffa59e",
      "blockNumber": "0xb18c462",
      "gasUsed": "0x6acc",
      "effectiveGasPrice": "0x8a486400",
      "from": "0x384f416b0fdeb9b8555128e6901ff3949005bc5d",
      "to": "0x081d574f2b23a820adca454a3278739263cb2c2c",
      "contractAddress": null
    },
    {
      "status": "0x1",
      "cumulativeGasUsed": "0x0",
      "logs": [
        {
          "address": "0x1e8fc2c136c9b7064b320f74d05c22daf81f504e",
          "topics": [
            "0xda9fa7c1b00402c17d0161b249b1ab8bbec047c5a52207b9c112deffd817036b",
            "0x000000000000000000000000384f416b0fdeb9b8555128e6901ff3949005bc5d",
            "0x000000000000000000000000081d574f2b23a820adca454a3278739263cb2c2c",
            "0x0000000000000000000000009b4c7addf27c2d5ee5dad18ba2abfea82c4a3b85"
          ],
          "data": "0x000000000000000000000000ffffffffffffffffffffffffffffffffffffffff0000000000000000000000000000000000000000000000000000ffffffffffff",
          "blockHash": "0x8f5606cb599faf80a7be1617e0b8074ead89d6936dd422fc152ce2e026ee3a7e",
          "blockNumber": "0xb18c463",
          "transactionHash": "0xb18fe8a657b13d24e2d7334d9008b2ccc21408a17fc39f924cc5e348b1c6c876",
          "transactionIndex": "0x2",
          "logIndex": "0x4",
          "removed": false
        }
      ],
      "logsBloom": "0x00000000000000000000000000000000000000000000000000000000000000010000000000000000000000010000000000000000000000000000000000200000000000000000000000000000000000000000000002000000000000000000000000000000000000000000000000000000000000000000000000000000000000000020000000000000000000000000000000000000000000000000000000000000001000000000000000000000000000000000000000000000001000090000000020000000010000000000000000000000000000000000000040000000000000000000000000000000001000000000000000000000000010000000000000000020",
      "type": "0x2",
      "transactionHash": "0xb18fe8a657b13d24e2d7334d9008b2ccc21408a17fc39f924cc5e348b1c6c876",
      "transactionIndex": "0x2",
      "blockHash": "0x8f5606cb599faf80a7be1617e0b8074ead89d6936dd422fc152ce2e026ee3a7e",
      "blockNumber": "0xb18c463",
      "gasUsed": "0x6d0e",
      "effectiveGasPrice": "0x8a486400",
      "from": "0x384f416b0fdeb9b8555128e6901ff3949005bc5d",
      "to": "0x1e8fc2c136c9b7064b320f74d05c22daf81f504e",
      "contractAddress": null
    },
    {
      "status": "0x1",
      "cumulativeGasUsed": "0x0",
      "logs": [
        {
          "address": "0x9b4c7addf27c2d5ee5dad18ba2abfea82c4a3b85",
          "topics": [
            "0xddf252ad1be2c89b69c2b068fc378daa952ba7f163c4a11628f55a4df523b3ef",
            "0x0000000000000000000000000000000000000000000000000000000000000000",
            "0x000000000000000000000000384f416b0fdeb9b8555128e6901ff3949005bc5d",
            "0x0000000000000000000000000000000000000000000000000000000000000002"
          ],
          "data": "0x",
          "blockHash": "0xcd10014005a5e4b6e45ded8a2d96f953f22543a6d73e9925574353dfbd853f53",
          "blockNumber": "0xb18c464",
          "transactionHash": "0x7cc395f7145f5bbee0d3512a1c0517c8762477f17f3beb4c0ec8c8acbd5034d0",
          "transactionIndex": "0x1",
          "logIndex": "0x3",
          "removed": false
        },
        {
          "address": "0xd01e41f03c58ee64b2303e9335de8caeee0974b8",
          "topics": [
            "0xf208f4912782fd25c7f114ca3723a2d5dd6f3bcc3ac8db5af63baa85f711d5ec",
            "0x4c5511f257749ac7e30fd76b48e35ddc6563ea860a0faa847e6842de55d054d3",
            "0x0000000000000000000000009b4c7addf27c2d5ee5dad18ba2abfea82c4a3b85"
          ],
          "data": "0xfffffffffffffffffffffffffffffffffffffffffffffffffffffffffffe796000000000000000000000000000000000000000000000000000000000000186a00000000000000000000000000000000000000000000000000df8d1f3f486792d0000000000000000000000000000000000000000000000000000000000000002",
          "blockHash": "0xcd10014005a5e4b6e45ded8a2d96f953f22543a6d73e9925574353dfbd853f53",
          "blockNumber": "0xb18c464",
          "transactionHash": "0x7cc395f7145f5bbee0d3512a1c0517c8762477f17f3beb4c0ec8c8acbd5034d0",
          "transactionIndex": "0x1",
          "logIndex": "0x4",
          "removed": false
        },
        {
          "address": "0x081d574f2b23a820adca454a3278739263cb2c2c",
          "topics": [
            "0xddf252ad1be2c89b69c2b068fc378daa952ba7f163c4a11628f55a4df523b3ef",
            "0x000000000000000000000000384f416b0fdeb9b8555128e6901ff3949005bc5d",
            "0x000000000000000000000000d01e41f03c58ee64b2303e9335de8caeee0974b8"
          ],
          "data": "0x0000000000000000000000000000000000000000000000000de0b6b3a7640000",
          "blockHash": "0xcd10014005a5e4b6e45ded8a2d96f953f22543a6d73e9925574353dfbd853f53",
          "blockNumber": "0xb18c464",
          "transactionHash": "0x7cc395f7145f5bbee0d3512a1c0517c8762477f17f3beb4c0ec8c8acbd5034d0",
          "transactionIndex": "0x1",
          "logIndex": "0x5",
          "removed": false
        },
        {
          "address": "0xcd13fdb6befdcc73500a23eeb03bd06ded3b4eee",
          "topics": [
            "0xddf252ad1be2c89b69c2b068fc378daa952ba7f163c4a11628f55a4df523b3ef",
            "0x000000000000000000000000384f416b0fdeb9b8555128e6901ff3949005bc5d",
            "0x000000000000000000000000d01e41f03c58ee64b2303e9335de8caeee0974b8"
          ],
          "data": "0x0000000000000000000000000000000000000000000000000de0b6b3a7640000",
          "blockHash": "0xcd10014005a5e4b6e45ded8a2d96f953f22543a6d73e9925574353dfbd853f53",
          "blockNumber": "0xb18c464",
          "transactionHash": "0x7cc395f7145f5bbee0d3512a1c0517c8762477f17f3beb4c0ec8c8acbd5034d0",
          "transactionIndex": "0x1",
          "logIndex": "0x6",
          "removed": false
        }
      ],
      "logsBloom": "0x04000000000000000000000008000080200000000000000000000000000000010000100000000000000000000000000000000000000200000000000000200004200000000000000000000008000000000000000000000000000000000000000000002000020000000008000000000800001000000000000000000010000000000000000001000000000000000000000000000000000000000000000000000000000004000000080010000100000000000000000000000000001000000008010020000002010000000000000000000000000000000000000000400000000020000000200000000000001000000000000004000000008011000000000000000000",
      "type": "0x2",
      "transactionHash": "0x7cc395f7145f5bbee0d3512a1c0517c8762477f17f3beb4c0ec8c8acbd5034d0",
      "transactionIndex": "0x1",
      "blockHash": "0xcd10014005a5e4b6e45ded8a2d96f953f22543a6d73e9925574353dfbd853f53",
      "blockNumber": "0xb18c464",
      "gasUsed": "0x51f58",
      "effectiveGasPrice": "0x8a486400",
      "from": "0x384f416b0fdeb9b8555128e6901ff3949005bc5d",
      "to": "0x9b4c7addf27c2d5ee5dad18ba2abfea82c4a3b85",
      "contractAddress": null
    }
  ],
  "libraries": [],
  "pending": [],
  "returns": {},
  "timestamp": 1752977322,
  "chain": 1328,
  "commit": "ddc4d03"
}