{
  "transactions": [
    {
      "hash": "0xfbd591d1fb94084557fbd030d4ab9fe082e3300a166eb9fe644ca2568877583f",
      "transactionType": "CALL",
      "contractName": null,
      "contractAddress": "0x486c5e15b33f550d0c7ee44d58b6c25d91d37024",
      "function": "approve(address,uint256)",
      "arguments": [
        "0xc6A46ff60B25C48A9Ab3a073FFC52A3764C404c6",
        "115792089237316195423570985008687907853269984665640564039457584007913129639935"
      ],
      "transaction": {
        "from": "0x384f416b0fdeb9b8555128e6901ff3949005bc5d",
        "to": "0x486c5e15b33f550d0c7ee44d58b6c25d91d37024",
        "gas": "0x9382",
        "value": "0x0",
        "input": "0x095ea7b3000000000000000000000000c6a46ff60b25c48a9ab3a073ffc52a3764c404c6ffffffffffffffffffffffffffffffffffffffffffffffffffffffffffffffff",
        "nonce": "0x11",
        "chainId": "0x530"
      },
      "additionalContracts": [],
      "isFixedGasLimit": false
    },
    {
      "hash": "0x1470ef6b70fe6ec0ff579db8d4de1373b7621fc6411a7669adf4f7dfc718ff41",
      "transactionType": "CALL",
      "contractName": null,
      "contractAddress": "0xc6a46ff60b25c48a9ab3a073ffc52a3764c404c6",
      "function": "approve(address,address,uint160,uint48)",
      "arguments": [
        "0x486c5e15B33f550D0c7eE44D58b6c25D91d37024",
        "0x59436ab44f7D991393A89D9f44C642f8202BCDb7",
        "1461501637330902918203684832716283019655932542975",
        "281474976710655"
      ],
      "transaction": {
        "from": "0x384f416b0fdeb9b8555128e6901ff3949005bc5d",
        "to": "0xc6a46ff60b25c48a9ab3a073ffc52a3764c404c6",
        "gas": "0x96a0",
        "value": "0x0",
        "input": "0x87517c45000000000000000000000000486c5e15b33f550d0c7ee44d58b6c25d91d3702400000000000000000000000059436ab44f7d991393a89d9f44c642f8202bcdb7000000000000000000000000ffffffffffffffffffffffffffffffffffffffff0000000000000000000000000000000000000000000000000000ffffffffffff",
        "nonce": "0x12",
        "chainId": "0x530"
      },
      "additionalContracts": [],
      "isFixedGasLimit": false
    },
    {
      "hash": "0x13c610c2ca3a29ce78a15d2b155dedddf127b34579240f734547344a67aedcf6",
      "transactionType": "CALL",
      "contractName": null,
      "contractAddress": "0x3340941380f515741fd81054b1f47264f85ecf7d",
      "function": "approve(address,uint256)",
      "arguments": [
        "0xc6A46ff60B25C48A9Ab3a073FFC52A3764C404c6",
        "115792089237316195423570985008687907853269984665640564039457584007913129639935"
      ],
      "transaction": {
        "from": "0x384f416b0fdeb9b8555128e6901ff3949005bc5d",
        "to": "0x3340941380f515741fd81054b1f47264f85ecf7d",
        "gas": "0x9382",
        "value": "0x0",
        "input": "0x095ea7b3000000000000000000000000c6a46ff60b25c48a9ab3a073ffc52a3764c404c6ffffffffffffffffffffffffffffffffffffffffffffffffffffffffffffffff",
        "nonce": "0x13",
        "chainId": "0x530"
      },
      "additionalContracts": [],
      "isFixedGasLimit": false
    },
    {
      "hash": "0xa15ad5b8a4f6a8ca83f1c31ea335945950c34211867d26c155680b072ef63458",
      "transactionType": "CALL",
      "contractName": null,
      "contractAddress": "0xc6a46ff60b25c48a9ab3a073ffc52a3764c404c6",
      "function": "approve(address,address,uint160,uint48)",
      "arguments": [
        "0x3340941380F515741FD81054b1f47264F85ecf7D",
        "0x59436ab44f7D991393A89D9f44C642f8202BCDb7",
        "1461501637330902918203684832716283019655932542975",
        "281474976710655"
      ],
      "transaction": {
        "from": "0x384f416b0fdeb9b8555128e6901ff3949005bc5d",
        "to": "0xc6a46ff60b25c48a9ab3a073ffc52a3764c404c6",
        "gas": "0x96a0",
        "value": "0x0",
        "input": "0x87517c450000000000000000000000003340941380f515741fd81054b1f47264f85ecf7d00000000000000000000000059436ab44f7d991393a89d9f44c642f8202bcdb7000000000000000000000000ffffffffffffffffffffffffffffffffffffffff0000000000000000000000000000000000000000000000000000ffffffffffff",
        "nonce": "0x14",
        "chainId": "0x530"
      },
      "additionalContracts": [],
      "isFixedGasLimit": false
    },
    {
      "hash": "0x0ca10c5b6a7ab636a9912a370d6f1ade50abc43ce45b4393bd1b06d451268fb9",
      "transactionType": "CALL",
      "contractName": null,
      "contractAddress": "0x59436ab44f7d991393a89d9f44c642f8202bcdb7",
      "function": "multicall(bytes[])",
      "arguments": [
        "[0xdd46508f000000000000000000000000000000000000000000000000000000000000004000000000000000000000000000000000000000000000000000000000687c46720000000000000000000000000000000000000000000000000000000000000400000000000000000000000000000000000000000000000000000000000000004000000000000000000000000000000000000000000000000000000000000000800000000000000000000000000000000000000000000000000000000000000004020d14140000000000000000000000000000000000000000000000000000000000000000000000000000000000000000000000000000000000000000000000040000000000000000000000000000000000000000000000000000000000000080000000000000000000000000000000000000000000000000000000000000024000000000000000000000000000000000000000000000000000000000000002a0000000000000000000000000000000000000000000000000000000000000030000000000000000000000000000000000000000000000000000000000000001a00000000000000000000000003340941380f515741fd81054b1f47264f85ecf7d000000000000000000000000486c5e15b33f550d0c7ee44d58b6c25d91d3702400000000000000000000000000000000000000000000000000000000000013880000000000000000000000000000000000000000000000000000000000000064000000000000000000000000fbac1016b761c47413f611439b619ae4f0528ac0fffffffffffffffffffffffffffffffffffffffffffffffffffffffffffe796000000000000000000000000000000000000000000000000000000000000186a00000000000000000000000000000000000000000000000000df8d1f3f486792d0000000000000000000000000000000000000000000000000de0b6b3a76400010000000000000000000000000000000000000000000000000de0b6b3a7640001000000000000000000000000384f416b0fdeb9b8555128e6901ff3949005bc5d0000000000000000000000000000000000000000000000000000000000000180000000000000000000000000000000000000000000000000000000000000000000000000000000000000000000000000000000000000000000000000000000400000000000000000000000003340941380f515741fd81054b1f47264f85ecf7d000000000000000000000000486c5e15b33f550d0c7ee44d58b6c25d91d3702400000000000000000000000000000000000000000000000000000000000000400000000000000000000000003340941380f515741fd81054b1f47264f85ecf7d000000000000000000000000384f416b0fdeb9b8555128e6901ff3949005bc5d0000000000000000000000000000000000000000000000000000000000000040000000000000000000000000486c5e15b33f550d0c7ee44d58b6c25d91d37024000000000000000000000000384f416b0fdeb9b8555128e6901ff3949005bc5d]"
      ],
      "transaction": {
        "from": "0x384f416b0fdeb9b8555128e6901ff3949005bc5d",
        "to": "0x59436ab44f7d991393a89d9f44c642f8202bcdb7",
        "gas": "0x7135b",
        "value": "0x0",
        "input": "0xac9650d80000000000000000000000000000000000000000000000000000000000000020000000000000000000000000000000000000000000000000000000000000000100000000000000000000000000000000000000000000000000000000000000200000000000000000000000000000000000000000000000000000000000000464dd46508f000000000000000000000000000000000000000000000000000000000000004000000000000000000000000000000000000000000000000000000000687c46720000000000000000000000000000000000000000000000000000000000000400000000000000000000000000000000000000000000000000000000000000004000000000000000000000000000000000000000000000000000000000000000800000000000000000000000000000000000000000000000000000000000000004020d14140000000000000000000000000000000000000000000000000000000000000000000000000000000000000000000000000000000000000000000000040000000000000000000000000000000000000000000000000000000000000080000000000000000000000000000000000000000000000000000000000000024000000000000000000000000000000000000000000000000000000000000002a0000000000000000000000000000000000000000000000000000000000000030000000000000000000000000000000000000000000000000000000000000001a00000000000000000000000003340941380f515741fd81054b1f47264f85ecf7d000000000000000000000000486c5e15b33f550d0c7ee44d58b6c25d91d3702400000000000000000000000000000000000000000000000000000000000013880000000000000000000000000000000000000000000000000000000000000064000000000000000000000000fbac1016b761c47413f611439b619ae4f0528ac0fffffffffffffffffffffffffffffffffffffffffffffffffffffffffffe796000000000000000000000000000000000000000000000000000000000000186a00000000000000000000000000000000000000000000000000df8d1f3f486792d0000000000000000000000000000000000000000000000000de0b6b3a76400010000000000000000000000000000000000000000000000000de0b6b3a7640001000000000000000000000000384f416b0fdeb9b8555128e6901ff3949005bc5d0000000000000000000000000000000000000000000000000000000000000180000000000000000000000000000000000000000000000000000000000000000000000000000000000000000000000000000000000000000000000000000000400000000000000000000000003340941380f515741fd81054b1f47264f85ecf7d000000000000000000000000486c5e15b33f550d0c7ee44d58b6c25d91d3702400000000000000000000000000000000000000000000000000000000000000400000000000000000000000003340941380f515741fd81054b1f47264f85ecf7d000000000000000000000000384f416b0fdeb9b8555128e6901ff3949005bc5d0000000000000000000000000000000000000000000000000000000000000040000000000000000000000000486c5e15b33f550d0c7ee44d58b6c25d91d37024000000000000000000000000384f416b0fdeb9b8555128e6901ff3949005bc5d00000000000000000000000000000000000000000000000000000000",
        "nonce": "0x15",
        "chainId": "0x530"
      },
      "additionalContracts": [],
      "isFixedGasLimit": false
    }
  ],
  "receipts": [
    {
      "status": "0x1",
      "cumulativeGasUsed": "0x0",
      "logs": [
        {
          "address": "0x486c5e15b33f550d0c7ee44d58b6c25d91d37024",
          "topics": [
            "0x8c5be1e5ebec7d5bd14f71427d1e84f3dd0314c0f7b2291e5b200ac8c7c3b925",
            "0x000000000000000000000000384f416b0fdeb9b8555128e6901ff3949005bc5d",
            "0x000000000000000000000000c6a46ff60b25c48a9ab3a073ffc52a3764c404c6"
          ],
          "data": "0xffffffffffffffffffffffffffffffffffffffffffffffffffffffffffffffff",
          "blockHash": "0x787d96307c6326e890a0907abdafe73d156a1e9dc123400dba1f8214e2600271",
          "blockNumber": "0xb18accc",
          "transactionHash": "0xfbd591d1fb94084557fbd030d4ab9fe082e3300a166eb9fe644ca2568877583f",
          "transactionIndex": "0x1",
          "logIndex": "0x3",
          "removed": false
        }
      ],
      "logsBloom": "0x00000000000000040000000000000000000000000000000000000000000000000000080000000000000000000000000000000000000000000000000000200000000000000000000000000000000000000000000000000200000000000000000000000000000000000800000000000000000000000000000000000000000000000000000000000000000000000000000000000000000000000000000000000000020000000000000000000000000000000000000000000000001000000000000000000000002000000000000000000000000000000000000000000000000000000010000000000004000000000000000000000000000010000000000000000000",
      "type": "0x2",
      "transactionHash": "0xfbd591d1fb94084557fbd030d4ab9fe082e3300a166eb9fe644ca2568877583f",
      "transactionIndex": "0x1",
      "blockHash": "0x787d96307c6326e890a0907abdafe73d156a1e9dc123400dba1f8214e2600271",
      "blockNumber": "0xb18accc",
      "gasUsed": "0x6acc",
      "effectiveGasPrice": "0x7d2b7500",
      "from": "0x384f416b0fdeb9b8555128e6901ff3949005bc5d",
      "to": "0x486c5e15b33f550d0c7ee44d58b6c25d91d37024",
      "contractAddress": null
    },
    {
      "status": "0x1",
      "cumulativeGasUsed": "0x0",
      "logs": [
        {
          "address": "0xc6a46ff60b25c48a9ab3a073ffc52a3764c404c6",
          "topics": [
            "0xda9fa7c1b00402c17d0161b249b1ab8bbec047c5a52207b9c112deffd817036b",
            "0x000000000000000000000000384f416b0fdeb9b8555128e6901ff3949005bc5d",
            "0x000000000000000000000000486c5e15b33f550d0c7ee44d58b6c25d91d37024",
            "0x00000000000000000000000059436ab44f7d991393a89d9f44c642f8202bcdb7"
          ],
          "data": "0x000000000000000000000000ffffffffffffffffffffffffffffffffffffffff0000000000000000000000000000000000000000000000000000ffffffffffff",
          "blockHash": "0xb8fd497a0c8346849b9cd566a925cb75a259f42a696b1a4afc3dcb63452701a5",
          "blockNumber": "0xb18accd",
          "transactionHash": "0x1470ef6b70fe6ec0ff579db8d4de1373b7621fc6411a7669adf4f7dfc718ff41",
          "transactionIndex": "0x1",
          "logIndex": "0x3",
          "removed": false
        }
      ],
      "logsBloom": "0x01004000000000000000000000000000000000000000000000000000000000000000010000010000000000000000000000000000000000000000008000200000000000000000000000000000000000000800000000000000000200000000000000000000000000000000000000000000000000000000000000000000000000000020000000000000000000000000010000000000000000000000000000000000000000000004000000000000000000000000000000000000001000080000000000000000000000000000000000000000000000000000000040000000000000000000000000000000000000000000000000000000000010000000000000000000",
      "type": "0x2",
      "transactionHash": "0x1470ef6b70fe6ec0ff579db8d4de1373b7621fc6411a7669adf4f7dfc718ff41",
      "transactionIndex": "0x1",
      "blockHash": "0xb8fd497a0c8346849b9cd566a925cb75a259f42a696b1a4afc3dcb63452701a5",
      "blockNumber": "0xb18accd",
      "gasUsed": "0x6d0e",
      "effectiveGasPrice": "0x7d2b7500",
      "from": "0x384f416b0fdeb9b8555128e6901ff3949005bc5d",
      "to": "0xc6a46ff60b25c48a9ab3a073ffc52a3764c404c6",
      "contractAddress": null
    },
    {
      "status": "0x1",
      "cumulativeGasUsed": "0x0",
      "logs": [
        {
          "address": "0x3340941380f515741fd81054b1f47264f85ecf7d",
          "topics": [
            "0x8c5be1e5ebec7d5bd14f71427d1e84f3dd0314c0f7b2291e5b200ac8c7c3b925",
            "0x000000000000000000000000384f416b0fdeb9b8555128e6901ff3949005bc5d",
            "0x000000000000000000000000c6a46ff60b25c48a9ab3a073ffc52a3764c404c6"
          ],
          "data": "0xffffffffffffffffffffffffffffffffffffffffffffffffffffffffffffffff",
          "blockHash": "0x87a354e9217dbe774d0db41c8eef35463af91c4fa7c03b2095b7956d2f5b12b0",
          "blockNumber": "0xb18accf",
          "transactionHash": "0x13c610c2ca3a29ce78a15d2b155dedddf127b34579240f734547344a67aedcf6",
          "transactionIndex": "0x0",
          "logIndex": "0x0",
          "removed": false
        }
      ],
      "logsBloom": "0x00000000000000000000000000000000000000000000000000000000000000000000080000000000000000000000000000000000000000000000000000200000000000000000000000000000000000000000000000000200000000000000000000000000000000000400000000000000000000000000000000000000000000000000000000000000000000008000000000000000000000000000000000000000020000000000000000000000000000000000000000000000001000000000000000000000002000000000000000000000000000000000000000000000000400000010000000000000000000000000000000000000000010000000000000000000",
      "type": "0x2",
      "transactionHash": "0x13c610c2ca3a29ce78a15d2b155dedddf127b34579240f734547344a67aedcf6",
      "transactionIndex": "0x0",
      "blockHash": "0x87a354e9217dbe774d0db41c8eef35463af91c4fa7c03b2095b7956d2f5b12b0",
      "blockNumber": "0xb18accf",
      "gasUsed": "0x6acc",
      "effectiveGasPrice": "0x7d2b7500",
      "from": "0x384f416b0fdeb9b8555128e6901ff3949005bc5d",
      "to": "0x3340941380f515741fd81054b1f47264f85ecf7d",
      "contractAddress": null
    },
    {
      "status": "0x1",
      "cumulativeGasUsed": "0x0",
      "logs": [
        {
          "address": "0xc6a46ff60b25c48a9ab3a073ffc52a3764c404c6",
          "topics": [
            "0xda9fa7c1b00402c17d0161b249b1ab8bbec047c5a52207b9c112deffd817036b",
            "0x000000000000000000000000384f416b0fdeb9b8555128e6901ff3949005bc5d",
            "0x0000000000000000000000003340941380f515741fd81054b1f47264f85ecf7d",
            "0x00000000000000000000000059436ab44f7d991393a89d9f44c642f8202bcdb7"
          ],
          "data": "0x000000000000000000000000ffffffffffffffffffffffffffffffffffffffff0000000000000000000000000000000000000000000000000000ffffffffffff",
          "blockHash": "0x7f7451ffe2441755f63ef6e698c67a52f3582d23b21058232073a4a52913bf43",
          "blockNumber": "0xb18acd0",
          "transactionHash": "0xa15ad5b8a4f6a8ca83f1c31ea335945950c34211867d26c155680b072ef63458",
          "transactionIndex": "0x2",
          "logIndex": "0x5",
          "removed": false
        }
      ],
      "logsBloom": "0x01004000000000000000000000000000000000000000000000000000000000000000000000000000000000000000000000000000000000000000000000200000000000000000000000000000000000000800000000000000800200000000000000000000000000000000000000000000000000000000000000000000200000000020000000000000000000000000010000000000000000000000000000000000000000000004000000000000000000000000000000000000001000080000000000000000000000000000000000000000000000000000000040000000000000000002000000000000000000000000000000000000000010000000000000000000",
      "type": "0x2",
      "transactionHash": "0xa15ad5b8a4f6a8ca83f1c31ea335945950c34211867d26c155680b072ef63458",
      "transactionIndex": "0x2",
      "blockHash": "0x7f7451ffe2441755f63ef6e698c67a52f3582d23b21058232073a4a52913bf43",
      "blockNumber": "0xb18acd0",
      "gasUsed": "0x6d0e",
      "effectiveGasPrice": "0x7d2b7500",
      "from": "0x384f416b0fdeb9b8555128e6901ff3949005bc5d",
      "to": "0xc6a46ff60b25c48a9ab3a073ffc52a3764c404c6",
      "contractAddress": null
    },
    {
      "status": "0x1",
      "cumulativeGasUsed": "0x0",
      "logs": [
        {
          "address": "0x59436ab44f7d991393a89d9f44c642f8202bcdb7",
          "topics": [
            "0xddf252ad1be2c89b69c2b068fc378daa952ba7f163c4a11628f55a4df523b3ef",
            "0x0000000000000000000000000000000000000000000000000000000000000000",
            "0x000000000000000000000000384f416b0fdeb9b8555128e6901ff3949005bc5d",
            "0x0000000000000000000000000000000000000000000000000000000000000002"
          ],
          "data": "0x",
          "blockHash": "0xe37dcfbd02f3d62d5ed057d36d488ce4876182f49d23695d7d3f391eb99cb6a8",
          "blockNumber": "0xb18acd1",
          "transactionHash": "0x0ca10c5b6a7ab636a9912a370d6f1ade50abc43ce45b4393bd1b06d451268fb9",
          "transactionIndex": "0x1",
          "logIndex": "0x3",
          "removed": false
        },
        {
          "address": "0xabe535b9e243686b98874889512cc52e30465900",
          "topics": [
            "0xf208f4912782fd25c7f114ca3723a2d5dd6f3bcc3ac8db5af63baa85f711d5ec",
            "0xb6794dccb58bd6f4c20f77bf9acad056d4c63bf54c353c644a0399280f8c05d6",
            "0x00000000000000000000000059436ab44f7d991393a89d9f44c642f8202bcdb7"
          ],
          "data": "0xfffffffffffffffffffffffffffffffffffffffffffffffffffffffffffe796000000000000000000000000000000000000000000000000000000000000186a00000000000000000000000000000000000000000000000000df8d1f3f486792d0000000000000000000000000000000000000000000000000000000000000002",
          "blockHash": "0xe37dcfbd02f3d62d5ed057d36d488ce4876182f49d23695d7d3f391eb99cb6a8",
          "blockNumber": "0xb18acd1",
          "transactionHash": "0x0ca10c5b6a7ab636a9912a370d6f1ade50abc43ce45b4393bd1b06d451268fb9",
          "transactionIndex": "0x1",
          "logIndex": "0x4",
          "removed": false
        },
        {
          "address": "0x3340941380f515741fd81054b1f47264f85ecf7d",
          "topics": [
            "0xddf252ad1be2c89b69c2b068fc378daa952ba7f163c4a11628f55a4df523b3ef",
            "0x000000000000000000000000384f416b0fdeb9b8555128e6901ff3949005bc5d",
            "0x000000000000000000000000abe535b9e243686b98874889512cc52e30465900"
          ],
          "data": "0x0000000000000000000000000000000000000000000000000de0b6b3a7640000",
          "blockHash": "0xe37dcfbd02f3d62d5ed057d36d488ce4876182f49d23695d7d3f391eb99cb6a8",
          "blockNumber": "0xb18acd1",
          "transactionHash": "0x0ca10c5b6a7ab636a9912a370d6f1ade50abc43ce45b4393bd1b06d451268fb9",
          "transactionIndex": "0x1",
          "logIndex": "0x5",
          "removed": false
        },
        {
          "address": "0x486c5e15b33f550d0c7ee44d58b6c25d91d37024",
          "topics": [
            "0xddf252ad1be2c89b69c2b068fc378daa952ba7f163c4a11628f55a4df523b3ef",
            "0x000000000000000000000000384f416b0fdeb9b8555128e6901ff3949005bc5d",
            "0x000000000000000000000000abe535b9e243686b98874889512cc52e30465900"
          ],
          "data": "0x0000000000000000000000000000000000000000000000000de0b6b3a7640000",
          "blockHash": "0xe37dcfbd02f3d62d5ed057d36d488ce4876182f49d23695d7d3f391eb99cb6a8",
          "blockNumber": "0xb18acd1",
          "transactionHash": "0x0ca10c5b6a7ab636a9912a370d6f1ade50abc43ce45b4393bd1b06d451268fb9",
          "transactionIndex": "0x1",
          "logIndex": "0x6",
          "removed": false
        }
      ],
      "logsBloom": "0x04004000000000040000000000000000000000000000000000000000000000000000800000000000000000000000000000000000000000000000000000200000000000100000008000000008000100000000000000000000000200000000000000000000020000400c00000000000800000000000001000000000010000000000000000001002000000004008000000000000000000000000400000000000000000004001004000000000100000000000000000000000000001000000000000000000002000000000000000000000000000000000000000000200000000420000000000000000004008000000000000004000000008010000000000000000000",
      "type": "0x2",
      "transactionHash": "0x0ca10c5b6a7ab636a9912a370d6f1ade50abc43ce45b4393bd1b06d451268fb9",
      "transactionIndex": "0x1",
      "blockHash": "0xe37dcfbd02f3d62d5ed057d36d488ce4876182f49d23695d7d3f391eb99cb6a8",
      "blockNumber": "0xb18acd1",
      "gasUsed": "0x51f64",
      "effectiveGasPrice": "0x7d2b7500",
      "from": "0x384f416b0fdeb9b8555128e6901ff3949005bc5d",
      "to": "0x59436ab44f7d991393a89d9f44c642f8202bcdb7",
      "contractAddress": null
    }
  ],
  "libraries": [],
  "pending": [],
  "returns": {},
  "timestamp": 1752974911,
  "chain": 1328,
  "commit": "505599a"
}