{
  "transactions": [
    {
      "hash": "0xec884c2f7994feb147ad09c2ffc53e613fb5546115d62d9e78986e1534ab8059",
      "transactionType": "CALL",
      "contractName": null,
      "contractAddress": "0x486c5e15b33f550d0c7ee44d58b6c25d91d37024",
      "function": "approve(address,uint256)",
      "arguments": [
        "0xc6A46ff60B25C48A9Ab3a073FFC52A3764C404c6",
        "115792089237316195423570985008687907853269984665640564039457584007913129639935"
      ],
      "transaction": {
        "from": "0x384f416b0fdeb9b8555128e6901ff3949005bc5d",
        "to": "0x486c5e15b33f550d0c7ee44d58b6c25d91d37024",
        "gas": "0xfee1",
        "value": "0x0",
        "input": "0x095ea7b3000000000000000000000000c6a46ff60b25c48a9ab3a073ffc52a3764c404c6ffffffffffffffffffffffffffffffffffffffffffffffffffffffffffffffff",
        "nonce": "0xc",
        "chainId": "0x530"
      },
      "additionalContracts": [],
      "isFixedGasLimit": false
    },
    {
      "hash": "0x0ae6b062b9100519c4d0e2ecd511b23ee774020c0fb531245ecb680e46a50cf4",
      "transactionType": "CALL",
      "contractName": null,
      "contractAddress": "0xc6a46ff60b25c48a9ab3a073ffc52a3764c404c6",
      "function": "approve(address,address,uint160,uint48)",
      "arguments": [
        "0x486c5e15B33f550D0c7eE44D58b6c25D91d37024",
        "0x59436ab44f7D991393A89D9f44C642f8202BCDb7",
        "1461501637330902918203684832716283019655932542975",
        "281474976710655"
      ],
      "transaction": {
        "from": "0x384f416b0fdeb9b8555128e6901ff3949005bc5d",
        "to": "0xc6a46ff60b25c48a9ab3a073ffc52a3764c404c6",
        "gas": "0x1112d",
        "value": "0x0",
        "input": "0x87517c45000000000000000000000000486c5e15b33f550d0c7ee44d58b6c25d91d3702400000000000000000000000059436ab44f7d991393a89d9f44c642f8202bcdb7000000000000000000000000ffffffffffffffffffffffffffffffffffffffff0000000000000000000000000000000000000000000000000000ffffffffffff",
        "nonce": "0xd",
        "chainId": "0x530"
      },
      "additionalContracts": [],
      "isFixedGasLimit": false
    },
    {
      "hash": "0x2665e5517f5e69b8345c2cffbcc03a6600c2711f2e34a9629aa26b98e297f531",
      "transactionType": "CALL",
      "contractName": null,
      "contractAddress": "0x3340941380f515741fd81054b1f47264f85ecf7d",
      "function": "approve(address,uint256)",
      "arguments": [
        "0xc6A46ff60B25C48A9Ab3a073FFC52A3764C404c6",
        "115792089237316195423570985008687907853269984665640564039457584007913129639935"
      ],
      "transaction": {
        "from": "0x384f416b0fdeb9b8555128e6901ff3949005bc5d",
        "to": "0x3340941380f515741fd81054b1f47264f85ecf7d",
        "gas": "0xfee1",
        "value": "0x0",
        "input": "0x095ea7b3000000000000000000000000c6a46ff60b25c48a9ab3a073ffc52a3764c404c6ffffffffffffffffffffffffffffffffffffffffffffffffffffffffffffffff",
        "nonce": "0xe",
        "chainId": "0x530"
      },
      "additionalContracts": [],
      "isFixedGasLimit": false
    },
    {
      "hash": "0x77d6e00d5690e1c34d428c96ac2a3ea6114bed9f1b5c5afd37b433a0a5127ee4",
      "transactionType": "CALL",
      "contractName": null,
      "contractAddress": "0xc6a46ff60b25c48a9ab3a073ffc52a3764c404c6",
      "function": "approve(address,address,uint160,uint48)",
      "arguments": [
        "0x3340941380F515741FD81054b1f47264F85ecf7D",
        "0x59436ab44f7D991393A89D9f44C642f8202BCDb7",
        "1461501637330902918203684832716283019655932542975",
        "281474976710655"
      ],
      "transaction": {
        "from": "0x384f416b0fdeb9b8555128e6901ff3949005bc5d",
        "to": "0xc6a46ff60b25c48a9ab3a073ffc52a3764c404c6",
        "gas": "0x1112d",
        "value": "0x0",
        "input": "0x87517c450000000000000000000000003340941380f515741fd81054b1f47264f85ecf7d00000000000000000000000059436ab44f7d991393a89d9f44c642f8202bcdb7000000000000000000000000ffffffffffffffffffffffffffffffffffffffff0000000000000000000000000000000000000000000000000000ffffffffffff",
        "nonce": "0xf",
        "chainId": "0x530"
      },
      "additionalContracts": [],
      "isFixedGasLimit": false
    },
    {
      "hash": "0x5e851881debaa020f1b6da7568bf485b5e4711f2374e587fabe2e4790919b8a9",
      "transactionType": "CALL",
      "contractName": null,
      "contractAddress": "0x59436ab44f7d991393a89d9f44c642f8202bcdb7",
      "function": "multicall(bytes[])",
      "arguments": [
        "[0xf70204050000000000000000000000003340941380f515741fd81054b1f47264f85ecf7d000000000000000000000000486c5e15b33f550d0c7ee44d58b6c25d91d3702400000000000000000000000000000000000000000000000000000000000013880000000000000000000000000000000000000000000000000000000000000064000000000000000000000000fbac1016b761c47413f611439b619ae4f0528ac0000000000000000000000000000000000000000100000000000000000000000000000000000000000000000000000000000000000000000000000000000000e00000000000000000000000000000000000000000000000000000000000000000, 0xdd46508f000000000000000000000000000000000000000000000000000000000000004000000000000000000000000000000000000000000000000000000000687c54390000000000000000000000000000000000000000000000000000000000000400000000000000000000000000000000000000000000000000000000000000004000000000000000000000000000000000000000000000000000000000000000800000000000000000000000000000000000000000000000000000000000000004020d14140000000000000000000000000000000000000000000000000000000000000000000000000000000000000000000000000000000000000000000000040000000000000000000000000000000000000000000000000000000000000080000000000000000000000000000000000000000000000000000000000000024000000000000000000000000000000000000000000000000000000000000002a0000000000000000000000000000000000000000000000000000000000000030000000000000000000000000000000000000000000000000000000000000001a00000000000000000000000003340941380f515741fd81054b1f47264f85ecf7d000000000000000000000000486c5e15b33f550d0c7ee44d58b6c25d91d3702400000000000000000000000000000000000000000000000000000000000013880000000000000000000000000000000000000000000000000000000000000064000000000000000000000000fbac1016b761c47413f611439b619ae4f0528ac0fffffffffffffffffffffffffffffffffffffffffffffffffffffffffffedb0800000000000000000000000000000000000000000000000000000000000124f80000000000000000000000000000000000000000000000000e364b50c0bf8e630000000000000000000000000000000000000000000000000de0b6b3a76400010000000000000000000000000000000000000000000000000de0b6b3a7640001000000000000000000000000384f416b0fdeb9b8555128e6901ff3949005bc5d0000000000000000000000000000000000000000000000000000000000000180000000000000000000000000000000000000000000000000000000000000000000000000000000000000000000000000000000000000000000000000000000400000000000000000000000003340941380f515741fd81054b1f47264f85ecf7d000000000000000000000000486c5e15b33f550d0c7ee44d58b6c25d91d3702400000000000000000000000000000000000000000000000000000000000000400000000000000000000000003340941380f515741fd81054b1f47264f85ecf7d000000000000000000000000384f416b0fdeb9b8555128e6901ff3949005bc5d0000000000000000000000000000000000000000000000000000000000000040000000000000000000000000486c5e15b33f550d0c7ee44d58b6c25d91d37024000000000000000000000000384f416b0fdeb9b8555128e6901ff3949005bc5d]"
      ],
      "transaction": {
        "from": "0x384f416b0fdeb9b8555128e6901ff3949005bc5d",
        "to": "0x59436ab44f7d991393a89d9f44c642f8202bcdb7",
        "gas": "0xaf163",
        "value": "0x0",
        "input": "0xac9650d800000000000000000000000000000000000000000000000000000000000000200000000000000000000000000000000000000000000000000000000000000002000000000000000000000000000000000000000000000000000000000000004000000000000000000000000000000000000000000000000000000000000001800000000000000000000000000000000000000000000000000000000000000104f70204050000000000000000000000003340941380f515741fd81054b1f47264f85ecf7d000000000000000000000000486c5e15b33f550d0c7ee44d58b6c25d91d3702400000000000000000000000000000000000000000000000000000000000013880000000000000000000000000000000000000000000000000000000000000064000000000000000000000000fbac1016b761c47413f611439b619ae4f0528ac0000000000000000000000000000000000000000100000000000000000000000000000000000000000000000000000000000000000000000000000000000000e00000000000000000000000000000000000000000000000000000000000000000000000000000000000000000000000000000000000000000000000000000000000000000000000000000000000000000000000000000000000000464dd46508f000000000000000000000000000000000000000000000000000000000000004000000000000000000000000000000000000000000000000000000000687c54390000000000000000000000000000000000000000000000000000000000000400000000000000000000000000000000000000000000000000000000000000004000000000000000000000000000000000000000000000000000000000000000800000000000000000000000000000000000000000000000000000000000000004020d14140000000000000000000000000000000000000000000000000000000000000000000000000000000000000000000000000000000000000000000000040000000000000000000000000000000000000000000000000000000000000080000000000000000000000000000000000000000000000000000000000000024000000000000000000000000000000000000000000000000000000000000002a0000000000000000000000000000000000000000000000000000000000000030000000000000000000000000000000000000000000000000000000000000001a00000000000000000000000003340941380f515741fd81054b1f47264f85ecf7d000000000000000000000000486c5e15b33f550d0c7ee44d58b6c25d91d3702400000000000000000000000000000000000000000000000000000000000013880000000000000000000000000000000000000000000000000000000000000064000000000000000000000000fbac1016b761c47413f611439b619ae4f0528ac0fffffffffffffffffffffffffffffffffffffffffffffffffffffffffffedb0800000000000000000000000000000000000000000000000000000000000124f80000000000000000000000000000000000000000000000000e364b50c0bf8e630000000000000000000000000000000000000000000000000de0b6b3a76400010000000000000000000000000000000000000000000000000de0b6b3a7640001000000000000000000000000384f416b0fdeb9b8555128e6901ff3949005bc5d0000000000000000000000000000000000000000000000000000000000000180000000000000000000000000000000000000000000000000000000000000000000000000000000000000000000000000000000000000000000000000000000400000000000000000000000003340941380f515741fd81054b1f47264f85ecf7d000000000000000000000000486c5e15b33f550d0c7ee44d58b6c25d91d3702400000000000000000000000000000000000000000000000000000000000000400000000000000000000000003340941380f515741fd81054b1f47264f85ecf7d000000000000000000000000384f416b0fdeb9b8555128e6901ff3949005bc5d0000000000000000000000000000000000000000000000000000000000000040000000000000000000000000486c5e15b33f550d0c7ee44d58b6c25d91d37024000000000000000000000000384f416b0fdeb9b8555128e6901ff3949005bc5d00000000000000000000000000000000000000000000000000000000",
        "nonce": "0x10",
        "chainId": "0x530"
      },
      "additionalContracts": [],
      "isFixedGasLimit": false
    }
  ],
  "receipts": [
    {
      "status": "0x1",
      "cumulativeGasUsed": "0x0",
      "logs": [
        {
          "address": "0x486c5e15b33f550d0c7ee44d58b6c25d91d37024",
          "topics": [
            "0x8c5be1e5ebec7d5bd14f71427d1e84f3dd0314c0f7b2291e5b200ac8c7c3b925",
            "0x000000000000000000000000384f416b0fdeb9b8555128e6901ff3949005bc5d",
            "0x000000000000000000000000c6a46ff60b25c48a9ab3a073ffc52a3764c404c6"
          ],
          "data": "0xffffffffffffffffffffffffffffffffffffffffffffffffffffffffffffffff",
          "blockHash": "0x8e1e5656f72419802d96ba7e482a7ec1d05f76eee0886bef2f13beb09f0132a6",
          "blockNumber": "0xb18acab",
          "transactionHash": "0xec884c2f7994feb147ad09c2ffc53e613fb5546115d62d9e78986e1534ab8059",
          "transactionIndex": "0x1",
          "logIndex": "0x3",
          "removed": false
        }
      ],
      "logsBloom": "0x00000000000000040000000000000000000000000000000000000000000000000000080000000000000000000000000000000000000000000000000000200000000000000000000000000000000000000000000000000200000000000000000000000000000000000800000000000000000000000000000000000000000000000000000000000000000000000000000000000000000000000000000000000000020000000000000000000000000000000000000000000000001000000000000000000000002000000000000000000000000000000000000000000000000000000010000000000004000000000000000000000000000010000000000000000000",
      "type": "0x2",
      "transactionHash": "0xec884c2f7994feb147ad09c2ffc53e613fb5546115d62d9e78986e1534ab8059",
      "transactionIndex": "0x1",
      "blockHash": "0x8e1e5656f72419802d96ba7e482a7ec1d05f76eee0886bef2f13beb09f0132a6",
      "blockNumber": "0xb18acab",
      "gasUsed": "0xb888",
      "effectiveGasPrice": "0x7d2b7500",
      "from": "0x384f416b0fdeb9b8555128e6901ff3949005bc5d",
      "to": "0x486c5e15b33f550d0c7ee44d58b6c25d91d37024",
      "contractAddress": null
    },
    {
      "status": "0x1",
      "cumulativeGasUsed": "0x0",
      "logs": [
        {
          "address": "0xc6a46ff60b25c48a9ab3a073ffc52a3764c404c6",
          "topics": [
            "0xda9fa7c1b00402c17d0161b249b1ab8bbec047c5a52207b9c112deffd817036b",
            "0x000000000000000000000000384f416b0fdeb9b8555128e6901ff3949005bc5d",
            "0x000000000000000000000000486c5e15b33f550d0c7ee44d58b6c25d91d37024",
            "0x00000000000000000000000059436ab44f7d991393a89d9f44c642f8202bcdb7"
          ],
          "data": "0x000000000000000000000000ffffffffffffffffffffffffffffffffffffffff0000000000000000000000000000000000000000000000000000ffffffffffff",
          "blockHash": "0x5cc963d415ab112c416f125d498b8ceb403ed214955a5a6516c7966c94281830",
          "blockNumber": "0xb18acac",
          "transactionHash": "0x0ae6b062b9100519c4d0e2ecd511b23ee774020c0fb531245ecb680e46a50cf4",
          "transactionIndex": "0x1",
          "logIndex": "0x3",
          "removed": false
        }
      ],
      "logsBloom": "0x01004000000000000000000000000000000000000000000000000000000000000000010000010000000000000000000000000000000000000000008000200000000000000000000000000000000000000800000000000000000200000000000000000000000000000000000000000000000000000000000000000000000000000020000000000000000000000000010000000000000000000000000000000000000000000004000000000000000000000000000000000000001000080000000000000000000000000000000000000000000000000000000040000000000000000000000000000000000000000000000000000000000010000000000000000000",
      "type": "0x2",
      "transactionHash": "0x0ae6b062b9100519c4d0e2ecd511b23ee774020c0fb531245ecb680e46a50cf4",
      "transactionIndex": "0x1",
      "blockHash": "0x5cc963d415ab112c416f125d498b8ceb403ed214955a5a6516c7966c94281830",
      "blockNumber": "0xb18acac",
      "gasUsed": "0xbaca",
      "effectiveGasPrice": "0x7d2b7500",
      "from": "0x384f416b0fdeb9b8555128e6901ff3949005bc5d",
      "to": "0xc6a46ff60b25c48a9ab3a073ffc52a3764c404c6",
      "contractAddress": null
    },
    {
      "status": "0x1",
      "cumulativeGasUsed": "0x0",
      "logs": [
        {
          "address": "0x3340941380f515741fd81054b1f47264f85ecf7d",
          "topics": [
            "0x8c5be1e5ebec7d5bd14f71427d1e84f3dd0314c0f7b2291e5b200ac8c7c3b925",
            "0x000000000000000000000000384f416b0fdeb9b8555128e6901ff3949005bc5d",
            "0x000000000000000000000000c6a46ff60b25c48a9ab3a073ffc52a3764c404c6"
          ],
          "data": "0xffffffffffffffffffffffffffffffffffffffffffffffffffffffffffffffff",
          "blockHash": "0x12bcca8fd94ff2a566b5622dda0cb5c6eddffaa74b55232193af78c205c8af06",
          "blockNumber": "0xb18acad",
          "transactionHash": "0x2665e5517f5e69b8345c2cffbcc03a6600c2711f2e34a9629aa26b98e297f531",
          "transactionIndex": "0x0",
          "logIndex": "0x0",
          "removed": false
        }
      ],
      "logsBloom": "0x00000000000000000000000000000000000000000000000000000000000000000000080000000000000000000000000000000000000000000000000000200000000000000000000000000000000000000000000000000200000000000000000000000000000000000400000000000000000000000000000000000000000000000000000000000000000000008000000000000000000000000000000000000000020000000000000000000000000000000000000000000000001000000000000000000000002000000000000000000000000000000000000000000000000400000010000000000000000000000000000000000000000010000000000000000000",
      "type": "0x2",
      "transactionHash": "0x2665e5517f5e69b8345c2cffbcc03a6600c2711f2e34a9629aa26b98e297f531",
      "transactionIndex": "0x0",
      "blockHash": "0x12bcca8fd94ff2a566b5622dda0cb5c6eddffaa74b55232193af78c205c8af06",
      "blockNumber": "0xb18acad",
      "gasUsed": "0xb888",
      "effectiveGasPrice": "0x7d2b7500",
      "from": "0x384f416b0fdeb9b8555128e6901ff3949005bc5d",
      "to": "0x3340941380f515741fd81054b1f47264f85ecf7d",
      "contractAddress": null
    },
    {
      "status": "0x1",
      "cumulativeGasUsed": "0x0",
      "logs": [
        {
          "address": "0xc6a46ff60b25c48a9ab3a073ffc52a3764c404c6",
          "topics": [
            "0xda9fa7c1b00402c17d0161b249b1ab8bbec047c5a52207b9c112deffd817036b",
            "0x000000000000000000000000384f416b0fdeb9b8555128e6901ff3949005bc5d",
            "0x0000000000000000000000003340941380f515741fd81054b1f47264f85ecf7d",
            "0x00000000000000000000000059436ab44f7d991393a89d9f44c642f8202bcdb7"
          ],
          "data": "0x000000000000000000000000ffffffffffffffffffffffffffffffffffffffff0000000000000000000000000000000000000000000000000000ffffffffffff",
          "blockHash": "0x20e55c8196b4e3155f848169983adfddd0d0b64668ff32871c35cec8881488e8",
          "blockNumber": "0xb18acae",
          "transactionHash": "0x77d6e00d5690e1c34d428c96ac2a3ea6114bed9f1b5c5afd37b433a0a5127ee4",
          "transactionIndex": "0x4",
          "logIndex": "0xc",
          "removed": false
        }
      ],
      "logsBloom": "0x01004000000000000000000000000000000000000000000000000000000000000000000000000000000000000000000000000000000000000000000000200000000000000000000000000000000000000800000000000000800200000000000000000000000000000000000000000000000000000000000000000000200000000020000000000000000000000000010000000000000000000000000000000000000000000004000000000000000000000000000000000000001000080000000000000000000000000000000000000000000000000000000040000000000000000002000000000000000000000000000000000000000010000000000000000000",
      "type": "0x2",
      "transactionHash": "0x77d6e00d5690e1c34d428c96ac2a3ea6114bed9f1b5c5afd37b433a0a5127ee4",
      "transactionIndex": "0x4",
      "blockHash": "0x20e55c8196b4e3155f848169983adfddd0d0b64668ff32871c35cec8881488e8",
      "blockNumber": "0xb18acae",
      "gasUsed": "0xbaca",
      "effectiveGasPrice": "0x7d2b7500",
      "from": "0x384f416b0fdeb9b8555128e6901ff3949005bc5d",
      "to": "0xc6a46ff60b25c48a9ab3a073ffc52a3764c404c6",
      "contractAddress": null
    },
    {
      "status": "0x1",
      "cumulativeGasUsed": "0x0",
      "logs": [
        {
          "address": "0xabe535b9e243686b98874889512cc52e30465900",
          "topics": [
            "0xdd466e674ea557f56295e2d0218a125ea4b4f0f6f3307b95f85e6110838d6438",
            "0xb6794dccb58bd6f4c20f77bf9acad056d4c63bf54c353c644a0399280f8c05d6",
            "0x0000000000000000000000003340941380f515741fd81054b1f47264f85ecf7d",
            "0x000000000000000000000000486c5e15b33f550d0c7ee44d58b6c25d91d37024"
          ],
          "data": "0x00000000000000000000000000000000000000000000000000000000000013880000000000000000000000000000000000000000000000000000000000000064000000000000000000000000fbac1016b761c47413f611439b619ae4f0528ac000000000000000000000000000000000000000010000000000000000000000000000000000000000000000000000000000000000000000000000000000000000",
          "blockHash": "0x412fd7868105d5705ea6e885d2929e8282fcb1accf6952a96c4257e85a26bfae",
          "blockNumber": "0xb18acb0",
          "transactionHash": "0x5e851881debaa020f1b6da7568bf485b5e4711f2374e587fabe2e4790919b8a9",
          "transactionIndex": "0x0",
          "logIndex": "0x0",
          "removed": false
        },
        {
          "address": "0x59436ab44f7d991393a89d9f44c642f8202bcdb7",
          "topics": [
            "0xddf252ad1be2c89b69c2b068fc378daa952ba7f163c4a11628f55a4df523b3ef",
            "0x0000000000000000000000000000000000000000000000000000000000000000",
            "0x000000000000000000000000384f416b0fdeb9b8555128e6901ff3949005bc5d",
            "0x0000000000000000000000000000000000000000000000000000000000000001"
          ],
          "data": "0x",
          "blockHash": "0x412fd7868105d5705ea6e885d2929e8282fcb1accf6952a96c4257e85a26bfae",
          "blockNumber": "0xb18acb0",
          "transactionHash": "0x5e851881debaa020f1b6da7568bf485b5e4711f2374e587fabe2e4790919b8a9",
          "transactionIndex": "0x0",
          "logIndex": "0x1",
          "removed": false
        },
        {
          "address": "0xabe535b9e243686b98874889512cc52e30465900",
          "topics": [
            "0xf208f4912782fd25c7f114ca3723a2d5dd6f3bcc3ac8db5af63baa85f711d5ec",
            "0xb6794dccb58bd6f4c20f77bf9acad056d4c63bf54c353c644a0399280f8c05d6",
            "0x00000000000000000000000059436ab44f7d991393a89d9f44c642f8202bcdb7"
          ],
          "data": "0xfffffffffffffffffffffffffffffffffffffffffffffffffffffffffffedb0800000000000000000000000000000000000000000000000000000000000124f80000000000000000000000000000000000000000000000000e364b50c0bf8e630000000000000000000000000000000000000000000000000000000000000001",
          "blockHash": "0x412fd7868105d5705ea6e885d2929e8282fcb1accf6952a96c4257e85a26bfae",
          "blockNumber": "0xb18acb0",
          "transactionHash": "0x5e851881debaa020f1b6da7568bf485b5e4711f2374e587fabe2e4790919b8a9",
          "transactionIndex": "0x0",
          "logIndex": "0x2",
          "removed": false
        },
        {
          "address": "0x3340941380f515741fd81054b1f47264f85ecf7d",
          "topics": [
            "0xddf252ad1be2c89b69c2b068fc378daa952ba7f163c4a11628f55a4df523b3ef",
            "0x000000000000000000000000384f416b0fdeb9b8555128e6901ff3949005bc5d",
            "0x000000000000000000000000abe535b9e243686b98874889512cc52e30465900"
          ],
          "data": "0x0000000000000000000000000000000000000000000000000de0b6b3a7640000",
          "blockHash": "0x412fd7868105d5705ea6e885d2929e8282fcb1accf6952a96c4257e85a26bfae",
          "blockNumber": "0xb18acb0",
          "transactionHash": "0x5e851881debaa020f1b6da7568bf485b5e4711f2374e587fabe2e4790919b8a9",
          "transactionIndex": "0x0",
          "logIndex": "0x3",
          "removed": false
        },
        {
          "address": "0x486c5e15b33f550d0c7ee44d58b6c25d91d37024",
          "topics": [
            "0xddf252ad1be2c89b69c2b068fc378daa952ba7f163c4a11628f55a4df523b3ef",
            "0x000000000000000000000000384f416b0fdeb9b8555128e6901ff3949005bc5d",
            "0x000000000000000000000000abe535b9e243686b98874889512cc52e30465900"
          ],
          "data": "0x0000000000000000000000000000000000000000000000000de0b6b3a7640000",
          "blockHash": "0x412fd7868105d5705ea6e885d2929e8282fcb1accf6952a96c4257e85a26bfae",
          "blockNumber": "0xb18acb0",
          "transactionHash": "0x5e851881debaa020f1b6da7568bf485b5e4711f2374e587fabe2e4790919b8a9",
          "transactionIndex": "0x0",
          "logIndex": "0x4",
          "removed": false
        }
      ],
      "logsBloom": "0x00004000000000040000000000000000000000000000000000000000000000000000810000010000000000000000000000000000000000000000008000240000000000100000008000000008000100000000000000040000800200000000000000000000020000400c00000000000800000000000001000000000010200000000000000001002008000004008000000000000001000000000400000000200000000004001004000000000000000000000000000000000000001000000000000000000002000000000000000000000000000000000000000000200000000460000002000000000004008000000000000004000000000010000000000000000000",
      "type": "0x2",
      "transactionHash": "0x5e851881debaa020f1b6da7568bf485b5e4711f2374e587fabe2e4790919b8a9",
      "transactionIndex": "0x0",
      "blockHash": "0x412fd7868105d5705ea6e885d2929e8282fcb1accf6952a96c4257e85a26bfae",
      "blockNumber": "0xb18acb0",
      "gasUsed": "0x7ec28",
      "effectiveGasPrice": "0x7d2b7500",
      "from": "0x384f416b0fdeb9b8555128e6901ff3949005bc5d",
      "to": "0x59436ab44f7d991393a89d9f44c642f8202bcdb7",
      "contractAddress": null
    }
  ],
  "libraries": [],
  "pending": [],
  "returns": {},
  "timestamp": 1752974898,
  "chain": 1328,
  "commit": "505599a"
}