{
  "transactions": [
    {
      "hash": "0x991c72687e473d4cbbd33a8d7ce19b4a887f13d6f9ec71618d722ab1379b8a43",
      "transactionType": "CALL",
      "contractName": null,
      "contractAddress": "0xcd13fdb6befdcc73500a23eeb03bd06ded3b4eee",
      "function": "approve(address,uint256)",
      "arguments": [
        "0x1e8Fc2c136c9B7064b320F74D05c22DaF81f504e",
        "115792089237316195423570985008687907853269984665640564039457584007913129639935"
      ],
      "transaction": {
        "from": "0x384f416b0fdeb9b8555128e6901ff3949005bc5d",
        "to": "0xcd13fdb6befdcc73500a23eeb03bd06ded3b4eee",
        "gas": "0xfee1",
        "value": "0x0",
        "input": "0x095ea7b30000000000000000000000001e8fc2c136c9b7064b320f74d05c22daf81f504effffffffffffffffffffffffffffffffffffffffffffffffffffffffffffffff",
        "nonce": "0x20",
        "chainId": "0x530"
      },
      "additionalContracts": [],
      "isFixedGasLimit": false
    },
    {
      "hash": "0x22ab196addeba6f71dffab77f7b2783c79d909d1c320319abd7be59f1f3a8937",
      "transactionType": "CALL",
      "contractName": null,
      "contractAddress": "0x1e8fc2c136c9b7064b320f74d05c22daf81f504e",
      "function": "approve(address,address,uint160,uint48)",
      "arguments": [
        "0xcd13FDb6BEfdCC73500a23eEB03bD06ded3B4eeE",
        "0x9B4C7AddF27c2d5Ee5dAD18Ba2abfeA82C4A3B85",
        "1461501637330902918203684832716283019655932542975",
        "281474976710655"
      ],
      "transaction": {
        "from": "0x384f416b0fdeb9b8555128e6901ff3949005bc5d",
        "to": "0x1e8fc2c136c9b7064b320f74d05c22daf81f504e",
        "gas": "0x1112d",
        "value": "0x0",
        "input": "0x87517c45000000000000000000000000cd13fdb6befdcc73500a23eeb03bd06ded3b4eee0000000000000000000000009b4c7addf27c2d5ee5dad18ba2abfea82c4a3b85000000000000000000000000ffffffffffffffffffffffffffffffffffffffff0000000000000000000000000000000000000000000000000000ffffffffffff",
        "nonce": "0x21",
        "chainId": "0x530"
      },
      "additionalContracts": [],
      "isFixedGasLimit": false
    },
    {
      "hash": "0x2f073f206cb3d3b0ff064863dbfee93483313e2b1ed15757ce6d9ff69cdc9799",
      "transactionType": "CALL",
      "contractName": null,
      "contractAddress": "0x081d574f2b23a820adca454a3278739263cb2c2c",
      "function": "approve(address,uint256)",
      "arguments": [
        "0x1e8Fc2c136c9B7064b320F74D05c22DaF81f504e",
        "115792089237316195423570985008687907853269984665640564039457584007913129639935"
      ],
      "transaction": {
        "from": "0x384f416b0fdeb9b8555128e6901ff3949005bc5d",
        "to": "0x081d574f2b23a820adca454a3278739263cb2c2c",
        "gas": "0xfee1",
        "value": "0x0",
        "input": "0x095ea7b30000000000000000000000001e8fc2c136c9b7064b320f74d05c22daf81f504effffffffffffffffffffffffffffffffffffffffffffffffffffffffffffffff",
        "nonce": "0x22",
        "chainId": "0x530"
      },
      "additionalContracts": [],
      "isFixedGasLimit": false
    },
    {
      "hash": "0x5f13fad291cd35b234a34c272cf0c8583688c438114f62c7b44882e73fb3bf01",
      "transactionType": "CALL",
      "contractName": null,
      "contractAddress": "0x1e8fc2c136c9b7064b320f74d05c22daf81f504e",
      "function": "approve(address,address,uint160,uint48)",
      "arguments": [
        "0x081D574f2B23a820aDCA454A3278739263CB2c2C",
        "0x9B4C7AddF27c2d5Ee5dAD18Ba2abfeA82C4A3B85",
        "1461501637330902918203684832716283019655932542975",
        "281474976710655"
      ],
      "transaction": {
        "from": "0x384f416b0fdeb9b8555128e6901ff3949005bc5d",
        "to": "0x1e8fc2c136c9b7064b320f74d05c22daf81f504e",
        "gas": "0x1112d",
        "value": "0x0",
        "input": "0x87517c45000000000000000000000000081d574f2b23a820adca454a3278739263cb2c2c0000000000000000000000009b4c7addf27c2d5ee5dad18ba2abfea82c4a3b85000000000000000000000000ffffffffffffffffffffffffffffffffffffffff0000000000000000000000000000000000000000000000000000ffffffffffff",
        "nonce": "0x23",
        "chainId": "0x530"
      },
      "additionalContracts": [],
      "isFixedGasLimit": false
    },
    {
      "hash": "0x7428574fa331ea5e405a40f6d8df6b60cdc288461bceff986b5be23a48cad952",
      "transactionType": "CALL",
      "contractName": null,
      "contractAddress": "0x9b4c7addf27c2d5ee5dad18ba2abfea82c4a3b85",
      "function": "multicall(bytes[])",
      "arguments": [
        "[0xf7020405000000000000000000000000081d574f2b23a820adca454a3278739263cb2c2c000000000000000000000000cd13fdb6befdcc73500a23eeb03bd06ded3b4eee00000000000000000000000000000000000000000000000000000000000013880000000000000000000000000000000000000000000000000000000000000064000000000000000000000000004888ee239d247562822a500166b1f3d31fcac0000000000000000000000000000000000000000100000000000000000000000000000000000000000000000000000000000000000000000000000000000000e00000000000000000000000000000000000000000000000000000000000000000, 0xdd46508f000000000000000000000000000000000000000000000000000000000000004000000000000000000000000000000000000000000000000000000000687c5da50000000000000000000000000000000000000000000000000000000000000400000000000000000000000000000000000000000000000000000000000000004000000000000000000000000000000000000000000000000000000000000000800000000000000000000000000000000000000000000000000000000000000004020d14140000000000000000000000000000000000000000000000000000000000000000000000000000000000000000000000000000000000000000000000040000000000000000000000000000000000000000000000000000000000000080000000000000000000000000000000000000000000000000000000000000024000000000000000000000000000000000000000000000000000000000000002a0000000000000000000000000000000000000000000000000000000000000030000000000000000000000000000000000000000000000000000000000000001a0000000000000000000000000081d574f2b23a820adca454a3278739263cb2c2c000000000000000000000000cd13fdb6befdcc73500a23eeb03bd06ded3b4eee00000000000000000000000000000000000000000000000000000000000013880000000000000000000000000000000000000000000000000000000000000064000000000000000000000000004888ee239d247562822a500166b1f3d31fcac0fffffffffffffffffffffffffffffffffffffffffffffffffffffffffffedb0800000000000000000000000000000000000000000000000000000000000124f80000000000000000000000000000000000000000000000000e364b50c0bf8e630000000000000000000000000000000000000000000000000de0b6b3a76400010000000000000000000000000000000000000000000000000de0b6b3a7640001000000000000000000000000384f416b0fdeb9b8555128e6901ff3949005bc5d000000000000000000000000000000000000000000000000000000000000018000000000000000000000000000000000000000000000000000000000000000000000000000000000000000000000000000000000000000000000000000000040000000000000000000000000081d574f2b23a820adca454a3278739263cb2c2c000000000000000000000000cd13fdb6befdcc73500a23eeb03bd06ded3b4eee0000000000000000000000000000000000000000000000000000000000000040000000000000000000000000081d574f2b23a820adca454a3278739263cb2c2c000000000000000000000000384f416b0fdeb9b8555128e6901ff3949005bc5d0000000000000000000000000000000000000000000000000000000000000040000000000000000000000000cd13fdb6befdcc73500a23eeb03bd06ded3b4eee000000000000000000000000384f416b0fdeb9b8555128e6901ff3949005bc5d]"
      ],
      "transaction": {
        "from": "0x384f416b0fdeb9b8555128e6901ff3949005bc5d",
        "to": "0x9b4c7addf27c2d5ee5dad18ba2abfea82c4a3b85",
        "gas": "0xaf142",
        "value": "0x0",
        "input": "0xac9650d800000000000000000000000000000000000000000000000000000000000000200000000000000000000000000000000000000000000000000000000000000002000000000000000000000000000000000000000000000000000000000000004000000000000000000000000000000000000000000000000000000000000001800000000000000000000000000000000000000000000000000000000000000104f7020405000000000000000000000000081d574f2b23a820adca454a3278739263cb2c2c000000000000000000000000cd13fdb6befdcc73500a23eeb03bd06ded3b4eee00000000000000000000000000000000000000000000000000000000000013880000000000000000000000000000000000000000000000000000000000000064000000000000000000000000004888ee239d247562822a500166b1f3d31fcac0000000000000000000000000000000000000000100000000000000000000000000000000000000000000000000000000000000000000000000000000000000e00000000000000000000000000000000000000000000000000000000000000000000000000000000000000000000000000000000000000000000000000000000000000000000000000000000000000000000000000000000000000464dd46508f000000000000000000000000000000000000000000000000000000000000004000000000000000000000000000000000000000000000000000000000687c5da50000000000000000000000000000000000000000000000000000000000000400000000000000000000000000000000000000000000000000000000000000004000000000000000000000000000000000000000000000000000000000000000800000000000000000000000000000000000000000000000000000000000000004020d14140000000000000000000000000000000000000000000000000000000000000000000000000000000000000000000000000000000000000000000000040000000000000000000000000000000000000000000000000000000000000080000000000000000000000000000000000000000000000000000000000000024000000000000000000000000000000000000000000000000000000000000002a0000000000000000000000000000000000000000000000000000000000000030000000000000000000000000000000000000000000000000000000000000001a0000000000000000000000000081d574f2b23a820adca454a3278739263cb2c2c000000000000000000000000cd13fdb6befdcc73500a23eeb03bd06ded3b4eee00000000000000000000000000000000000000000000000000000000000013880000000000000000000000000000000000000000000000000000000000000064000000000000000000000000004888ee239d247562822a500166b1f3d31fcac0fffffffffffffffffffffffffffffffffffffffffffffffffffffffffffedb0800000000000000000000000000000000000000000000000000000000000124f80000000000000000000000000000000000000000000000000e364b50c0bf8e630000000000000000000000000000000000000000000000000de0b6b3a76400010000000000000000000000000000000000000000000000000de0b6b3a7640001000000000000000000000000384f416b0fdeb9b8555128e6901ff3949005bc5d000000000000000000000000000000000000000000000000000000000000018000000000000000000000000000000000000000000000000000000000000000000000000000000000000000000000000000000000000000000000000000000040000000000000000000000000081d574f2b23a820adca454a3278739263cb2c2c000000000000000000000000cd13fdb6befdcc73500a23eeb03bd06ded3b4eee0000000000000000000000000000000000000000000000000000000000000040000000000000000000000000081d574f2b23a820adca454a3278739263cb2c2c000000000000000000000000384f416b0fdeb9b8555128e6901ff3949005bc5d0000000000000000000000000000000000000000000000000000000000000040000000000000000000000000cd13fdb6befdcc73500a23eeb03bd06ded3b4eee000000000000000000000000384f416b0fdeb9b8555128e6901ff3949005bc5d00000000000000000000000000000000000000000000000000000000",
        "nonce": "0x24",
        "chainId": "0x530"
      },
      "additionalContracts": [],
      "isFixedGasLimit": false
    }
  ],
  "receipts": [
    {
      "status": "0x1",
      "cumulativeGasUsed": "0x0",
      "logs": [
        {
          "address": "0xcd13fdb6befdcc73500a23eeb03bd06ded3b4eee",
          "topics": [
            "0x8c5be1e5ebec7d5bd14f71427d1e84f3dd0314c0f7b2291e5b200ac8c7c3b925",
            "0x000000000000000000000000384f416b0fdeb9b8555128e6901ff3949005bc5d",
            "0x0000000000000000000000001e8fc2c136c9b7064b320f74d05c22daf81f504e"
          ],
          "data": "0xffffffffffffffffffffffffffffffffffffffffffffffffffffffffffffffff",
          "blockHash": "0x641f6d55a3a7dc5cac431a28c8aabba231afe667030770efc68a9ca626ed4edc",
          "blockNumber": "0xb18c441",
          "transactionHash": "0x991c72687e473d4cbbd33a8d7ce19b4a887f13d6f9ec71618d722ab1379b8a43",
          "transactionIndex": "0x2",
          "logIndex": "0x6",
          "removed": false
        }
      ],
      "logsBloom": "0x00000000040000000000000000000000200000000000000000000000000000000000000000000000000000000000000000000000000000000000000000200000000000000000000000000000000000000000000000000000000000000040000000000000400000000008000000000000000000000000000000000000000000000000000000000000000000000000000000000000000000000000000000000000020000000000000000000000000000000000000000000000001000000000010000000000000000000000000000000000000000000000000000000000000000000010000000000000000000000000000000000000000010000000000000000000",
      "type": "0x2",
      "transactionHash": "0x991c72687e473d4cbbd33a8d7ce19b4a887f13d6f9ec71618d722ab1379b8a43",
      "transactionIndex": "0x2",
      "blockHash": "0x641f6d55a3a7dc5cac431a28c8aabba231afe667030770efc68a9ca626ed4edc",
      "blockNumber": "0xb18c441",
      "gasUsed": "0xb888",
      "effectiveGasPrice": "0x7d2b7500",
      "from": "0x384f416b0fdeb9b8555128e6901ff3949005bc5d",
      "to": "0xcd13fdb6befdcc73500a23eeb03bd06ded3b4eee",
      "contractAddress": null
    },
    {
      "status": "0x1",
      "cumulativeGasUsed": "0x0",
      "logs": [
        {
          "address": "0x1e8fc2c136c9b7064b320f74d05c22daf81f504e",
          "topics": [
            "0xda9fa7c1b00402c17d0161b249b1ab8bbec047c5a52207b9c112deffd817036b",
            "0x000000000000000000000000384f416b0fdeb9b8555128e6901ff3949005bc5d",
            "0x000000000000000000000000cd13fdb6befdcc73500a23eeb03bd06ded3b4eee",
            "0x0000000000000000000000009b4c7addf27c2d5ee5dad18ba2abfea82c4a3b85"
          ],
          "data": "0x000000000000000000000000ffffffffffffffffffffffffffffffffffffffff0000000000000000000000000000000000000000000000000000ffffffffffff",
          "blockHash": "0x6676cfa4d4f3fe0089f85f06d556d419aa9310f387aec5a2cce5c189dd83cd23",
          "blockNumber": "0xb18c442",
          "transactionHash": "0x22ab196addeba6f71dffab77f7b2783c79d909d1c320319abd7be59f1f3a8937",
          "transactionIndex": "0x7",
          "logIndex": "0x11",
          "removed": false
        }
      ],
      "logsBloom": "0x00000000000000000000000000000000000000000000200000000000000000010000000000000000000000000000000000000000000000000000000000200000000000000000000000000000000000000000000002000000000000000000000000000000000000000000000000000000000000000000000000000000000000000020000000000000000000000000000000000000000000000000000000000000001000000000000000000000000000000000000000000000001000080000000020000000010000000000000000000000000000000000000040000000000000000000000000000000001000000000000000000000800010000008000000000000",
      "type": "0x2",
      "transactionHash": "0x22ab196addeba6f71dffab77f7b2783c79d909d1c320319abd7be59f1f3a8937",
      "transactionIndex": "0x7",
      "blockHash": "0x6676cfa4d4f3fe0089f85f06d556d419aa9310f387aec5a2cce5c189dd83cd23",
      "blockNumber": "0xb18c442",
      "gasUsed": "0xbaca",
      "effectiveGasPrice": "0x7d2b7500",
      "from": "0x384f416b0fdeb9b8555128e6901ff3949005bc5d",
      "to": "0x1e8fc2c136c9b7064b320f74d05c22daf81f504e",
      "contractAddress": null
    },
    {
      "status": "0x1",
      "cumulativeGasUsed": "0x0",
      "logs": [
        {
          "address": "0x081d574f2b23a820adca454a3278739263cb2c2c",
          "topics": [
            "0x8c5be1e5ebec7d5bd14f71427d1e84f3dd0314c0f7b2291e5b200ac8c7c3b925",
            "0x000000000000000000000000384f416b0fdeb9b8555128e6901ff3949005bc5d",
            "0x0000000000000000000000001e8fc2c136c9b7064b320f74d05c22daf81f504e"
          ],
          "data": "0xffffffffffffffffffffffffffffffffffffffffffffffffffffffffffffffff",
          "blockHash": "0xe445d36414c707793aa38c803239abf286e0c1c78259294ce257298112b42511",
          "blockNumber": "0xb18c443",
          "transactionHash": "0x2f073f206cb3d3b0ff064863dbfee93483313e2b1ed15757ce6d9ff69cdc9799",
          "transactionIndex": "0x1",
          "logIndex": "0x3",
          "removed": false
        }
      ],
      "logsBloom": "0x00000000040000000000000000000000000000000000000000000000000000000000100000000000000000000000000000000000000000000000000000200000200000000000000000000000000000000000000000000000000000000040000000000000400000000000000000000000000000000000000000000000000000000000000000000000000000000000000000000000000000000000000000000000020000000000000010000000000000000000000000000000001000000000000000000000000000000000000000000000000000000000000000000000000000000010000000000000000000000000000000000000000010000000000000000000",
      "type": "0x2",
      "transactionHash": "0x2f073f206cb3d3b0ff064863dbfee93483313e2b1ed15757ce6d9ff69cdc9799",
      "transactionIndex": "0x1",
      "blockHash": "0xe445d36414c707793aa38c803239abf286e0c1c78259294ce257298112b42511",
      "blockNumber": "0xb18c443",
      "gasUsed": "0xb888",
      "effectiveGasPrice": "0x7d2b7500",
      "from": "0x384f416b0fdeb9b8555128e6901ff3949005bc5d",
      "to": "0x081d574f2b23a820adca454a3278739263cb2c2c",
      "contractAddress": null
    },
    {
      "status": "0x1",
      "cumulativeGasUsed": "0x0",
      "logs": [
        {
          "address": "0x1e8fc2c136c9b7064b320f74d05c22daf81f504e",
          "topics": [
            "0xda9fa7c1b00402c17d0161b249b1ab8bbec047c5a52207b9c112deffd817036b",
            "0x000000000000000000000000384f416b0fdeb9b8555128e6901ff3949005bc5d",
            "0x000000000000000000000000081d574f2b23a820adca454a3278739263cb2c2c",
            "0x0000000000000000000000009b4c7addf27c2d5ee5dad18ba2abfea82c4a3b85"
          ],
          "data": "0x000000000000000000000000ffffffffffffffffffffffffffffffffffffffff0000000000000000000000000000000000000000000000000000ffffffffffff",
          "blockHash": "0xc201db3f47bcf281ed0196392b19329a49d6da401b50d1b66e4eeaedee57d5e3",
          "blockNumber": "0xb18c444",
          "transactionHash": "0x5f13fad291cd35b234a34c272cf0c8583688c438114f62c7b44882e73fb3bf01",
          "transactionIndex": "0x3",
          "logIndex": "0x6",
          "removed": false
        }
      ],
      "logsBloom": "0x00000000000000000000000000000000000000000000000000000000000000010000000000000000000000010000000000000000000000000000000000200000000000000000000000000000000000000000000002000000000000000000000000000000000000000000000000000000000000000000000000000000000000000020000000000000000000000000000000000000000000000000000000000000001000000000000000000000000000000000000000000000001000090000000020000000010000000000000000000000000000000000000040000000000000000000000000000000001000000000000000000000000010000000000000000020",
      "type": "0x2",
      "transactionHash": "0x5f13fad291cd35b234a34c272cf0c8583688c438114f62c7b44882e73fb3bf01",
      "transactionIndex": "0x3",
      "blockHash": "0xc201db3f47bcf281ed0196392b19329a49d6da401b50d1b66e4eeaedee57d5e3",
      "blockNumber": "0xb18c444",
      "gasUsed": "0xbaca",
      "effectiveGasPrice": "0x7d2b7500",
      "from": "0x384f416b0fdeb9b8555128e6901ff3949005bc5d",
      "to": "0x1e8fc2c136c9b7064b320f74d05c22daf81f504e",
      "contractAddress": null
    },
    {
      "status": "0x1",
      "cumulativeGasUsed": "0x0",
      "logs": [
        {
          "address": "0xd01e41f03c58ee64b2303e9335de8caeee0974b8",
          "topics": [
            "0xdd466e674ea557f56295e2d0218a125ea4b4f0f6f3307b95f85e6110838d6438",
            "0x4c5511f257749ac7e30fd76b48e35ddc6563ea860a0faa847e6842de55d054d3",
            "0x000000000000000000000000081d574f2b23a820adca454a3278739263cb2c2c",
            "0x000000000000000000000000cd13fdb6befdcc73500a23eeb03bd06ded3b4eee"
          ],
          "data": "0x00000000000000000000000000000000000000000000000000000000000013880000000000000000000000000000000000000000000000000000000000000064000000000000000000000000004888ee239d247562822a500166b1f3d31fcac000000000000000000000000000000000000000010000000000000000000000000000000000000000000000000000000000000000000000000000000000000000",
          "blockHash": "0xb20d8b85a62a2a765531da831b89dca75c7ef2dddd186ad645e1f76286061a56",
          "blockNumber": "0xb18c446",
          "transactionHash": "0x7428574fa331ea5e405a40f6d8df6b60cdc288461bceff986b5be23a48cad952",
          "transactionIndex": "0x3",
          "logIndex": "0x7",
          "removed": false
        },
        {
          "address": "0x9b4c7addf27c2d5ee5dad18ba2abfea82c4a3b85",
          "topics": [
            "0xddf252ad1be2c89b69c2b068fc378daa952ba7f163c4a11628f55a4df523b3ef",
            "0x0000000000000000000000000000000000000000000000000000000000000000",
            "0x000000000000000000000000384f416b0fdeb9b8555128e6901ff3949005bc5d",
            "0x0000000000000000000000000000000000000000000000000000000000000001"
          ],
          "data": "0x",
          "blockHash": "0xb20d8b85a62a2a765531da831b89dca75c7ef2dddd186ad645e1f76286061a56",
          "blockNumber": "0xb18c446",
          "transactionHash": "0x7428574fa331ea5e405a40f6d8df6b60cdc288461bceff986b5be23a48cad952",
          "transactionIndex": "0x3",
          "logIndex": "0x8",
          "removed": false
        },
        {
          "address": "0xd01e41f03c58ee64b2303e9335de8caeee0974b8",
          "topics": [
            "0xf208f4912782fd25c7f114ca3723a2d5dd6f3bcc3ac8db5af63baa85f711d5ec",
            "0x4c5511f257749ac7e30fd76b48e35ddc6563ea860a0faa847e6842de55d054d3",
            "0x0000000000000000000000009b4c7addf27c2d5ee5dad18ba2abfea82c4a3b85"
          ],
          "data": "0xfffffffffffffffffffffffffffffffffffffffffffffffffffffffffffedb0800000000000000000000000000000000000000000000000000000000000124f80000000000000000000000000000000000000000000000000e364b50c0bf8e630000000000000000000000000000000000000000000000000000000000000001",
          "blockHash": "0xb20d8b85a62a2a765531da831b89dca75c7ef2dddd186ad645e1f76286061a56",
          "blockNumber": "0xb18c446",
          "transactionHash": "0x7428574fa331ea5e405a40f6d8df6b60cdc288461bceff986b5be23a48cad952",
          "transactionIndex": "0x3",
          "logIndex": "0x9",
          "removed": false
        },
        {
          "address": "0x081d574f2b23a820adca454a3278739263cb2c2c",
          "topics": [
            "0xddf252ad1be2c89b69c2b068fc378daa952ba7f163c4a11628f55a4df523b3ef",
            "0x000000000000000000000000384f416b0fdeb9b8555128e6901ff3949005bc5d",
            "0x000000000000000000000000d01e41f03c58ee64b2303e9335de8caeee0974b8"
          ],
          "data": "0x0000000000000000000000000000000000000000000000000de0b6b3a7640000",
          "blockHash": "0xb20d8b85a62a2a765531da831b89dca75c7ef2dddd186ad645e1f76286061a56",
          "blockNumber": "0xb18c446",
          "transactionHash": "0x7428574fa331ea5e405a40f6d8df6b60cdc288461bceff986b5be23a48cad952",
          "transactionIndex": "0x3",
          "logIndex": "0xa",
          "removed": false
        },
        {
          "address": "0xcd13fdb6befdcc73500a23eeb03bd06ded3b4eee",
          "topics": [
            "0xddf252ad1be2c89b69c2b068fc378daa952ba7f163c4a11628f55a4df523b3ef",
            "0x000000000000000000000000384f416b0fdeb9b8555128e6901ff3949005bc5d",
            "0x000000000000000000000000d01e41f03c58ee64b2303e9335de8caeee0974b8"
          ],
          "data": "0x0000000000000000000000000000000000000000000000000de0b6b3a7640000",
          "blockHash": "0xb20d8b85a62a2a765531da831b89dca75c7ef2dddd186ad645e1f76286061a56",
          "blockNumber": "0xb18c446",
          "transactionHash": "0x7428574fa331ea5e405a40f6d8df6b60cdc288461bceff986b5be23a48cad952",
          "transactionIndex": "0x3",
          "logIndex": "0xb",
          "removed": false
        }
      ],
      "logsBloom": "0x00000000000000000000000008000080200000000000200000000000000000010000100000000000000000010000000000000000000200000000000000240004200000000000000000000008000000000000000000040000000000000000000000002000020000000008000000000800001000000000000000000010000000000000000001000008000000000000000000000001000000000000000000200000000004000000080010000000000000000000000000000000001000010008010020000002010000000000000000000000000000000000000000400000000060000000200000000000001000000000000004000000800011000008000000000020",
      "type": "0x2",
      "transactionHash": "0x7428574fa331ea5e405a40f6d8df6b60cdc288461bceff986b5be23a48cad952",
      "transactionIndex": "0x3",
      "blockHash": "0xb20d8b85a62a2a765531da831b89dca75c7ef2dddd186ad645e1f76286061a56",
      "blockNumber": "0xb18c446",
      "gasUsed": "0x7ec10",
      "effectiveGasPrice": "0x7d2b7500",
      "from": "0x384f416b0fdeb9b8555128e6901ff3949005bc5d",
      "to": "0x9b4c7addf27c2d5ee5dad18ba2abfea82c4a3b85",
      "contractAddress": null
    }
  ],
  "libraries": [],
  "pending": [],
  "returns": {},
  "timestamp": 1752977310,
  "chain": 1328,
  "commit": "ddc4d03"
}