{
  "transactions": [
    {
      "hash": "0x7f1b245f35fddd1ea37fcf9e814261ab07d38718fb51610598b32b17f210877f",
      "transactionType": "CALL",
      "contractName": null,
      "contractAddress": "0x27116c0ddd6915ae8307f1ad9b405eff0051b1c0",
      "function": "approve(address,uint256)",
      "arguments": [
        "0x9EF2889Ae1cEE5090d5cb31b82BF9fcAf429027c",
        "115792089237316195423570985008687907853269984665640564039457584007913129639935"
      ],
      "transaction": {
        "from": "0x384f416b0fdeb9b8555128e6901ff3949005bc5d",
        "to": "0x27116c0ddd6915ae8307f1ad9b405eff0051b1c0",
        "gas": "0xfee1",
        "value": "0x0",
        "input": "0x095ea7b30000000000000000000000009ef2889ae1cee5090d5cb31b82bf9fcaf429027cffffffffffffffffffffffffffffffffffffffffffffffffffffffffffffffff",
        "nonce": "0x3f",
        "chainId": "0x530"
      },
      "additionalContracts": [],
      "isFixedGasLimit": false
    },
    {
      "hash": "0x2d4962625ce03ac50daaeba3b72bd98dfca766e49f6c22dac9e0abc4621c172d",
      "transactionType": "CALL",
      "contractName": null,
      "contractAddress": "0xbe7d12afee28b307657476399669efe9f9552933",
      "function": "approve(address,uint256)",
      "arguments": [
        "0x9EF2889Ae1cEE5090d5cb31b82BF9fcAf429027c",
        "115792089237316195423570985008687907853269984665640564039457584007913129639935"
      ],
      "transaction": {
        "from": "0x384f416b0fdeb9b8555128e6901ff3949005bc5d",
        "to": "0xbe7d12afee28b307657476399669efe9f9552933",
        "gas": "0xfee1",
        "value": "0x0",
        "input": "0x095ea7b30000000000000000000000009ef2889ae1cee5090d5cb31b82bf9fcaf429027cffffffffffffffffffffffffffffffffffffffffffffffffffffffffffffffff",
        "nonce": "0x40",
        "chainId": "0x530"
      },
      "additionalContracts": [],
      "isFixedGasLimit": false
    },
    {
      "hash": "0x0024b65806b7e2391ab9538dc400dc2d099cd194d30c231fa49b7d6b94183758",
      "transactionType": "CALL",
      "contractName": null,
      "contractAddress": "0x9ef2889ae1cee5090d5cb31b82bf9fcaf429027c",
      "function": "swapExactTokensForTokens(uint256,uint256,bool,(address,address,uint24,int24,address),bytes,address,uint256)",
      "arguments": [
        "1000000000000000000",
        "0",
        "true",
        "(0x27116C0ddd6915AE8307f1Ad9B405eFf0051b1C0, 0xBE7D12aFee28B307657476399669EFE9f9552933, 5000, 100, 0x4be3CcA466fd5AAa714CedBD27bDD30A3203cac0)",
        "0x",
        "0x384f416b0fDeB9B8555128e6901FF3949005BC5d",
        "1752978610"
      ],
      "transaction": {
        "from": "0x384f416b0fdeb9b8555128e6901ff3949005bc5d",
        "to": "0x9ef2889ae1cee5090d5cb31b82bf9fcaf429027c",
        "gas": "0x3e7f5",
        "value": "0x0",
        "input": "0xb1a0d5710000000000000000000000000000000000000000000000000de0b6b3a76400000000000000000000000000000000000000000000000000000000000000000000000000000000000000000000000000000000000000000000000000000000000100000000000000000000000027116c0ddd6915ae8307f1ad9b405eff0051b1c0000000000000000000000000be7d12afee28b307657476399669efe9f9552933000000000000000000000000000000000000000000000000000000000000138800000000000000000000000000000000000000000000000000000000000000640000000000000000000000004be3cca466fd5aaa714cedbd27bdd30a3203cac00000000000000000000000000000000000000000000000000000000000000160000000000000000000000000384f416b0fdeb9b8555128e6901ff3949005bc5d00000000000000000000000000000000000000000000000000000000687c54b20000000000000000000000000000000000000000000000000000000000000000",
        "nonce": "0x41",
        "chainId": "0x530"
      },
      "additionalContracts": [],
      "isFixedGasLimit": false
    }
  ],
  "receipts": [
    {
      "status": "0x1",
      "cumulativeGasUsed": "0x0",
      "logs": [
        {
          "address": "0x27116c0ddd6915ae8307f1ad9b405eff0051b1c0",
          "topics": [
            "0x8c5be1e5ebec7d5bd14f71427d1e84f3dd0314c0f7b2291e5b200ac8c7c3b925",
            "0x000000000000000000000000384f416b0fdeb9b8555128e6901ff3949005bc5d",
            "0x0000000000000000000000009ef2889ae1cee5090d5cb31b82bf9fcaf429027c"
          ],
          "data": "0xffffffffffffffffffffffffffffffffffffffffffffffffffffffffffffffff",
          "blockHash": "0xe90f8c5f5e2d8c4930327de0b4b1f336694270b4a736462c71cc4ca87dd6df89",
          "blockNumber": "0xb18ce54",
          "transactionHash": "0x7f1b245f35fddd1ea37fcf9e814261ab07d38718fb51610598b32b17f210877f",
          "transactionIndex": "0x2",
          "logIndex": "0x4",
          "removed": false
        }
      ],
      "logsBloom": "0x00000000000000000000000000000000000000000000000000000000000200000000000000000000000000000000000000000000000000000000000000200000000000000000000000000040000000000000000000000000000000000000000000000000000000000000000000000000000000000000000000000000000000000000000002000000000000000000000000000000000000000000200000000000020000000000800000000000000000000000000000000000001000000000000000000000000000000000000000000000000000000000000000000000000000008010000000000000000000000000000000000000000010000000000000000000",
      "type": "0x2",
      "transactionHash": "0x7f1b245f35fddd1ea37fcf9e814261ab07d38718fb51610598b32b17f210877f",
      "transactionIndex": "0x2",
      "blockHash": "0xe90f8c5f5e2d8c4930327de0b4b1f336694270b4a736462c71cc4ca87dd6df89",
      "blockNumber": "0xb18ce54",
      "gasUsed": "0xb888",
      "effectiveGasPrice": "0x7d2b7500",
      "from": "0x384f416b0fdeb9b8555128e6901ff3949005bc5d",
      "to": "0x27116c0ddd6915ae8307f1ad9b405eff0051b1c0",
      "contractAddress": null
    },
    {
      "status": "0x1",
      "cumulativeGasUsed": "0x0",
      "logs": [
        {
          "address": "0xbe7d12afee28b307657476399669efe9f9552933",
          "topics": [
            "0x8c5be1e5ebec7d5bd14f71427d1e84f3dd0314c0f7b2291e5b200ac8c7c3b925",
            "0x000000000000000000000000384f416b0fdeb9b8555128e6901ff3949005bc5d",
            "0x0000000000000000000000009ef2889ae1cee5090d5cb31b82bf9fcaf429027c"
          ],
          "data": "0xffffffffffffffffffffffffffffffffffffffffffffffffffffffffffffffff",
          "blockHash": "0x58671972413bc976259f7d48de19e80154139aec1822f2902dad6a74954bb422",
          "blockNumber": "0xb18ce55",
          "transactionHash": "0x2d4962625ce03ac50daaeba3b72bd98dfca766e49f6c22dac9e0abc4621c172d",
          "transactionIndex": "0x1",
          "logIndex": "0x3",
          "removed": false
        }
      ],
      "logsBloom": "0x00000000000000000000000000000000000000000000000000000000000200000000000000000000000000000000000000000000000000000000000000200000000000000000000000000000000000000000000000000000010000000000000000000000000000000000000000000000000000000000000000000000000000000000000002000000000000000000000000000000000000000000000000000000020000000000000000000000000000000000000000000000001000000000002000000000000000000000000000000000000000000000000080000000000000008010000000000000000000000000000000000000000010000000000000000000",
      "type": "0x2",
      "transactionHash": "0x2d4962625ce03ac50daaeba3b72bd98dfca766e49f6c22dac9e0abc4621c172d",
      "transactionIndex": "0x1",
      "blockHash": "0x58671972413bc976259f7d48de19e80154139aec1822f2902dad6a74954bb422",
      "blockNumber": "0xb18ce55",
      "gasUsed": "0xb888",
      "effectiveGasPrice": "0x7d2b7500",
      "from": "0x384f416b0fdeb9b8555128e6901ff3949005bc5d",
      "to": "0xbe7d12afee28b307657476399669efe9f9552933",
      "contractAddress": null
    },
    {
      "status": "0x1",
      "cumulativeGasUsed": "0x0",
      "logs": [
        {
          "address": "0x0bf5908bdf1d352a293e40276b3fe35543639588",
          "topics": [
            "0x40e9cecb9f5f1f1c5b9c97dec2917b7ee92e57ba5563708daca94dd84ad7112f",
            "0x46c15e52b130d82cb3898ac86d5443998dd8f0ccea37fc2f01753c874c46fb8f",
            "0x0000000000000000000000009ef2889ae1cee5090d5cb31b82bf9fcaf429027c"
          ],
          "data": "0xfffffffffffffffffffffffffffffffffffffffffffffffff21f494c589c000000000000000000000000000000000000000000000000000009448ce40543e6680000000000000000000000000000000000000000abd1c20ad8432c0a7875c9de0000000000000000000000000000000000000000000000001c2f1d44b5460790ffffffffffffffffffffffffffffffffffffffffffffffffffffffffffffe0d80000000000000000000000000000000000000000000000000000000000001388",
          "blockHash": "0x7f3b5e06823a5aeb9e4daeae198c35a9071cbeace765707b23f9363d37bea653",
          "blockNumber": "0xb18ce56",
          "transactionHash": "0x0024b65806b7e2391ab9538dc400dc2d099cd194d30c231fa49b7d6b94183758",
          "transactionIndex": "0x1",
          "logIndex": "0x0",
          "removed": false
        },
        {
          "address": "0x27116c0ddd6915ae8307f1ad9b405eff0051b1c0",
          "topics": [
            "0xddf252ad1be2c89b69c2b068fc378daa952ba7f163c4a11628f55a4df523b3ef",
            "0x000000000000000000000000384f416b0fdeb9b8555128e6901ff3949005bc5d",
            "0x0000000000000000000000000bf5908bdf1d352a293e40276b3fe35543639588"
          ],
          "data": "0x0000000000000000000000000000000000000000000000000de0b6b3a7640000",
          "blockHash": "0x7f3b5e06823a5aeb9e4daeae198c35a9071cbeace765707b23f9363d37bea653",
          "blockNumber": "0xb18ce56",
          "transactionHash": "0x0024b65806b7e2391ab9538dc400dc2d099cd194d30c231fa49b7d6b94183758",
          "transactionIndex": "0x1",
          "logIndex": "0x1",
          "removed": false
        },
        {
          "address": "0xbe7d12afee28b307657476399669efe9f9552933",
          "topics": [
            "0xddf252ad1be2c89b69c2b068fc378daa952ba7f163c4a11628f55a4df523b3ef",
            "0x0000000000000000000000000bf5908bdf1d352a293e40276b3fe35543639588",
            "0x000000000000000000000000384f416b0fdeb9b8555128e6901ff3949005bc5d"
          ],
          "data": "0x00000000000000000000000000000000000000000000000009448ce40543e668",
          "blockHash": "0x7f3b5e06823a5aeb9e4daeae198c35a9071cbeace765707b23f9363d37bea653",
          "blockNumber": "0xb18ce56",
          "transactionHash": "0x0024b65806b7e2391ab9538dc400dc2d099cd194d30c231fa49b7d6b94183758",
          "transactionIndex": "0x1",
          "logIndex": "0x2",
          "removed": false
        }
      ],
      "logsBloom": "0x00000000000000000000000000000000000000000000000000000000000204000000000000000000000000000000000000000000040000000000000020200000000000000000000000000048000000000000000000000020010000000000000000004000000000000000000000000000000000000000000000000010000000000000000082000800000000000000000000000000000000000000200000000000000000000000800000000000000000000000000000000000001000000000002800000002800400000000000040000000000000000000000080000000000000008000000000000000004000000000000000000000000010000000000000000000",
      "type": "0x2",
      "transactionHash": "0x0024b65806b7e2391ab9538dc400dc2d099cd194d30c231fa49b7d6b94183758",
      "transactionIndex": "0x1",
      "blockHash": "0x7f3b5e06823a5aeb9e4daeae198c35a9071cbeace765707b23f9363d37bea653",
      "blockNumber": "0xb18ce56",
      "gasUsed": "0x2d3f4",
      "effectiveGasPrice": "0x7d2b7500",
      "from": "0x384f416b0fdeb9b8555128e6901ff3949005bc5d",
      "to": "0x9ef2889ae1cee5090d5cb31b82bf9fcaf429027c",
      "contractAddress": null
    }
  ],
  "libraries": [],
  "pending": [],
  "returns": {},
  "timestamp": 1752978316,
  "chain": 1328,
  "commit": "8b204a6"
}