{
  "transactions": [
    {
      "hash": "0x6b2e1b780cce770bd65adb6dd150bbc0b20a4ef40c1a57bb6146db25134715cf",
      "transactionType": "CALL",
      "contractName": null,
      "contractAddress": "0xfef007c37968a6a0924e12132c833537a4a7ff7a",
      "function": "approve(address,uint256)",
      "arguments": [
        "0x06DDAF3C7194c823bF665Ab98830c4c93c7b1F12",
        "115792089237316195423570985008687907853269984665640564039457584007913129639935"
      ],
      "transaction": {
        "from": "0x384f416b0fdeb9b8555128e6901ff3949005bc5d",
        "to": "0xfef007c37968a6a0924e12132c833537a4a7ff7a",
        "gas": "0xfee1",
        "value": "0x0",
        "input": "0x095ea7b300000000000000000000000006ddaf3c7194c823bf665ab98830c4c93c7b1f12ffffffffffffffffffffffffffffffffffffffffffffffffffffffffffffffff",
        "nonce": "0x5b",
        "chainId": "0x530"
      },
      "additionalContracts": [],
      "isFixedGasLimit": false
    },
    {
      "hash": "0xf09b44ae48e903e7766ddac4783f542cf90db7a7f4413798630a240419cbe66a",
      "transactionType": "CALL",
      "contractName": null,
      "contractAddress": "0x5512b7dd9b29376ea69a07acdd3a54a0f59a678e",
      "function": "approve(address,uint256)",
      "arguments": [
        "0x06DDAF3C7194c823bF665Ab98830c4c93c7b1F12",
        "115792089237316195423570985008687907853269984665640564039457584007913129639935"
      ],
      "transaction": {
        "from": "0x384f416b0fdeb9b8555128e6901ff3949005bc5d",
        "to": "0x5512b7dd9b29376ea69a07acdd3a54a0f59a678e",
        "gas": "0xfee1",
        "value": "0x0",
        "input": "0x095ea7b300000000000000000000000006ddaf3c7194c823bf665ab98830c4c93c7b1f12ffffffffffffffffffffffffffffffffffffffffffffffffffffffffffffffff",
        "nonce": "0x5c",
        "chainId": "0x530"
      },
      "additionalContracts": [],
      "isFixedGasLimit": false
    },
    {
      "hash": "0x4beb74dfc3205a1c4bc2f2759a13000d3000bf3801dadccea1e9f87fabd00001",
      "transactionType": "CALL",
      "contractName": null,
      "contractAddress": "0x06ddaf3c7194c823bf665ab98830c4c93c7b1f12",
      "function": "swapExactTokensForTokens(uint256,uint256,bool,(address,address,uint24,int24,address),bytes,address,uint256)",
      "arguments": [
        "1000000000000000000",
        "0",
        "true",
        "(0x5512b7Dd9b29376eA69a07AcDd3a54A0F59A678E, 0xfef007c37968A6A0924e12132C833537a4a7Ff7a, 5000, 100, 0x54cE01481Cd1994A1B077E178d81351B1220CAC0)",
        "0x",
        "0x384f416b0fDeB9B8555128e6901FF3949005BC5d",
        "1752980291"
      ],
      "transaction": {
        "from": "0x384f416b0fdeb9b8555128e6901ff3949005bc5d",
        "to": "0x06ddaf3c7194c823bf665ab98830c4c93c7b1f12",
        "gas": "0x3e806",
        "value": "0x0",
        "input": "0xb1a0d5710000000000000000000000000000000000000000000000000de0b6b3a7640000000000000000000000000000000000000000000000000000000000000000000000000000000000000000000000000000000000000000000000000000000000010000000000000000000000005512b7dd9b29376ea69a07acdd3a54a0f59a678e000000000000000000000000fef007c37968a6a0924e12132c833537a4a7ff7a0000000000000000000000000000000000000000000000000000000000001388000000000000000000000000000000000000000000000000000000000000006400000000000000000000000054ce01481cd1994a1b077e178d81351b1220cac00000000000000000000000000000000000000000000000000000000000000160000000000000000000000000384f416b0fdeb9b8555128e6901ff3949005bc5d00000000000000000000000000000000000000000000000000000000687c5b430000000000000000000000000000000000000000000000000000000000000000",
        "nonce": "0x5d",
        "chainId": "0x530"
      },
      "additionalContracts": [],
      "isFixedGasLimit": false
    }
  ],
  "receipts": [
    {
      "status": "0x1",
      "cumulativeGasUsed": "0x0",
      "logs": [
        {
          "address": "0xfef007c37968a6a0924e12132c833537a4a7ff7a",
          "topics": [
            "0x8c5be1e5ebec7d5bd14f71427d1e84f3dd0314c0f7b2291e5b200ac8c7c3b925",
            "0x000000000000000000000000384f416b0fdeb9b8555128e6901ff3949005bc5d",
            "0x00000000000000000000000006ddaf3c7194c823bf665ab98830c4c93c7b1f12"
          ],
          "data": "0xffffffffffffffffffffffffffffffffffffffffffffffffffffffffffffffff",
          "blockHash": "0xabb2a72ff0aa71e61c075a7ccb1de1f8de09476c54c56e71897702d56c4aec25",
          "blockNumber": "0xb18ded5",
          "transactionHash": "0x6b2e1b780cce770bd65adb6dd150bbc0b20a4ef40c1a57bb6146db25134715cf",
          "transactionIndex": "0x1",
          "logIndex": "0x2",
          "removed": false
        }
      ],
      "logsBloom": "0x00000000000000000000000000010000000000000000000000000000000000000000000000000020000000000000000000000000000000000000000800200000000000000000000000000000000000000000000000000000000000000000000000000000000000000000000000000000000000800000000000400000000000000000000000000002000000000000000000000000000000000000000000000000020000000000000000000000000000000000000000000000001000000000000000000000000000000000000000000000000000000000000000000000000000000010000000000000000000000000000000000000000010000000000000000000",
      "type": "0x2",
      "transactionHash": "0x6b2e1b780cce770bd65adb6dd150bbc0b20a4ef40c1a57bb6146db25134715cf",
      "transactionIndex": "0x1",
      "blockHash": "0xabb2a72ff0aa71e61c075a7ccb1de1f8de09476c54c56e71897702d56c4aec25",
      "blockNumber": "0xb18ded5",
      "gasUsed": "0xb888",
      "effectiveGasPrice": "0x8a4f8a90",
      "from": "0x384f416b0fdeb9b8555128e6901ff3949005bc5d",
      "to": "0xfef007c37968a6a0924e12132c833537a4a7ff7a",
      "contractAddress": null
    },
    {
      "status": "0x1",
      "cumulativeGasUsed": "0x0",
      "logs": [
        {
          "address": "0x5512b7dd9b29376ea69a07acdd3a54a0f59a678e",
          "topics": [
            "0x8c5be1e5ebec7d5bd14f71427d1e84f3dd0314c0f7b2291e5b200ac8c7c3b925",
            "0x000000000000000000000000384f416b0fdeb9b8555128e6901ff3949005bc5d",
            "0x00000000000000000000000006ddaf3c7194c823bf665ab98830c4c93c7b1f12"
          ],
          "data": "0xffffffffffffffffffffffffffffffffffffffffffffffffffffffffffffffff",
          "blockHash": "0x911e5b08ca82e073885939d1745d183728abc7a56687557416eeaa03913f7f40",
          "blockNumber": "0xb18ded6",
          "transactionHash": "0xf09b44ae48e903e7766ddac4783f542cf90db7a7f4413798630a240419cbe66a",
          "transactionIndex": "0x2",
          "logIndex": "0x6",
          "removed": false
        }
      ],
      "logsBloom": "0x00000000000000000000000000000000000000000000000000000000000000000000000000000020000000000000000000000000000000000000000000200000000000000000000000000000000000000000000000000000000000000008000000000000000000000000000000100000000000000000000000400000000000000000000000000002000000000000000000000000000000000000000000000000020000000000000000000000000000000000000000000000001000000000000000000000000000000000000000000000000000100000000000000000000000000010000000000000000000000000000000000000000010000000000000000000",
      "type": "0x2",
      "transactionHash": "0xf09b44ae48e903e7766ddac4783f542cf90db7a7f4413798630a240419cbe66a",
      "transactionIndex": "0x2",
      "blockHash": "0x911e5b08ca82e073885939d1745d183728abc7a56687557416eeaa03913f7f40",
      "blockNumber": "0xb18ded6",
      "gasUsed": "0xb888",
      "effectiveGasPrice": "0x8a4f8a90",
      "from": "0x384f416b0fdeb9b8555128e6901ff3949005bc5d",
      "to": "0x5512b7dd9b29376ea69a07acdd3a54a0f59a678e",
      "contractAddress": null
    },
    {
      "status": "0x1",
      "cumulativeGasUsed": "0x0",
      "logs": [
        {
          "address": "0xe1af8eccf5e46df48953d52bd57005900f3d2753",
          "topics": [
            "0x40e9cecb9f5f1f1c5b9c97dec2917b7ee92e57ba5563708daca94dd84ad7112f",
            "0x75920e7f3c46a4161c728dcb1afc584c3d151cc7429c6621274d0113c383990f",
            "0x00000000000000000000000006ddaf3c7194c823bf665ab98830c4c93c7b1f12"
          ],
          "data": "0xfffffffffffffffffffffffffffffffffffffffffffffffff21f494c589c000000000000000000000000000000000000000000000000000009448ce40543e6680000000000000000000000000000000000000000abd1c20ad8432c0a7875c9de0000000000000000000000000000000000000000000000001c2f1d44b5460790ffffffffffffffffffffffffffffffffffffffffffffffffffffffffffffe0d80000000000000000000000000000000000000000000000000000000000001388",
          "blockHash": "0x71e51dc75c3c395a9d20eb77d0a4c5fc4c9bcacc640cbef9c0134af6934876bf",
          "blockNumber": "0xb18ded7",
          "transactionHash": "0x4beb74dfc3205a1c4bc2f2759a13000d3000bf3801dadccea1e9f87fabd00001",
          "transactionIndex": "0x1",
          "logIndex": "0x3",
          "removed": false
        },
        {
          "address": "0x5512b7dd9b29376ea69a07acdd3a54a0f59a678e",
          "topics": [
            "0xddf252ad1be2c89b69c2b068fc378daa952ba7f163c4a11628f55a4df523b3ef",
            "0x000000000000000000000000384f416b0fdeb9b8555128e6901ff3949005bc5d",
            "0x000000000000000000000000e1af8eccf5e46df48953d52bd57005900f3d2753"
          ],
          "data": "0x0000000000000000000000000000000000000000000000000de0b6b3a7640000",
          "blockHash": "0x71e51dc75c3c395a9d20eb77d0a4c5fc4c9bcacc640cbef9c0134af6934876bf",
          "blockNumber": "0xb18ded7",
          "transactionHash": "0x4beb74dfc3205a1c4bc2f2759a13000d3000bf3801dadccea1e9f87fabd00001",
          "transactionIndex": "0x1",
          "logIndex": "0x4",
          "removed": false
        },
        {
          "address": "0xfef007c37968a6a0924e12132c833537a4a7ff7a",
          "topics": [
            "0xddf252ad1be2c89b69c2b068fc378daa952ba7f163c4a11628f55a4df523b3ef",
            "0x000000000000000000000000e1af8eccf5e46df48953d52bd57005900f3d2753",
            "0x000000000000000000000000384f416b0fdeb9b8555128e6901ff3949005bc5d"
          ],
          "data": "0x00000000000000000000000000000000000000000000000009448ce40543e668",
          "blockHash": "0x71e51dc75c3c395a9d20eb77d0a4c5fc4c9bcacc640cbef9c0134af6934876bf",
          "blockNumber": "0xb18ded7",
          "transactionHash": "0x4beb74dfc3205a1c4bc2f2759a13000d3000bf3801dadccea1e9f87fabd00001",
          "transactionIndex": "0x1",
          "logIndex": "0x5",
          "removed": false
        }
      ],
      "logsBloom": "0x00000000000000000000000001010000000000000000010000001000000000000000000000000020000000000000000000000000040000000000000800200000000000000000000000000008000000000000000000000020000000010008000000000000800000000000000000100000000000800000000000400010000000000000000000000002000000000000000000000000000000000000000000020000000000000000000000000000000000010000000040000000001000000000000000000002000000000000000000000000000000100000000000000000000000000000000000008000004000000000000000000000000010000000000000000000",
      "type": "0x2",
      "transactionHash": "0x4beb74dfc3205a1c4bc2f2759a13000d3000bf3801dadccea1e9f87fabd00001",
      "transactionIndex": "0x1",
      "blockHash": "0x71e51dc75c3c395a9d20eb77d0a4c5fc4c9bcacc640cbef9c0134af6934876bf",
      "blockNumber": "0xb18ded7",
      "gasUsed": "0x2d400",
      "effectiveGasPrice": "0x8a4f8a90",
      "from": "0x384f416b0fdeb9b8555128e6901ff3949005bc5d",
      "to": "0x06ddaf3c7194c823bf665ab98830c4c93c7b1f12",
      "contractAddress": null
    }
  ],
  "libraries": [],
  "pending": [],
  "returns": {},
  "timestamp": 1752979997,
  "chain": 1328,
  "commit": "8ab2b28"
}