{
  "transactions": [
    {
      "hash": "0x4cdf67ed5152bcd4470923b4cb068f344842ecad862b10c51c4d6c18ca67c3cd",
      "transactionType": "CALL",
      "contractName": null,
      "contractAddress": "0x5512b7dd9b29376ea69a07acdd3a54a0f59a678e",
      "function": "approve(address,uint256)",
      "arguments": [
        "0xa90BdcF36eD99dfb84Ac2EA9bAd911418986a950",
        "115792089237316195423570985008687907853269984665640564039457584007913129639935"
      ],
      "transaction": {
        "from": "0x384f416b0fdeb9b8555128e6901ff3949005bc5d",
        "to": "0x5512b7dd9b29376ea69a07acdd3a54a0f59a678e",
        "gas": "0x9382",
        "value": "0x0",
        "input": "0x095ea7b3000000000000000000000000a90bdcf36ed99dfb84ac2ea9bad911418986a950ffffffffffffffffffffffffffffffffffffffffffffffffffffffffffffffff",
        "nonce": "0x56",
        "chainId": "0x530"
      },
      "additionalContracts": [],
      "isFixedGasLimit": false
    },
    {
      "hash": "0x4fad38a727ff571c1f3474ebfdafbe8444396656d720d9b0405a1ba9b7887f2f",
      "transactionType": "CALL",
      "contractName": null,
      "contractAddress": "0xa90bdcf36ed99dfb84ac2ea9bad911418986a950",
      "function": "approve(address,address,uint160,uint48)",
      "arguments": [
        "0x5512b7Dd9b29376eA69a07AcDd3a54A0F59A678E",
        "0x30190927a70ac7f6D4FD228BA428dA7dBBdA7933",
        "1461501637330902918203684832716283019655932542975",
        "281474976710655"
      ],
      "transaction": {
        "from": "0x384f416b0fdeb9b8555128e6901ff3949005bc5d",
        "to": "0xa90bdcf36ed99dfb84ac2ea9bad911418986a950",
        "gas": "0x96a0",
        "value": "0x0",
        "input": "0x87517c450000000000000000000000005512b7dd9b29376ea69a07acdd3a54a0f59a678e00000000000000000000000030190927a70ac7f6d4fd228ba428da7dbbda7933000000000000000000000000ffffffffffffffffffffffffffffffffffffffff0000000000000000000000000000000000000000000000000000ffffffffffff",
        "nonce": "0x57",
        "chainId": "0x530"
      },
      "additionalContracts": [],
      "isFixedGasLimit": false
    },
    {
      "hash": "0xcdc4e73190796551c2c16427af7a0781c2d709fd01f10b10a5ac752fd85719f3",
      "transactionType": "CALL",
      "contractName": null,
      "contractAddress": "0xfef007c37968a6a0924e12132c833537a4a7ff7a",
      "function": "approve(address,uint256)",
      "arguments": [
        "0xa90BdcF36eD99dfb84Ac2EA9bAd911418986a950",
        "115792089237316195423570985008687907853269984665640564039457584007913129639935"
      ],
      "transaction": {
        "from": "0x384f416b0fdeb9b8555128e6901ff3949005bc5d",
        "to": "0xfef007c37968a6a0924e12132c833537a4a7ff7a",
        "gas": "0x9382",
        "value": "0x0",
        "input": "0x095ea7b3000000000000000000000000a90bdcf36ed99dfb84ac2ea9bad911418986a950ffffffffffffffffffffffffffffffffffffffffffffffffffffffffffffffff",
        "nonce": "0x58",
        "chainId": "0x530"
      },
      "additionalContracts": [],
      "isFixedGasLimit": false
    },
    {
      "hash": "0x3299608f8b450f410fa2138db25d5e182acc8face4791a2fb64f8efbae50b1fb",
      "transactionType": "CALL",
      "contractName": null,
      "contractAddress": "0xa90bdcf36ed99dfb84ac2ea9bad911418986a950",
      "function": "approve(address,address,uint160,uint48)",
      "arguments": [
        "0xfef007c37968A6A0924e12132C833537a4a7Ff7a",
        "0x30190927a70ac7f6D4FD228BA428dA7dBBdA7933",
        "1461501637330902918203684832716283019655932542975",
        "281474976710655"
      ],
      "transaction": {
        "from": "0x384f416b0fdeb9b8555128e6901ff3949005bc5d",
        "to": "0xa90bdcf36ed99dfb84ac2ea9bad911418986a950",
        "gas": "0x96a0",
        "value": "0x0",
        "input": "0x87517c45000000000000000000000000fef007c37968a6a0924e12132c833537a4a7ff7a00000000000000000000000030190927a70ac7f6d4fd228ba428da7dbbda7933000000000000000000000000ffffffffffffffffffffffffffffffffffffffff0000000000000000000000000000000000000000000000000000ffffffffffff",
        "nonce": "0x59",
        "chainId": "0x530"
      },
      "additionalContracts": [],
      "isFixedGasLimit": false
    },
    {
      "hash": "0x19f8e3279c7d47ecd4be8b9e007e69acc8a9af5031d7444b5e4975a6508c6456",
      "transactionType": "CALL",
      "contractName": null,
      "contractAddress": "0x30190927a70ac7f6d4fd228ba428da7dbbda7933",
      "function": "multicall(bytes[])",
      "arguments": [
        "[0xdd46508f000000000000000000000000000000000000000000000000000000000000004000000000000000000000000000000000000000000000000000000000687c5a460000000000000000000000000000000000000000000000000000000000000400000000000000000000000000000000000000000000000000000000000000004000000000000000000000000000000000000000000000000000000000000000800000000000000000000000000000000000000000000000000000000000000004020d14140000000000000000000000000000000000000000000000000000000000000000000000000000000000000000000000000000000000000000000000040000000000000000000000000000000000000000000000000000000000000080000000000000000000000000000000000000000000000000000000000000024000000000000000000000000000000000000000000000000000000000000002a0000000000000000000000000000000000000000000000000000000000000030000000000000000000000000000000000000000000000000000000000000001a00000000000000000000000005512b7dd9b29376ea69a07acdd3a54a0f59a678e000000000000000000000000fef007c37968a6a0924e12132c833537a4a7ff7a0000000000000000000000000000000000000000000000000000000000001388000000000000000000000000000000000000000000000000000000000000006400000000000000000000000054ce01481cd1994a1b077e178d81351b1220cac0fffffffffffffffffffffffffffffffffffffffffffffffffffffffffffe796000000000000000000000000000000000000000000000000000000000000186a00000000000000000000000000000000000000000000000000df8d1f3f486792d0000000000000000000000000000000000000000000000000de0b6b3a76400010000000000000000000000000000000000000000000000000de0b6b3a7640001000000000000000000000000384f416b0fdeb9b8555128e6901ff3949005bc5d0000000000000000000000000000000000000000000000000000000000000180000000000000000000000000000000000000000000000000000000000000000000000000000000000000000000000000000000000000000000000000000000400000000000000000000000005512b7dd9b29376ea69a07acdd3a54a0f59a678e000000000000000000000000fef007c37968a6a0924e12132c833537a4a7ff7a00000000000000000000000000000000000000000000000000000000000000400000000000000000000000005512b7dd9b29376ea69a07acdd3a54a0f59a678e000000000000000000000000384f416b0fdeb9b8555128e6901ff3949005bc5d0000000000000000000000000000000000000000000000000000000000000040000000000000000000000000fef007c37968a6a0924e12132c833537a4a7ff7a000000000000000000000000384f416b0fdeb9b8555128e6901ff3949005bc5d]"
      ],
      "transaction": {
        "from": "0x384f416b0fdeb9b8555128e6901ff3949005bc5d",
        "to": "0x30190927a70ac7f6d4fd228ba428da7dbbda7933",
        "gas": "0x7135b",
        "value": "0x0",
        "input": "0xac9650d80000000000000000000000000000000000000000000000000000000000000020000000000000000000000000000000000000000000000000000000000000000100000000000000000000000000000000000000000000000000000000000000200000000000000000000000000000000000000000000000000000000000000464dd46508f000000000000000000000000000000000000000000000000000000000000004000000000000000000000000000000000000000000000000000000000687c5a460000000000000000000000000000000000000000000000000000000000000400000000000000000000000000000000000000000000000000000000000000004000000000000000000000000000000000000000000000000000000000000000800000000000000000000000000000000000000000000000000000000000000004020d14140000000000000000000000000000000000000000000000000000000000000000000000000000000000000000000000000000000000000000000000040000000000000000000000000000000000000000000000000000000000000080000000000000000000000000000000000000000000000000000000000000024000000000000000000000000000000000000000000000000000000000000002a0000000000000000000000000000000000000000000000000000000000000030000000000000000000000000000000000000000000000000000000000000001a00000000000000000000000005512b7dd9b29376ea69a07acdd3a54a0f59a678e000000000000000000000000fef007c37968a6a0924e12132c833537a4a7ff7a0000000000000000000000000000000000000000000000000000000000001388000000000000000000000000000000000000000000000000000000000000006400000000000000000000000054ce01481cd1994a1b077e178d81351b1220cac0fffffffffffffffffffffffffffffffffffffffffffffffffffffffffffe796000000000000000000000000000000000000000000000000000000000000186a00000000000000000000000000000000000000000000000000df8d1f3f486792d0000000000000000000000000000000000000000000000000de0b6b3a76400010000000000000000000000000000000000000000000000000de0b6b3a7640001000000000000000000000000384f416b0fdeb9b8555128e6901ff3949005bc5d0000000000000000000000000000000000000000000000000000000000000180000000000000000000000000000000000000000000000000000000000000000000000000000000000000000000000000000000000000000000000000000000400000000000000000000000005512b7dd9b29376ea69a07acdd3a54a0f59a678e000000000000000000000000fef007c37968a6a0924e12132c833537a4a7ff7a00000000000000000000000000000000000000000000000000000000000000400000000000000000000000005512b7dd9b29376ea69a07acdd3a54a0f59a678e000000000000000000000000384f416b0fdeb9b8555128e6901ff3949005bc5d0000000000000000000000000000000000000000000000000000000000000040000000000000000000000000fef007c37968a6a0924e12132c833537a4a7ff7a000000000000000000000000384f416b0fdeb9b8555128e6901ff3949005bc5d00000000000000000000000000000000000000000000000000000000",
        "nonce": "0x5a",
        "chainId": "0x530"
      },
      "additionalContracts": [],
      "isFixedGasLimit": false
    }
  ],
  "receipts": [
    {
      "status": "0x1",
      "cumulativeGasUsed": "0x0",
      "logs": [
        {
          "address": "0x5512b7dd9b29376ea69a07acdd3a54a0f59a678e",
          "topics": [
            "0x8c5be1e5ebec7d5bd14f71427d1e84f3dd0314c0f7b2291e5b200ac8c7c3b925",
            "0x000000000000000000000000384f416b0fdeb9b8555128e6901ff3949005bc5d",
            "0x000000000000000000000000a90bdcf36ed99dfb84ac2ea9bad911418986a950"
          ],
          "data": "0xffffffffffffffffffffffffffffffffffffffffffffffffffffffffffffffff",
          "blockHash": "0x46a827bcb9e5d537257d12543d1890470d7795ca03795420fc7dd88f2bcb3e66",
          "blockNumber": "0xb18deba",
          "transactionHash": "0x4cdf67ed5152bcd4470923b4cb068f344842ecad862b10c51c4d6c18ca67c3cd",
          "transactionIndex": "0x0",
          "logIndex": "0x0",
          "removed": false
        }
      ],
      "logsBloom": "0x00000000000000000000000000000000000000000000000000000000000000000000000000000000000000000000000000000000000000000000000000200000000000000000000000000000000000000000000020000000000000000008000000000000000000000000000000100100000000000000000000000000000000000000000000000000000000000000000000000000000000000000000000000000020000000000000000000000000000000000000000000000001000000000000000000000000000000000000000000000000000100000000000000000000000000010000000000000000000000000000000000000000010000000200000000000",
      "type": "0x2",
      "transactionHash": "0x4cdf67ed5152bcd4470923b4cb068f344842ecad862b10c51c4d6c18ca67c3cd",
      "transactionIndex": "0x0",
      "blockHash": "0x46a827bcb9e5d537257d12543d1890470d7795ca03795420fc7dd88f2bcb3e66",
      "blockNumber": "0xb18deba",
      "gasUsed": "0x6acc",
      "effectiveGasPrice": "0x8a486400",
      "from": "0x384f416b0fdeb9b8555128e6901ff3949005bc5d",
      "to": "0x5512b7dd9b29376ea69a07acdd3a54a0f59a678e",
      "contractAddress": null
    },
    {
      "status": "0x1",
      "cumulativeGasUsed": "0x0",
      "logs": [
        {
          "address": "0xa90bdcf36ed99dfb84ac2ea9bad911418986a950",
          "topics": [
            "0xda9fa7c1b00402c17d0161b249b1ab8bbec047c5a52207b9c112deffd817036b",
            "0x000000000000000000000000384f416b0fdeb9b8555128e6901ff3949005bc5d",
            "0x0000000000000000000000005512b7dd9b29376ea69a07acdd3a54a0f59a678e",
            "0x00000000000000000000000030190927a70ac7f6d4fd228ba428da7dbbda7933"
          ],
          "data": "0x000000000000000000000000ffffffffffffffffffffffffffffffffffffffff0000000000000000000000000000000000000000000000000000ffffffffffff",
          "blockHash": "0x550e350044798918e83471c5f6ba24991fcb2b5c5f443eb8965ad8c80d01d85e",
          "blockNumber": "0xb18debb",
          "transactionHash": "0x4fad38a727ff571c1f3474ebfdafbe8444396656d720d9b0405a1ba9b7887f2f",
          "transactionIndex": "0x2",
          "logIndex": "0x5",
          "removed": false
        }
      ],
      "logsBloom": "0x00000000000000000000400000000100000000000000000000000000000002000000000000000000000000000000000000000000000000000000000000200000000000000000000000000000000000000000000000000000000000000000000000000000000020000000000000000000008000000000000000000000000000004020000000000000000000000000000000100000000000000000000000000000000000000000000000000000000000000000000000000200001000080010000000000000000000000000000000000000000000000000000040000000000000000000000000000000000000000000000000000000000010000000000000000000",
      "type": "0x2",
      "transactionHash": "0x4fad38a727ff571c1f3474ebfdafbe8444396656d720d9b0405a1ba9b7887f2f",
      "transactionIndex": "0x2",
      "blockHash": "0x550e350044798918e83471c5f6ba24991fcb2b5c5f443eb8965ad8c80d01d85e",
      "blockNumber": "0xb18debb",
      "gasUsed": "0x6d0e",
      "effectiveGasPrice": "0x8a486400",
      "from": "0x384f416b0fdeb9b8555128e6901ff3949005bc5d",
      "to": "0xa90bdcf36ed99dfb84ac2ea9bad911418986a950",
      "contractAddress": null
    },
    {
      "status": "0x1",
      "cumulativeGasUsed": "0x0",
      "logs": [
        {
          "address": "0xfef007c37968a6a0924e12132c833537a4a7ff7a",
          "topics": [
            "0x8c5be1e5ebec7d5bd14f71427d1e84f3dd0314c0f7b2291e5b200ac8c7c3b925",
            "0x000000000000000000000000384f416b0fdeb9b8555128e6901ff3949005bc5d",
            "0x000000000000000000000000a90bdcf36ed99dfb84ac2ea9bad911418986a950"
          ],
          "data": "0xffffffffffffffffffffffffffffffffffffffffffffffffffffffffffffffff",
          "blockHash": "0xe72f5b51682ec734d9361564be4061af367b6dda7e815e8f53387ee2f9ecb16a",
          "blockNumber": "0xb18debe",
          "transactionHash": "0xcdc4e73190796551c2c16427af7a0781c2d709fd01f10b10a5ac752fd85719f3",
          "transactionIndex": "0x0",
          "logIndex": "0x0",
          "removed": false
        }
      ],
      "logsBloom": "0x00000000000000000000000000010000000000000000000000000000000000000000000000000000000000000000000000000000000000000000000800200000000000000000000000000000000000000000000020000000000000000000000000000000000000000000000000000100000000800000000000000000000000000000000000000000000000000000000000000000000000000000000000000000020000000000000000000000000000000000000000000000001000000000000000000000000000000000000000000000000000000000000000000000000000000010000000000000000000000000000000000000000010000000200000000000",
      "type": "0x2",
      "transactionHash": "0xcdc4e73190796551c2c16427af7a0781c2d709fd01f10b10a5ac752fd85719f3",
      "transactionIndex": "0x0",
      "blockHash": "0xe72f5b51682ec734d9361564be4061af367b6dda7e815e8f53387ee2f9ecb16a",
      "blockNumber": "0xb18debe",
      "gasUsed": "0x6acc",
      "effectiveGasPrice": "0x8a486400",
      "from": "0x384f416b0fdeb9b8555128e6901ff3949005bc5d",
      "to": "0xfef007c37968a6a0924e12132c833537a4a7ff7a",
      "contractAddress": null
    },
    {
      "status": "0x1",
      "cumulativeGasUsed": "0x0",
      "logs": [
        {
          "address": "0xa90bdcf36ed99dfb84ac2ea9bad911418986a950",
          "topics": [
            "0xda9fa7c1b00402c17d0161b249b1ab8bbec047c5a52207b9c112deffd817036b",
            "0x000000000000000000000000384f416b0fdeb9b8555128e6901ff3949005bc5d",
            "0x000000000000000000000000fef007c37968a6a0924e12132c833537a4a7ff7a",
            "0x00000000000000000000000030190927a70ac7f6d4fd228ba428da7dbbda7933"
          ],
          "data": "0x000000000000000000000000ffffffffffffffffffffffffffffffffffffffff0000000000000000000000000000000000000000000000000000ffffffffffff",
          "blockHash": "0x7d89bc46864a3100a395bc7ceb03619c0051f40880536d7d522ec6bd9c04e102",
          "blockNumber": "0xb18dec1",
          "transactionHash": "0x3299608f8b450f410fa2138db25d5e182acc8face4791a2fb64f8efbae50b1fb",
          "transactionIndex": "0x1",
          "logIndex": "0x3",
          "removed": false
        }
      ],
      "logsBloom": "0x00000000000000000000000000000100000000000000000000000000000000000000008000000000000000000000000000000000000000000000000000200000000004000000000000000000000000000000000000000000000000000000000000000000000028000000000000000000008000000000000000000000000000004020000000000000000000000000000000100000000000000000000000000000000000000000000000000000000000000000000000000000001000080010000000000000000000000000000000000000000000000000000040000000000000000000000000000000000000000000000000000000000010000000000000000000",
      "type": "0x2",
      "transactionHash": "0x3299608f8b450f410fa2138db25d5e182acc8face4791a2fb64f8efbae50b1fb",
      "transactionIndex": "0x1",
      "blockHash": "0x7d89bc46864a3100a395bc7ceb03619c0051f40880536d7d522ec6bd9c04e102",
      "blockNumber": "0xb18dec1",
      "gasUsed": "0x6d0e",
      "effectiveGasPrice": "0x8a486400",
      "from": "0x384f416b0fdeb9b8555128e6901ff3949005bc5d",
      "to": "0xa90bdcf36ed99dfb84ac2ea9bad911418986a950",
      "contractAddress": null
    },
    {
      "status": "0x1",
      "cumulativeGasUsed": "0x0",
      "logs": [
        {
          "address": "0x30190927a70ac7f6d4fd228ba428da7dbbda7933",
          "topics": [
            "0xddf252ad1be2c89b69c2b068fc378daa952ba7f163c4a11628f55a4df523b3ef",
            "0x0000000000000000000000000000000000000000000000000000000000000000",
            "0x000000000000000000000000384f416b0fdeb9b8555128e6901ff3949005bc5d",
            "0x0000000000000000000000000000000000000000000000000000000000000002"
          ],
          "data": "0x",
          "blockHash": "0x0c5c74dcdd155db4233843f45bf01777cd1da72eb00c914272cb0ac6f172bf57",
          "blockNumber": "0xb18dec2",
          "transactionHash": "0x19f8e3279c7d47ecd4be8b9e007e69acc8a9af5031d7444b5e4975a6508c6456",
          "transactionIndex": "0x1",
          "logIndex": "0x2",
          "removed": false
        },
        {
          "address": "0xe1af8eccf5e46df48953d52bd57005900f3d2753",
          "topics": [
            "0xf208f4912782fd25c7f114ca3723a2d5dd6f3bcc3ac8db5af63baa85f711d5ec",
            "0x75920e7f3c46a4161c728dcb1afc584c3d151cc7429c6621274d0113c383990f",
            "0x00000000000000000000000030190927a70ac7f6d4fd228ba428da7dbbda7933"
          ],
          "data": "0xfffffffffffffffffffffffffffffffffffffffffffffffffffffffffffe796000000000000000000000000000000000000000000000000000000000000186a00000000000000000000000000000000000000000000000000df8d1f3f486792d0000000000000000000000000000000000000000000000000000000000000002",
          "blockHash": "0x0c5c74dcdd155db4233843f45bf01777cd1da72eb00c914272cb0ac6f172bf57",
          "blockNumber": "0xb18dec2",
          "transactionHash": "0x19f8e3279c7d47ecd4be8b9e007e69acc8a9af5031d7444b5e4975a6508c6456",
          "transactionIndex": "0x1",
          "logIndex": "0x3",
          "removed": false
        },
        {
          "address": "0x5512b7dd9b29376ea69a07acdd3a54a0f59a678e",
          "topics": [
            "0xddf252ad1be2c89b69c2b068fc378daa952ba7f163c4a11628f55a4df523b3ef",
            "0x000000000000000000000000384f416b0fdeb9b8555128e6901ff3949005bc5d",
            "0x000000000000000000000000e1af8eccf5e46df48953d52bd57005900f3d2753"
          ],
          "data": "0x0000000000000000000000000000000000000000000000000de0b6b3a7640000",
          "blockHash": "0x0c5c74dcdd155db4233843f45bf01777cd1da72eb00c914272cb0ac6f172bf57",
          "blockNumber": "0xb18dec2",
          "transactionHash": "0x19f8e3279c7d47ecd4be8b9e007e69acc8a9af5031d7444b5e4975a6508c6456",
          "transactionIndex": "0x1",
          "logIndex": "0x4",
          "removed": false
        },
        {
          "address": "0xfef007c37968a6a0924e12132c833537a4a7ff7a",
          "topics": [
            "0xddf252ad1be2c89b69c2b068fc378daa952ba7f163c4a11628f55a4df523b3ef",
            "0x000000000000000000000000384f416b0fdeb9b8555128e6901ff3949005bc5d",
            "0x000000000000000000000000e1af8eccf5e46df48953d52bd57005900f3d2753"
          ],
          "data": "0x0000000000000000000000000000000000000000000000000de0b6b3a7640000",
          "blockHash": "0x0c5c74dcdd155db4233843f45bf01777cd1da72eb00c914272cb0ac6f172bf57",
          "blockNumber": "0xb18dec2",
          "transactionHash": "0x19f8e3279c7d47ecd4be8b9e007e69acc8a9af5031d7444b5e4975a6508c6456",
          "transactionIndex": "0x1",
          "logIndex": "0x5",
          "removed": false
        }
      ],
      "logsBloom": "0x04000000000000000000000001010100000000000000010000001000000000000000000000000000000000000000000000000000000000000000000c00200000000000000000000000000008000100000000000000000000000000010008000000000000820000000000000000100800008000800000000000000010000000000000000001000000000000000000000000100000000000000000000000020000000004000000000000000100000000010000000040000000001000000000200000000002000000000000000000000000000000100000000000000000000020000000000000008000000000000000000004000000008010000000000000000000",
      "type": "0x2",
      "transactionHash": "0x19f8e3279c7d47ecd4be8b9e007e69acc8a9af5031d7444b5e4975a6508c6456",
      "transactionIndex": "0x1",
      "blockHash": "0x0c5c74dcdd155db4233843f45bf01777cd1da72eb00c914272cb0ac6f172bf57",
      "blockNumber": "0xb18dec2",
      "gasUsed": "0x51f64",
      "effectiveGasPrice": "0x8a486400",
      "from": "0x384f416b0fdeb9b8555128e6901ff3949005bc5d",
      "to": "0x30190927a70ac7f6d4fd228ba428da7dbbda7933",
      "contractAddress": null
    }
  ],
  "libraries": [],
  "pending": [],
  "returns": {},
  "timestamp": 1752979989,
  "chain": 1328,
  "commit": "8ab2b28"
}