{
  "transactions": [
    {
      "hash": "0x2aa0ccd39af0bb08c2934109f3034a245b272ba93d978545896d5e5bcefd14b9",
      "transactionType": "CALL",
      "contractName": null,
      "contractAddress": "0xbe7d12afee28b307657476399669efe9f9552933",
      "function": "approve(address,uint256)",
      "arguments": [
        "0x8761C94fF0b6959a4b96415D687365c707c42917",
        "115792089237316195423570985008687907853269984665640564039457584007913129639935"
      ],
      "transaction": {
        "from": "0x384f416b0fdeb9b8555128e6901ff3949005bc5d",
        "to": "0xbe7d12afee28b307657476399669efe9f9552933",
        "gas": "0x9382",
        "value": "0x0",
        "input": "0x095ea7b30000000000000000000000008761c94ff0b6959a4b96415d687365c707c42917ffffffffffffffffffffffffffffffffffffffffffffffffffffffffffffffff",
        "nonce": "0x3a",
        "chainId": "0x530"
      },
      "additionalContracts": [],
      "isFixedGasLimit": false
    },
    {
      "hash": "0x21487f889292a909200c235abf9c48543f95e0d9c176b7c95886087db19bd9ed",
      "transactionType": "CALL",
      "contractName": null,
      "contractAddress": "0x8761c94ff0b6959a4b96415d687365c707c42917",
      "function": "approve(address,address,uint160,uint48)",
      "arguments": [
        "0xBE7D12aFee28B307657476399669EFE9f9552933",
        "0x5882BbF230DD2022b2d740E871a8AA9FF4307AC9",
        "1461501637330902918203684832716283019655932542975",
        "281474976710655"
      ],
      "transaction": {
        "from": "0x384f416b0fdeb9b8555128e6901ff3949005bc5d",
        "to": "0x8761c94ff0b6959a4b96415d687365c707c42917",
        "gas": "0x96a0",
        "value": "0x0",
        "input": "0x87517c45000000000000000000000000be7d12afee28b307657476399669efe9f95529330000000000000000000000005882bbf230dd2022b2d740e871a8aa9ff4307ac9000000000000000000000000ffffffffffffffffffffffffffffffffffffffff0000000000000000000000000000000000000000000000000000ffffffffffff",
        "nonce": "0x3b",
        "chainId": "0x530"
      },
      "additionalContracts": [],
      "isFixedGasLimit": false
    },
    {
      "hash": "0xa3f92768b6f39599f8c041fb715cfd4cabdffd027fb13ca10575276669a7ae00",
      "transactionType": "CALL",
      "contractName": null,
      "contractAddress": "0x27116c0ddd6915ae8307f1ad9b405eff0051b1c0",
      "function": "approve(address,uint256)",
      "arguments": [
        "0x8761C94fF0b6959a4b96415D687365c707c42917",
        "115792089237316195423570985008687907853269984665640564039457584007913129639935"
      ],
      "transaction": {
        "from": "0x384f416b0fdeb9b8555128e6901ff3949005bc5d",
        "to": "0x27116c0ddd6915ae8307f1ad9b405eff0051b1c0",
        "gas": "0x9382",
        "value": "0x0",
        "input": "0x095ea7b30000000000000000000000008761c94ff0b6959a4b96415d687365c707c42917ffffffffffffffffffffffffffffffffffffffffffffffffffffffffffffffff",
        "nonce": "0x3c",
        "chainId": "0x530"
      },
      "additionalContracts": [],
      "isFixedGasLimit": false
    },
    {
      "hash": "0xf56d1215e100004c99c5421dfaa1bd06d9794204f4ce2440568ad62e28fb6924",
      "transactionType": "CALL",
      "contractName": null,
      "contractAddress": "0x8761c94ff0b6959a4b96415d687365c707c42917",
      "function": "approve(address,address,uint160,uint48)",
      "arguments": [
        "0x27116C0ddd6915AE8307f1Ad9B405eFf0051b1C0",
        "0x5882BbF230DD2022b2d740E871a8AA9FF4307AC9",
        "1461501637330902918203684832716283019655932542975",
        "281474976710655"
      ],
      "transaction": {
        "from": "0x384f416b0fdeb9b8555128e6901ff3949005bc5d",
        "to": "0x8761c94ff0b6959a4b96415d687365c707c42917",
        "gas": "0x9f6c",
        "value": "0x0",
        "input": "0x87517c4500000000000000000000000027116c0ddd6915ae8307f1ad9b405eff0051b1c00000000000000000000000005882bbf230dd2022b2d740e871a8aa9ff4307ac9000000000000000000000000ffffffffffffffffffffffffffffffffffffffff0000000000000000000000000000000000000000000000000000ffffffffffff",
        "nonce": "0x3d",
        "chainId": "0x530"
      },
      "additionalContracts": [],
      "isFixedGasLimit": false
    },
    {
      "hash": "0x20f022764311c6070390783d87a8f1a37111d8c9368409a934db00621ce55935",
      "transactionType": "CALL",
      "contractName": null,
      "contractAddress": "0x5882bbf230dd2022b2d740e871a8aa9ff4307ac9",
      "function": "multicall(bytes[])",
      "arguments": [
        "[0xdd46508f000000000000000000000000000000000000000000000000000000000000004000000000000000000000000000000000000000000000000000000000687c53b80000000000000000000000000000000000000000000000000000000000000400000000000000000000000000000000000000000000000000000000000000004000000000000000000000000000000000000000000000000000000000000000800000000000000000000000000000000000000000000000000000000000000004020d14140000000000000000000000000000000000000000000000000000000000000000000000000000000000000000000000000000000000000000000000040000000000000000000000000000000000000000000000000000000000000080000000000000000000000000000000000000000000000000000000000000024000000000000000000000000000000000000000000000000000000000000002a0000000000000000000000000000000000000000000000000000000000000030000000000000000000000000000000000000000000000000000000000000001a000000000000000000000000027116c0ddd6915ae8307f1ad9b405eff0051b1c0000000000000000000000000be7d12afee28b307657476399669efe9f9552933000000000000000000000000000000000000000000000000000000000000138800000000000000000000000000000000000000000000000000000000000000640000000000000000000000004be3cca466fd5aaa714cedbd27bdd30a3203cac0fffffffffffffffffffffffffffffffffffffffffffffffffffffffffffe796000000000000000000000000000000000000000000000000000000000000186a00000000000000000000000000000000000000000000000000df8d1f3f486792d0000000000000000000000000000000000000000000000000de0b6b3a76400010000000000000000000000000000000000000000000000000de0b6b3a7640001000000000000000000000000384f416b0fdeb9b8555128e6901ff3949005bc5d00000000000000000000000000000000000000000000000000000000000001800000000000000000000000000000000000000000000000000000000000000000000000000000000000000000000000000000000000000000000000000000004000000000000000000000000027116c0ddd6915ae8307f1ad9b405eff0051b1c0000000000000000000000000be7d12afee28b307657476399669efe9f9552933000000000000000000000000000000000000000000000000000000000000004000000000000000000000000027116c0ddd6915ae8307f1ad9b405eff0051b1c0000000000000000000000000384f416b0fdeb9b8555128e6901ff3949005bc5d0000000000000000000000000000000000000000000000000000000000000040000000000000000000000000be7d12afee28b307657476399669efe9f9552933000000000000000000000000384f416b0fdeb9b8555128e6901ff3949005bc5d]"
      ],
      "transaction": {
        "from": "0x384f416b0fdeb9b8555128e6901ff3949005bc5d",
        "to": "0x5882bbf230dd2022b2d740e871a8aa9ff4307ac9",
        "gas": "0x7132a",
        "value": "0x0",
        "input": "0xac9650d80000000000000000000000000000000000000000000000000000000000000020000000000000000000000000000000000000000000000000000000000000000100000000000000000000000000000000000000000000000000000000000000200000000000000000000000000000000000000000000000000000000000000464dd46508f000000000000000000000000000000000000000000000000000000000000004000000000000000000000000000000000000000000000000000000000687c53b80000000000000000000000000000000000000000000000000000000000000400000000000000000000000000000000000000000000000000000000000000004000000000000000000000000000000000000000000000000000000000000000800000000000000000000000000000000000000000000000000000000000000004020d14140000000000000000000000000000000000000000000000000000000000000000000000000000000000000000000000000000000000000000000000040000000000000000000000000000000000000000000000000000000000000080000000000000000000000000000000000000000000000000000000000000024000000000000000000000000000000000000000000000000000000000000002a0000000000000000000000000000000000000000000000000000000000000030000000000000000000000000000000000000000000000000000000000000001a000000000000000000000000027116c0ddd6915ae8307f1ad9b405eff0051b1c0000000000000000000000000be7d12afee28b307657476399669efe9f9552933000000000000000000000000000000000000000000000000000000000000138800000000000000000000000000000000000000000000000000000000000000640000000000000000000000004be3cca466fd5aaa714cedbd27bdd30a3203cac0fffffffffffffffffffffffffffffffffffffffffffffffffffffffffffe796000000000000000000000000000000000000000000000000000000000000186a00000000000000000000000000000000000000000000000000df8d1f3f486792d0000000000000000000000000000000000000000000000000de0b6b3a76400010000000000000000000000000000000000000000000000000de0b6b3a7640001000000000000000000000000384f416b0fdeb9b8555128e6901ff3949005bc5d00000000000000000000000000000000000000000000000000000000000001800000000000000000000000000000000000000000000000000000000000000000000000000000000000000000000000000000000000000000000000000000004000000000000000000000000027116c0ddd6915ae8307f1ad9b405eff0051b1c0000000000000000000000000be7d12afee28b307657476399669efe9f9552933000000000000000000000000000000000000000000000000000000000000004000000000000000000000000027116c0ddd6915ae8307f1ad9b405eff0051b1c0000000000000000000000000384f416b0fdeb9b8555128e6901ff3949005bc5d0000000000000000000000000000000000000000000000000000000000000040000000000000000000000000be7d12afee28b307657476399669efe9f9552933000000000000000000000000384f416b0fdeb9b8555128e6901ff3949005bc5d00000000000000000000000000000000000000000000000000000000",
        "nonce": "0x3e",
        "chainId": "0x530"
      },
      "additionalContracts": [],
      "isFixedGasLimit": false
    }
  ],
  "receipts": [
    {
      "status": "0x1",
      "cumulativeGasUsed": "0x0",
      "logs": [
        {
          "address": "0xbe7d12afee28b307657476399669efe9f9552933",
          "topics": [
            "0x8c5be1e5ebec7d5bd14f71427d1e84f3dd0314c0f7b2291e5b200ac8c7c3b925",
            "0x000000000000000000000000384f416b0fdeb9b8555128e6901ff3949005bc5d",
            "0x0000000000000000000000008761c94ff0b6959a4b96415d687365c707c42917"
          ],
          "data": "0xffffffffffffffffffffffffffffffffffffffffffffffffffffffffffffffff",
          "blockHash": "0x302eeeee042ed076ee26118ce7f02f87092b6dfe149763093fec11afe6069f03",
          "blockNumber": "0xb18ce40",
          "transactionHash": "0x2aa0ccd39af0bb08c2934109f3034a245b272ba93d978545896d5e5bcefd14b9",
          "transactionIndex": "0x1",
          "logIndex": "0x2",
          "removed": false
        }
      ],
      "logsBloom": "0x00000000000000000000000000000000000000000000000000000000000000000000020000000000000000000000000000000000000000000000000000200000000000000000000000000000000000000000000000000000010000000000000000000000000000000000000000000000000000000000000000000000000000000000000000000000000000000000000000000000000000000000000000000000060000000000000000000000000000000000010000000000001000000000002000000000000000000000000000000000000000000000000080000000000000000010000000000000000000000000000000000000000010000000000000000000",
      "type": "0x2",
      "transactionHash": "0x2aa0ccd39af0bb08c2934109f3034a245b272ba93d978545896d5e5bcefd14b9",
      "transactionIndex": "0x1",
      "blockHash": "0x302eeeee042ed076ee26118ce7f02f87092b6dfe149763093fec11afe6069f03",
      "blockNumber": "0xb18ce40",
      "gasUsed": "0x6acc",
      "effectiveGasPrice": "0x83b9ec80",
      "from": "0x384f416b0fdeb9b8555128e6901ff3949005bc5d",
      "to": "0xbe7d12afee28b307657476399669efe9f9552933",
      "contractAddress": null
    },
    {
      "status": "0x1",
      "cumulativeGasUsed": "0x0",
      "logs": [
        {
          "address": "0x8761c94ff0b6959a4b96415d687365c707c42917",
          "topics": [
            "0xda9fa7c1b00402c17d0161b249b1ab8bbec047c5a52207b9c112deffd817036b",
            "0x000000000000000000000000384f416b0fdeb9b8555128e6901ff3949005bc5d",
            "0x000000000000000000000000be7d12afee28b307657476399669efe9f9552933",
            "0x0000000000000000000000005882bbf230dd2022b2d740e871a8aa9ff4307ac9"
          ],
          "data": "0x000000000000000000000000ffffffffffffffffffffffffffffffffffffffff0000000000000000000000000000000000000000000000000000ffffffffffff",
          "blockHash": "0x04c75c0bc600ccd76eba19dc5ceed591906c54e36790e16e1150e62c20b64102",
          "blockNumber": "0xb18ce41",
          "transactionHash": "0x21487f889292a909200c235abf9c48543f95e0d9c176b7c95886087db19bd9ed",
          "transactionIndex": "0x0",
          "logIndex": "0x0",
          "removed": false
        }
      ],
      "logsBloom": "0x00000000000000000000000000000000000000000000000000000000000100000000000010004000000000000000000000000000000000000020100000200000000000000000000000000000000000000000000000000000000000000000000000000000000400000000400000000000000000000000000000000000000000000020000000000000000000000000000080000000000000000000000000000000000000000000000000000000000000000000000000000000001000080000000000000000000000000000000000000000000000000000000040000000000000000001000000000000000000000000000000000000000010000000000000000000",
      "type": "0x2",
      "transactionHash": "0x21487f889292a909200c235abf9c48543f95e0d9c176b7c95886087db19bd9ed",
      "transactionIndex": "0x0",
      "blockHash": "0x04c75c0bc600ccd76eba19dc5ceed591906c54e36790e16e1150e62c20b64102",
      "blockNumber": "0xb18ce41",
      "gasUsed": "0x6d0e",
      "effectiveGasPrice": "0x83b9ec80",
      "from": "0x384f416b0fdeb9b8555128e6901ff3949005bc5d",
      "to": "0x8761c94ff0b6959a4b96415d687365c707c42917",
      "contractAddress": null
    },
    {
      "status": "0x1",
      "cumulativeGasUsed": "0x0",
      "logs": [
        {
          "address": "0x27116c0ddd6915ae8307f1ad9b405eff0051b1c0",
          "topics": [
            "0x8c5be1e5ebec7d5bd14f71427d1e84f3dd0314c0f7b2291e5b200ac8c7c3b925",
            "0x000000000000000000000000384f416b0fdeb9b8555128e6901ff3949005bc5d",
            "0x0000000000000000000000008761c94ff0b6959a4b96415d687365c707c42917"
          ],
          "data": "0xffffffffffffffffffffffffffffffffffffffffffffffffffffffffffffffff",
          "blockHash": "0x4933ce5241476be09b47d7ae0e0205626c640ab2d828344ced75f9cee9d12029",
          "blockNumber": "0xb18ce42",
          "transactionHash": "0xa3f92768b6f39599f8c041fb715cfd4cabdffd027fb13ca10575276669a7ae00",
          "transactionIndex": "0x1",
          "logIndex": "0x2",
          "removed": false
        }
      ],
      "logsBloom": "0x00000000000000000000000000000000000000000000000000000000000000000000020000000000000000000000000000000000000000000000000000200000000000000000000000000040000000000000000000000000000000000000000000000000000000000000000000000000000000000000000000000000000000000000000000000000000000000000000000000000000000000000200000000000060000000000800000000000000000000000010000000000001000000000000000000000000000000000000000000000000000000000000000000000000000000010000000000000000000000000000000000000000010000000000000000000",
      "type": "0x2",
      "transactionHash": "0xa3f92768b6f39599f8c041fb715cfd4cabdffd027fb13ca10575276669a7ae00",
      "transactionIndex": "0x1",
      "blockHash": "0x4933ce5241476be09b47d7ae0e0205626c640ab2d828344ced75f9cee9d12029",
      "blockNumber": "0xb18ce42",
      "gasUsed": "0x6acc",
      "effectiveGasPrice": "0x83b9ec80",
      "from": "0x384f416b0fdeb9b8555128e6901ff3949005bc5d",
      "to": "0x27116c0ddd6915ae8307f1ad9b405eff0051b1c0",
      "contractAddress": null
    },
    {
      "status": "0x1",
      "cumulativeGasUsed": "0x0",
      "logs": [
        {
          "address": "0x8761c94ff0b6959a4b96415d687365c707c42917",
          "topics": [
            "0xda9fa7c1b00402c17d0161b249b1ab8bbec047c5a52207b9c112deffd817036b",
            "0x000000000000000000000000384f416b0fdeb9b8555128e6901ff3949005bc5d",
            "0x00000000000000000000000027116c0ddd6915ae8307f1ad9b405eff0051b1c0",
            "0x0000000000000000000000005882bbf230dd2022b2d740e871a8aa9ff4307ac9"
          ],
          "data": "0x000000000000000000000000ffffffffffffffffffffffffffffffffffffffff0000000000000000000000000000000000000000000000000000ffffffffffff",
          "blockHash": "0xcfa3b558fb929f1e07b01e90476e30f2ede956fe5cdb38b51d2e43c291cdd9d2",
          "blockNumber": "0xb18ce43",
          "transactionHash": "0xf56d1215e100004c99c5421dfaa1bd06d9794204f4ce2440568ad62e28fb6924",
          "transactionIndex": "0x1",
          "logIndex": "0x3",
          "removed": false
        }
      ],
      "logsBloom": "0x00000000000000000000000000000000000000000000000000000000000000000000000010004000000000000000000000000000000000000000100000200000000000000000000000000000000000000000000000000000000000000000000000000000000000000000400000000000000000000000000010000000000000000020000000000000000000000000000080000000000000000000000000000000000000000000000000000000000000000000000000000008001000080000002000000000000000000000000000000000000000000000000040000000000000000001000000000000000000000000000000000000000010000000000000000000",
      "type": "0x2",
      "transactionHash": "0xf56d1215e100004c99c5421dfaa1bd06d9794204f4ce2440568ad62e28fb6924",
      "transactionIndex": "0x1",
      "blockHash": "0xcfa3b558fb929f1e07b01e90476e30f2ede956fe5cdb38b51d2e43c291cdd9d2",
      "blockNumber": "0xb18ce43",
      "gasUsed": "0x6d02",
      "effectiveGasPrice": "0x83b9ec80",
      "from": "0x384f416b0fdeb9b8555128e6901ff3949005bc5d",
      "to": "0x8761c94ff0b6959a4b96415d687365c707c42917",
      "contractAddress": null
    },
    {
      "status": "0x1",
      "cumulativeGasUsed": "0x0",
      "logs": [
        {
          "address": "0x5882bbf230dd2022b2d740e871a8aa9ff4307ac9",
          "topics": [
            "0xddf252ad1be2c89b69c2b068fc378daa952ba7f163c4a11628f55a4df523b3ef",
            "0x0000000000000000000000000000000000000000000000000000000000000000",
            "0x000000000000000000000000384f416b0fdeb9b8555128e6901ff3949005bc5d",
            "0x0000000000000000000000000000000000000000000000000000000000000002"
          ],
          "data": "0x",
          "blockHash": "0xb8569b6da15c12707a63e9ef2a2828aaadb0162743d9e1f7823875b80a350e38",
          "blockNumber": "0xb18ce44",
          "transactionHash": "0x20f022764311c6070390783d87a8f1a37111d8c9368409a934db00621ce55935",
          "transactionIndex": "0x2",
          "logIndex": "0x5",
          "removed": false
        },
        {
          "address": "0x0bf5908bdf1d352a293e40276b3fe35543639588",
          "topics": [
            "0xf208f4912782fd25c7f114ca3723a2d5dd6f3bcc3ac8db5af63baa85f711d5ec",
            "0x46c15e52b130d82cb3898ac86d5443998dd8f0ccea37fc2f01753c874c46fb8f",
            "0x0000000000000000000000005882bbf230dd2022b2d740e871a8aa9ff4307ac9"
          ],
          "data": "0xfffffffffffffffffffffffffffffffffffffffffffffffffffffffffffe796000000000000000000000000000000000000000000000000000000000000186a00000000000000000000000000000000000000000000000000df8d1f3f486792d0000000000000000000000000000000000000000000000000000000000000002",
          "blockHash": "0xb8569b6da15c12707a63e9ef2a2828aaadb0162743d9e1f7823875b80a350e38",
          "blockNumber": "0xb18ce44",
          "transactionHash": "0x20f022764311c6070390783d87a8f1a37111d8c9368409a934db00621ce55935",
          "transactionIndex": "0x2",
          "logIndex": "0x6",
          "removed": false
        },
        {
          "address": "0x27116c0ddd6915ae8307f1ad9b405eff0051b1c0",
          "topics": [
            "0xddf252ad1be2c89b69c2b068fc378daa952ba7f163c4a11628f55a4df523b3ef",
            "0x000000000000000000000000384f416b0fdeb9b8555128e6901ff3949005bc5d",
            "0x0000000000000000000000000bf5908bdf1d352a293e40276b3fe35543639588"
          ],
          "data": "0x0000000000000000000000000000000000000000000000000de0b6b3a7640000",
          "blockHash": "0xb8569b6da15c12707a63e9ef2a2828aaadb0162743d9e1f7823875b80a350e38",
          "blockNumber": "0xb18ce44",
          "transactionHash": "0x20f022764311c6070390783d87a8f1a37111d8c9368409a934db00621ce55935",
          "transactionIndex": "0x2",
          "logIndex": "0x7",
          "removed": false
        },
        {
          "address": "0xbe7d12afee28b307657476399669efe9f9552933",
          "topics": [
            "0xddf252ad1be2c89b69c2b068fc378daa952ba7f163c4a11628f55a4df523b3ef",
            "0x000000000000000000000000384f416b0fdeb9b8555128e6901ff3949005bc5d",
            "0x0000000000000000000000000bf5908bdf1d352a293e40276b3fe35543639588"
          ],
          "data": "0x0000000000000000000000000000000000000000000000000de0b6b3a7640000",
          "blockHash": "0xb8569b6da15c12707a63e9ef2a2828aaadb0162743d9e1f7823875b80a350e38",
          "blockNumber": "0xb18ce44",
          "transactionHash": "0x20f022764311c6070390783d87a8f1a37111d8c9368409a934db00621ce55935",
          "transactionIndex": "0x2",
          "logIndex": "0x8",
          "removed": false
        }
      ],
      "logsBloom": "0x04000000000000000000000000000000000000000000000000000000000004000000000010004000000000000000000000000000000000000000000020200000000000000000000000000048000000000000000000000000010000000000000000004000020040000000400000000800000000000000000004000010000000000000000081000800000000000000000000000000000000000000200000000000000004000000800000000100000000000000000000000000001000000000002800000002800400000000000040000000000000000000000080000000000020000000000000000000000001000000000004000000008010000000000000000000",
      "type": "0x2",
      "transactionHash": "0x20f022764311c6070390783d87a8f1a37111d8c9368409a934db00621ce55935",
      "transactionIndex": "0x2",
      "blockHash": "0xb8569b6da15c12707a63e9ef2a2828aaadb0162743d9e1f7823875b80a350e38",
      "blockNumber": "0xb18ce44",
      "gasUsed": "0x51f40",
      "effectiveGasPrice": "0x83b9ec80",
      "from": "0x384f416b0fdeb9b8555128e6901ff3949005bc5d",
      "to": "0x5882bbf230dd2022b2d740e871a8aa9ff4307ac9",
      "contractAddress": null
    }
  ],
  "libraries": [],
  "pending": [],
  "returns": {},
  "timestamp": 1752978308,
  "chain": 1328,
  "commit": "8b204a6"
}