{
  "transactions": [
    {
      "hash": "0x4fa7c3037e999098faa8c00094c44b3d67267ae541e6d11e8ea7dfc07d3d452c",
      "transactionType": "CALL",
      "contractName": null,
      "contractAddress": "0x5512b7dd9b29376ea69a07acdd3a54a0f59a678e",
      "function": "approve(address,uint256)",
      "arguments": [
        "0xa90BdcF36eD99dfb84Ac2EA9bAd911418986a950",
        "115792089237316195423570985008687907853269984665640564039457584007913129639935"
      ],
      "transaction": {
        "from": "0x384f416b0fdeb9b8555128e6901ff3949005bc5d",
        "to": "0x5512b7dd9b29376ea69a07acdd3a54a0f59a678e",
        "gas": "0xfee1",
        "value": "0x0",
        "input": "0x095ea7b3000000000000000000000000a90bdcf36ed99dfb84ac2ea9bad911418986a950ffffffffffffffffffffffffffffffffffffffffffffffffffffffffffffffff",
        "nonce": "0x51",
        "chainId": "0x530"
      },
      "additionalContracts": [],
      "isFixedGasLimit": false
    },
    {
      "hash": "0xf54d28f706b9eb8da4a14fef0c7da5d91a2c58ade7d34526ec55d5a01e613c08",
      "transactionType": "CALL",
      "contractName": null,
      "contractAddress": "0xa90bdcf36ed99dfb84ac2ea9bad911418986a950",
      "function": "approve(address,address,uint160,uint48)",
      "arguments": [
        "0x5512b7Dd9b29376eA69a07AcDd3a54A0F59A678E",
        "0x30190927a70ac7f6D4FD228BA428dA7dBBdA7933",
        "1461501637330902918203684832716283019655932542975",
        "281474976710655"
      ],
      "transaction": {
        "from": "0x384f416b0fdeb9b8555128e6901ff3949005bc5d",
        "to": "0xa90bdcf36ed99dfb84ac2ea9bad911418986a950",
        "gas": "0x1112d",
        "value": "0x0",
        "input": "0x87517c450000000000000000000000005512b7dd9b29376ea69a07acdd3a54a0f59a678e00000000000000000000000030190927a70ac7f6d4fd228ba428da7dbbda7933000000000000000000000000ffffffffffffffffffffffffffffffffffffffff0000000000000000000000000000000000000000000000000000ffffffffffff",
        "nonce": "0x52",
        "chainId": "0x530"
      },
      "additionalContracts": [],
      "isFixedGasLimit": false
    },
    {
      "hash": "0x9d58552e2208820caacc25629a139feb306aff2245bfc5348530a2244f1069ad",
      "transactionType": "CALL",
      "contractName": null,
      "contractAddress": "0xfef007c37968a6a0924e12132c833537a4a7ff7a",
      "function": "approve(address,uint256)",
      "arguments": [
        "0xa90BdcF36eD99dfb84Ac2EA9bAd911418986a950",
        "115792089237316195423570985008687907853269984665640564039457584007913129639935"
      ],
      "transaction": {
        "from": "0x384f416b0fdeb9b8555128e6901ff3949005bc5d",
        "to": "0xfef007c37968a6a0924e12132c833537a4a7ff7a",
        "gas": "0xfee1",
        "value": "0x0",
        "input": "0x095ea7b3000000000000000000000000a90bdcf36ed99dfb84ac2ea9bad911418986a950ffffffffffffffffffffffffffffffffffffffffffffffffffffffffffffffff",
        "nonce": "0x53",
        "chainId": "0x530"
      },
      "additionalContracts": [],
      "isFixedGasLimit": false
    },
    {
      "hash": "0xf5c71621f01c8bcb5a5de954bc3f5db7816d56df963dbd2f5e7fc7c5a530783a",
      "transactionType": "CALL",
      "contractName": null,
      "contractAddress": "0xa90bdcf36ed99dfb84ac2ea9bad911418986a950",
      "function": "approve(address,address,uint160,uint48)",
      "arguments": [
        "0xfef007c37968A6A0924e12132C833537a4a7Ff7a",
        "0x30190927a70ac7f6D4FD228BA428dA7dBBdA7933",
        "1461501637330902918203684832716283019655932542975",
        "281474976710655"
      ],
      "transaction": {
        "from": "0x384f416b0fdeb9b8555128e6901ff3949005bc5d",
        "to": "0xa90bdcf36ed99dfb84ac2ea9bad911418986a950",
        "gas": "0x1112d",
        "value": "0x0",
        "input": "0x87517c45000000000000000000000000fef007c37968a6a0924e12132c833537a4a7ff7a00000000000000000000000030190927a70ac7f6d4fd228ba428da7dbbda7933000000000000000000000000ffffffffffffffffffffffffffffffffffffffff0000000000000000000000000000000000000000000000000000ffffffffffff",
        "nonce": "0x54",
        "chainId": "0x530"
      },
      "additionalContracts": [],
      "isFixedGasLimit": false
    },
    {
      "hash": "0x885fbf6b2f57bbaf677d6b6f4ac548afe45c147ee0748ef56f2b5382a1fe9692",
      "transactionType": "CALL",
      "contractName": null,
      "contractAddress": "0x30190927a70ac7f6d4fd228ba428da7dbbda7933",
      "function": "multicall(bytes[])",
      "arguments": [
        "[0xf70204050000000000000000000000005512b7dd9b29376ea69a07acdd3a54a0f59a678e000000000000000000000000fef007c37968a6a0924e12132c833537a4a7ff7a0000000000000000000000000000000000000000000000000000000000001388000000000000000000000000000000000000000000000000000000000000006400000000000000000000000054ce01481cd1994a1b077e178d81351b1220cac0000000000000000000000000000000000000000100000000000000000000000000000000000000000000000000000000000000000000000000000000000000e00000000000000000000000000000000000000000000000000000000000000000, 0xdd46508f000000000000000000000000000000000000000000000000000000000000004000000000000000000000000000000000000000000000000000000000687c680f0000000000000000000000000000000000000000000000000000000000000400000000000000000000000000000000000000000000000000000000000000004000000000000000000000000000000000000000000000000000000000000000800000000000000000000000000000000000000000000000000000000000000004020d14140000000000000000000000000000000000000000000000000000000000000000000000000000000000000000000000000000000000000000000000040000000000000000000000000000000000000000000000000000000000000080000000000000000000000000000000000000000000000000000000000000024000000000000000000000000000000000000000000000000000000000000002a0000000000000000000000000000000000000000000000000000000000000030000000000000000000000000000000000000000000000000000000000000001a00000000000000000000000005512b7dd9b29376ea69a07acdd3a54a0f59a678e000000000000000000000000fef007c37968a6a0924e12132c833537a4a7ff7a0000000000000000000000000000000000000000000000000000000000001388000000000000000000000000000000000000000000000000000000000000006400000000000000000000000054ce01481cd1994a1b077e178d81351b1220cac0fffffffffffffffffffffffffffffffffffffffffffffffffffffffffffedb0800000000000000000000000000000000000000000000000000000000000124f80000000000000000000000000000000000000000000000000e364b50c0bf8e630000000000000000000000000000000000000000000000000de0b6b3a76400010000000000000000000000000000000000000000000000000de0b6b3a7640001000000000000000000000000384f416b0fdeb9b8555128e6901ff3949005bc5d0000000000000000000000000000000000000000000000000000000000000180000000000000000000000000000000000000000000000000000000000000000000000000000000000000000000000000000000000000000000000000000000400000000000000000000000005512b7dd9b29376ea69a07acdd3a54a0f59a678e000000000000000000000000fef007c37968a6a0924e12132c833537a4a7ff7a00000000000000000000000000000000000000000000000000000000000000400000000000000000000000005512b7dd9b29376ea69a07acdd3a54a0f59a678e000000000000000000000000384f416b0fdeb9b8555128e6901ff3949005bc5d0000000000000000000000000000000000000000000000000000000000000040000000000000000000000000fef007c37968a6a0924e12132c833537a4a7ff7a000000000000000000000000384f416b0fdeb9b8555128e6901ff3949005bc5d]"
      ],
      "transaction": {
        "from": "0x384f416b0fdeb9b8555128e6901ff3949005bc5d",
        "to": "0x30190927a70ac7f6d4fd228ba428da7dbbda7933",
        "gas": "0xaf163",
        "value": "0x0",
        "input": "0xac9650d800000000000000000000000000000000000000000000000000000000000000200000000000000000000000000000000000000000000000000000000000000002000000000000000000000000000000000000000000000000000000000000004000000000000000000000000000000000000000000000000000000000000001800000000000000000000000000000000000000000000000000000000000000104f70204050000000000000000000000005512b7dd9b29376ea69a07acdd3a54a0f59a678e000000000000000000000000fef007c37968a6a0924e12132c833537a4a7ff7a0000000000000000000000000000000000000000000000000000000000001388000000000000000000000000000000000000000000000000000000000000006400000000000000000000000054ce01481cd1994a1b077e178d81351b1220cac0000000000000000000000000000000000000000100000000000000000000000000000000000000000000000000000000000000000000000000000000000000e00000000000000000000000000000000000000000000000000000000000000000000000000000000000000000000000000000000000000000000000000000000000000000000000000000000000000000000000000000000000000464dd46508f000000000000000000000000000000000000000000000000000000000000004000000000000000000000000000000000000000000000000000000000687c680f0000000000000000000000000000000000000000000000000000000000000400000000000000000000000000000000000000000000000000000000000000004000000000000000000000000000000000000000000000000000000000000000800000000000000000000000000000000000000000000000000000000000000004020d14140000000000000000000000000000000000000000000000000000000000000000000000000000000000000000000000000000000000000000000000040000000000000000000000000000000000000000000000000000000000000080000000000000000000000000000000000000000000000000000000000000024000000000000000000000000000000000000000000000000000000000000002a0000000000000000000000000000000000000000000000000000000000000030000000000000000000000000000000000000000000000000000000000000001a00000000000000000000000005512b7dd9b29376ea69a07acdd3a54a0f59a678e000000000000000000000000fef007c37968a6a0924e12132c833537a4a7ff7a0000000000000000000000000000000000000000000000000000000000001388000000000000000000000000000000000000000000000000000000000000006400000000000000000000000054ce01481cd1994a1b077e178d81351b1220cac0fffffffffffffffffffffffffffffffffffffffffffffffffffffffffffedb0800000000000000000000000000000000000000000000000000000000000124f80000000000000000000000000000000000000000000000000e364b50c0bf8e630000000000000000000000000000000000000000000000000de0b6b3a76400010000000000000000000000000000000000000000000000000de0b6b3a7640001000000000000000000000000384f416b0fdeb9b8555128e6901ff3949005bc5d0000000000000000000000000000000000000000000000000000000000000180000000000000000000000000000000000000000000000000000000000000000000000000000000000000000000000000000000000000000000000000000000400000000000000000000000005512b7dd9b29376ea69a07acdd3a54a0f59a678e000000000000000000000000fef007c37968a6a0924e12132c833537a4a7ff7a00000000000000000000000000000000000000000000000000000000000000400000000000000000000000005512b7dd9b29376ea69a07acdd3a54a0f59a678e000000000000000000000000384f416b0fdeb9b8555128e6901ff3949005bc5d0000000000000000000000000000000000000000000000000000000000000040000000000000000000000000fef007c37968a6a0924e12132c833537a4a7ff7a000000000000000000000000384f416b0fdeb9b8555128e6901ff3949005bc5d00000000000000000000000000000000000000000000000000000000",
        "nonce": "0x55",
        "chainId": "0x530"
      },
      "additionalContracts": [],
      "isFixedGasLimit": false
    }
  ],
  "receipts": [
    {
      "status": "0x1",
      "cumulativeGasUsed": "0x0",
      "logs": [
        {
          "address": "0x5512b7dd9b29376ea69a07acdd3a54a0f59a678e",
          "topics": [
            "0x8c5be1e5ebec7d5bd14f71427d1e84f3dd0314c0f7b2291e5b200ac8c7c3b925",
            "0x000000000000000000000000384f416b0fdeb9b8555128e6901ff3949005bc5d",
            "0x000000000000000000000000a90bdcf36ed99dfb84ac2ea9bad911418986a950"
          ],
          "data": "0xffffffffffffffffffffffffffffffffffffffffffffffffffffffffffffffff",
          "blockHash": "0xf50c621a386f6908be81203efccf547b1d10217334de131e5819f27343b107b4",
          "blockNumber": "0xb18de9b",
          "transactionHash": "0x4fa7c3037e999098faa8c00094c44b3d67267ae541e6d11e8ea7dfc07d3d452c",
          "transactionIndex": "0x1",
          "logIndex": "0x2",
          "removed": false
        }
      ],
      "logsBloom": "0x00000000000000000000000000000000000000000000000000000000000000000000000000000000000000000000000000000000000000000000000000200000000000000000000000000000000000000000000020000000000000000008000000000000000000000000000000100100000000000000000000000000000000000000000000000000000000000000000000000000000000000000000000000000020000000000000000000000000000000000000000000000001000000000000000000000000000000000000000000000000000100000000000000000000000000010000000000000000000000000000000000000000010000000200000000000",
      "type": "0x2",
      "transactionHash": "0x4fa7c3037e999098faa8c00094c44b3d67267ae541e6d11e8ea7dfc07d3d452c",
      "transactionIndex": "0x1",
      "blockHash": "0xf50c621a386f6908be81203efccf547b1d10217334de131e5819f27343b107b4",
      "blockNumber": "0xb18de9b",
      "gasUsed": "0xb888",
      "effectiveGasPrice": "0x83b9ec80",
      "from": "0x384f416b0fdeb9b8555128e6901ff3949005bc5d",
      "to": "0x5512b7dd9b29376ea69a07acdd3a54a0f59a678e",
      "contractAddress": null
    },
    {
      "status": "0x1",
      "cumulativeGasUsed": "0x0",
      "logs": [
        {
          "address": "0xa90bdcf36ed99dfb84ac2ea9bad911418986a950",
          "topics": [
            "0xda9fa7c1b00402c17d0161b249b1ab8bbec047c5a52207b9c112deffd817036b",
            "0x000000000000000000000000384f416b0fdeb9b8555128e6901ff3949005bc5d",
            "0x0000000000000000000000005512b7dd9b29376ea69a07acdd3a54a0f59a678e",
            "0x00000000000000000000000030190927a70ac7f6d4fd228ba428da7dbbda7933"
          ],
          "data": "0x000000000000000000000000ffffffffffffffffffffffffffffffffffffffff0000000000000000000000000000000000000000000000000000ffffffffffff",
          "blockHash": "0xa2821905228692a14c97ae2f8f6da9cc89abbda2e02b539d31346d70184ca125",
          "blockNumber": "0xb18de9c",
          "transactionHash": "0xf54d28f706b9eb8da4a14fef0c7da5d91a2c58ade7d34526ec55d5a01e613c08",
          "transactionIndex": "0x0",
          "logIndex": "0x0",
          "removed": false
        }
      ],
      "logsBloom": "0x00000000000000000000400000000100000000000000000000000000000002000000000000000000000000000000000000000000000000000000000000200000000000000000000000000000000000000000000000000000000000000000000000000000000020000000000000000000008000000000000000000000000000004020000000000000000000000000000000100000000000000000000000000000000000000000000000000000000000000000000000000200001000080010000000000000000000000000000000000000000000000000000040000000000000000000000000000000000000000000000000000000000010000000000000000000",
      "type": "0x2",
      "transactionHash": "0xf54d28f706b9eb8da4a14fef0c7da5d91a2c58ade7d34526ec55d5a01e613c08",
      "transactionIndex": "0x0",
      "blockHash": "0xa2821905228692a14c97ae2f8f6da9cc89abbda2e02b539d31346d70184ca125",
      "blockNumber": "0xb18de9c",
      "gasUsed": "0xbaca",
      "effectiveGasPrice": "0x83b9ec80",
      "from": "0x384f416b0fdeb9b8555128e6901ff3949005bc5d",
      "to": "0xa90bdcf36ed99dfb84ac2ea9bad911418986a950",
      "contractAddress": null
    },
    {
      "status": "0x1",
      "cumulativeGasUsed": "0x0",
      "logs": [
        {
          "address": "0xfef007c37968a6a0924e12132c833537a4a7ff7a",
          "topics": [
            "0x8c5be1e5ebec7d5bd14f71427d1e84f3dd0314c0f7b2291e5b200ac8c7c3b925",
            "0x000000000000000000000000384f416b0fdeb9b8555128e6901ff3949005bc5d",
            "0x000000000000000000000000a90bdcf36ed99dfb84ac2ea9bad911418986a950"
          ],
          "data": "0xffffffffffffffffffffffffffffffffffffffffffffffffffffffffffffffff",
          "blockHash": "0x3a488e27579e87e8f70bfc4140e1a7b56c0a4c9e2d762fb9a74e8d4478651fdb",
          "blockNumber": "0xb18de9d",
          "transactionHash": "0x9d58552e2208820caacc25629a139feb306aff2245bfc5348530a2244f1069ad",
          "transactionIndex": "0x1",
          "logIndex": "0x3",
          "removed": false
        }
      ],
      "logsBloom": "0x00000000000000000000000000010000000000000000000000000000000000000000000000000000000000000000000000000000000000000000000800200000000000000000000000000000000000000000000020000000000000000000000000000000000000000000000000000100000000800000000000000000000000000000000000000000000000000000000000000000000000000000000000000000020000000000000000000000000000000000000000000000001000000000000000000000000000000000000000000000000000000000000000000000000000000010000000000000000000000000000000000000000010000000200000000000",
      "type": "0x2",
      "transactionHash": "0x9d58552e2208820caacc25629a139feb306aff2245bfc5348530a2244f1069ad",
      "transactionIndex": "0x1",
      "blockHash": "0x3a488e27579e87e8f70bfc4140e1a7b56c0a4c9e2d762fb9a74e8d4478651fdb",
      "blockNumber": "0xb18de9d",
      "gasUsed": "0xb888",
      "effectiveGasPrice": "0x83b9ec80",
      "from": "0x384f416b0fdeb9b8555128e6901ff3949005bc5d",
      "to": "0xfef007c37968a6a0924e12132c833537a4a7ff7a",
      "contractAddress": null
    },
    {
      "status": "0x1",
      "cumulativeGasUsed": "0x0",
      "logs": [
        {
          "address": "0xa90bdcf36ed99dfb84ac2ea9bad911418986a950",
          "topics": [
            "0xda9fa7c1b00402c17d0161b249b1ab8bbec047c5a52207b9c112deffd817036b",
            "0x000000000000000000000000384f416b0fdeb9b8555128e6901ff3949005bc5d",
            "0x000000000000000000000000fef007c37968a6a0924e12132c833537a4a7ff7a",
            "0x00000000000000000000000030190927a70ac7f6d4fd228ba428da7dbbda7933"
          ],
          "data": "0x000000000000000000000000ffffffffffffffffffffffffffffffffffffffff0000000000000000000000000000000000000000000000000000ffffffffffff",
          "blockHash": "0xbab00207fa5aff5332295934cabaceb7ac5ddafa78616342070d9e9d7e90cbdc",
          "blockNumber": "0xb18de9e",
          "transactionHash": "0xf5c71621f01c8bcb5a5de954bc3f5db7816d56df963dbd2f5e7fc7c5a530783a",
          "transactionIndex": "0x1",
          "logIndex": "0x3",
          "removed": false
        }
      ],
      "logsBloom": "0x00000000000000000000000000000100000000000000000000000000000000000000008000000000000000000000000000000000000000000000000000200000000004000000000000000000000000000000000000000000000000000000000000000000000028000000000000000000008000000000000000000000000000004020000000000000000000000000000000100000000000000000000000000000000000000000000000000000000000000000000000000000001000080010000000000000000000000000000000000000000000000000000040000000000000000000000000000000000000000000000000000000000010000000000000000000",
      "type": "0x2",
      "transactionHash": "0xf5c71621f01c8bcb5a5de954bc3f5db7816d56df963dbd2f5e7fc7c5a530783a",
      "transactionIndex": "0x1",
      "blockHash": "0xbab00207fa5aff5332295934cabaceb7ac5ddafa78616342070d9e9d7e90cbdc",
      "blockNumber": "0xb18de9e",
      "gasUsed": "0xbaca",
      "effectiveGasPrice": "0x83b9ec80",
      "from": "0x384f416b0fdeb9b8555128e6901ff3949005bc5d",
      "to": "0xa90bdcf36ed99dfb84ac2ea9bad911418986a950",
      "contractAddress": null
    },
    {
      "status": "0x1",
      "cumulativeGasUsed": "0x0",
      "logs": [
        {
          "address": "0xe1af8eccf5e46df48953d52bd57005900f3d2753",
          "topics": [
            "0xdd466e674ea557f56295e2d0218a125ea4b4f0f6f3307b95f85e6110838d6438",
            "0x75920e7f3c46a4161c728dcb1afc584c3d151cc7429c6621274d0113c383990f",
            "0x0000000000000000000000005512b7dd9b29376ea69a07acdd3a54a0f59a678e",
            "0x000000000000000000000000fef007c37968a6a0924e12132c833537a4a7ff7a"
          ],
          "data": "0x0000000000000000000000000000000000000000000000000000000000001388000000000000000000000000000000000000000000000000000000000000006400000000000000000000000054ce01481cd1994a1b077e178d81351b1220cac000000000000000000000000000000000000000010000000000000000000000000000000000000000000000000000000000000000000000000000000000000000",
          "blockHash": "0x9b3972c36fb4769a7584172c11caf14881f0cbeab84008f8acf41b5a7dea76d7",
          "blockNumber": "0xb18de9f",
          "transactionHash": "0x885fbf6b2f57bbaf677d6b6f4ac548afe45c147ee0748ef56f2b5382a1fe9692",
          "transactionIndex": "0x0",
          "logIndex": "0x0",
          "removed": false
        },
        {
          "address": "0x30190927a70ac7f6d4fd228ba428da7dbbda7933",
          "topics": [
            "0xddf252ad1be2c89b69c2b068fc378daa952ba7f163c4a11628f55a4df523b3ef",
            "0x0000000000000000000000000000000000000000000000000000000000000000",
            "0x000000000000000000000000384f416b0fdeb9b8555128e6901ff3949005bc5d",
            "0x0000000000000000000000000000000000000000000000000000000000000001"
          ],
          "data": "0x",
          "blockHash": "0x9b3972c36fb4769a7584172c11caf14881f0cbeab84008f8acf41b5a7dea76d7",
          "blockNumber": "0xb18de9f",
          "transactionHash": "0x885fbf6b2f57bbaf677d6b6f4ac548afe45c147ee0748ef56f2b5382a1fe9692",
          "transactionIndex": "0x0",
          "logIndex": "0x1",
          "removed": false
        },
        {
          "address": "0xe1af8eccf5e46df48953d52bd57005900f3d2753",
          "topics": [
            "0xf208f4912782fd25c7f114ca3723a2d5dd6f3bcc3ac8db5af63baa85f711d5ec",
            "0x75920e7f3c46a4161c728dcb1afc584c3d151cc7429c6621274d0113c383990f",
            "0x00000000000000000000000030190927a70ac7f6d4fd228ba428da7dbbda7933"
          ],
          "data": "0xfffffffffffffffffffffffffffffffffffffffffffffffffffffffffffedb0800000000000000000000000000000000000000000000000000000000000124f80000000000000000000000000000000000000000000000000e364b50c0bf8e630000000000000000000000000000000000000000000000000000000000000001",
          "blockHash": "0x9b3972c36fb4769a7584172c11caf14881f0cbeab84008f8acf41b5a7dea76d7",
          "blockNumber": "0xb18de9f",
          "transactionHash": "0x885fbf6b2f57bbaf677d6b6f4ac548afe45c147ee0748ef56f2b5382a1fe9692",
          "transactionIndex": "0x0",
          "logIndex": "0x2",
          "removed": false
        },
        {
          "address": "0x5512b7dd9b29376ea69a07acdd3a54a0f59a678e",
          "topics": [
            "0xddf252ad1be2c89b69c2b068fc378daa952ba7f163c4a11628f55a4df523b3ef",
            "0x000000000000000000000000384f416b0fdeb9b8555128e6901ff3949005bc5d",
            "0x000000000000000000000000e1af8eccf5e46df48953d52bd57005900f3d2753"
          ],
          "data": "0x0000000000000000000000000000000000000000000000000de0b6b3a7640000",
          "blockHash": "0x9b3972c36fb4769a7584172c11caf14881f0cbeab84008f8acf41b5a7dea76d7",
          "blockNumber": "0xb18de9f",
          "transactionHash": "0x885fbf6b2f57bbaf677d6b6f4ac548afe45c147ee0748ef56f2b5382a1fe9692",
          "transactionIndex": "0x0",
          "logIndex": "0x3",
          "removed": false
        },
        {
          "address": "0xfef007c37968a6a0924e12132c833537a4a7ff7a",
          "topics": [
            "0xddf252ad1be2c89b69c2b068fc378daa952ba7f163c4a11628f55a4df523b3ef",
            "0x000000000000000000000000384f416b0fdeb9b8555128e6901ff3949005bc5d",
            "0x000000000000000000000000e1af8eccf5e46df48953d52bd57005900f3d2753"
          ],
          "data": "0x0000000000000000000000000000000000000000000000000de0b6b3a7640000",
          "blockHash": "0x9b3972c36fb4769a7584172c11caf14881f0cbeab84008f8acf41b5a7dea76d7",
          "blockNumber": "0xb18de9f",
          "transactionHash": "0x885fbf6b2f57bbaf677d6b6f4ac548afe45c147ee0748ef56f2b5382a1fe9692",
          "transactionIndex": "0x0",
          "logIndex": "0x4",
          "removed": false
        }
      ],
      "logsBloom": "0x00000000000000000000400001010100000000000000010000001000000002000000008000000000000000000000000000000000000000000000000c00240000000004000000000000000008000100000000000000040000000000010008000000000000820008000000000000100800008000800000000000000010000000000000000001000008000000000000000000100001000000000000000000220000000004000000000000000000000000010000000040000200001000000000200000000002000000000000000000000000000000100000000000000000000060000000000000008000000000000000000004000000000010000000000000000000",
      "type": "0x2",
      "transactionHash": "0x885fbf6b2f57bbaf677d6b6f4ac548afe45c147ee0748ef56f2b5382a1fe9692",
      "transactionIndex": "0x0",
      "blockHash": "0x9b3972c36fb4769a7584172c11caf14881f0cbeab84008f8acf41b5a7dea76d7",
      "blockNumber": "0xb18de9f",
      "gasUsed": "0x7ec28",
      "effectiveGasPrice": "0x83b9ec80",
      "from": "0x384f416b0fdeb9b8555128e6901ff3949005bc5d",
      "to": "0x30190927a70ac7f6d4fd228ba428da7dbbda7933",
      "contractAddress": null
    }
  ],
  "libraries": [],
  "pending": [],
  "returns": {},
  "timestamp": 1752979975,
  "chain": 1328,
  "commit": "8ab2b28"
}