{
  "transactions": [
    {
      "hash": "0x3e93a38ac032dd3244bc2a8bddd1e2daf3e0b4b9dcc153bc28160d0792d94ec9",
      "transactionType": "CALL",
      "contractName": null,
      "contractAddress": "0xbe7d12afee28b307657476399669efe9f9552933",
      "function": "approve(address,uint256)",
      "arguments": [
        "0x8761C94fF0b6959a4b96415D687365c707c42917",
        "115792089237316195423570985008687907853269984665640564039457584007913129639935"
      ],
      "transaction": {
        "from": "0x384f416b0fdeb9b8555128e6901ff3949005bc5d",
        "to": "0xbe7d12afee28b307657476399669efe9f9552933",
        "gas": "0xfee1",
        "value": "0x0",
        "input": "0x095ea7b30000000000000000000000008761c94ff0b6959a4b96415d687365c707c42917ffffffffffffffffffffffffffffffffffffffffffffffffffffffffffffffff",
        "nonce": "0x35",
        "chainId": "0x530"
      },
      "additionalContracts": [],
      "isFixedGasLimit": false
    },
    {
      "hash": "0xc68c0f8ecc6288f6ec59c5a1974e939a9782040295f3e3b7f7eacdd1d64cba07",
      "transactionType": "CALL",
      "contractName": null,
      "contractAddress": "0x8761c94ff0b6959a4b96415d687365c707c42917",
      "function": "approve(address,address,uint160,uint48)",
      "arguments": [
        "0xBE7D12aFee28B307657476399669EFE9f9552933",
        "0x5882BbF230DD2022b2d740E871a8AA9FF4307AC9",
        "1461501637330902918203684832716283019655932542975",
        "281474976710655"
      ],
      "transaction": {
        "from": "0x384f416b0fdeb9b8555128e6901ff3949005bc5d",
        "to": "0x8761c94ff0b6959a4b96415d687365c707c42917",
        "gas": "0x1112d",
        "value": "0x0",
        "input": "0x87517c45000000000000000000000000be7d12afee28b307657476399669efe9f95529330000000000000000000000005882bbf230dd2022b2d740e871a8aa9ff4307ac9000000000000000000000000ffffffffffffffffffffffffffffffffffffffff0000000000000000000000000000000000000000000000000000ffffffffffff",
        "nonce": "0x36",
        "chainId": "0x530"
      },
      "additionalContracts": [],
      "isFixedGasLimit": false
    },
    {
      "hash": "0x4ef931506823e3ff0c82aa7f54ba6c386cda4ae8f0231316198c9205d9dc655c",
      "transactionType": "CALL",
      "contractName": null,
      "contractAddress": "0x27116c0ddd6915ae8307f1ad9b405eff0051b1c0",
      "function": "approve(address,uint256)",
      "arguments": [
        "0x8761C94fF0b6959a4b96415D687365c707c42917",
        "115792089237316195423570985008687907853269984665640564039457584007913129639935"
      ],
      "transaction": {
        "from": "0x384f416b0fdeb9b8555128e6901ff3949005bc5d",
        "to": "0x27116c0ddd6915ae8307f1ad9b405eff0051b1c0",
        "gas": "0xfee1",
        "value": "0x0",
        "input": "0x095ea7b30000000000000000000000008761c94ff0b6959a4b96415d687365c707c42917ffffffffffffffffffffffffffffffffffffffffffffffffffffffffffffffff",
        "nonce": "0x37",
        "chainId": "0x530"
      },
      "additionalContracts": [],
      "isFixedGasLimit": false
    },
    {
      "hash": "0x2170d3c7fbd7c832dc54bb8cc1c9afe44e99d2e6a7de12c6668e8306e248c48f",
      "transactionType": "CALL",
      "contractName": null,
      "contractAddress": "0x8761c94ff0b6959a4b96415d687365c707c42917",
      "function": "approve(address,address,uint160,uint48)",
      "arguments": [
        "0x27116C0ddd6915AE8307f1Ad9B405eFf0051b1C0",
        "0x5882BbF230DD2022b2d740E871a8AA9FF4307AC9",
        "1461501637330902918203684832716283019655932542975",
        "281474976710655"
      ],
      "transaction": {
        "from": "0x384f416b0fdeb9b8555128e6901ff3949005bc5d",
        "to": "0x8761c94ff0b6959a4b96415d687365c707c42917",
        "gas": "0x101ee",
        "value": "0x0",
        "input": "0x87517c4500000000000000000000000027116c0ddd6915ae8307f1ad9b405eff0051b1c00000000000000000000000005882bbf230dd2022b2d740e871a8aa9ff4307ac9000000000000000000000000ffffffffffffffffffffffffffffffffffffffff0000000000000000000000000000000000000000000000000000ffffffffffff",
        "nonce": "0x38",
        "chainId": "0x530"
      },
      "additionalContracts": [],
      "isFixedGasLimit": false
    },
    {
      "hash": "0x81b16f0e4f86c04ad5fd5f24dd986e68bf8ed08cd004f771f3263ca2f20e8dad",
      "transactionType": "CALL",
      "contractName": null,
      "contractAddress": "0x5882bbf230dd2022b2d740e871a8aa9ff4307ac9",
      "function": "multicall(bytes[])",
      "arguments": [
        "[0xf702040500000000000000000000000027116c0ddd6915ae8307f1ad9b405eff0051b1c0000000000000000000000000be7d12afee28b307657476399669efe9f9552933000000000000000000000000000000000000000000000000000000000000138800000000000000000000000000000000000000000000000000000000000000640000000000000000000000004be3cca466fd5aaa714cedbd27bdd30a3203cac0000000000000000000000000000000000000000100000000000000000000000000000000000000000000000000000000000000000000000000000000000000e00000000000000000000000000000000000000000000000000000000000000000, 0xdd46508f000000000000000000000000000000000000000000000000000000000000004000000000000000000000000000000000000000000000000000000000687c617f0000000000000000000000000000000000000000000000000000000000000400000000000000000000000000000000000000000000000000000000000000004000000000000000000000000000000000000000000000000000000000000000800000000000000000000000000000000000000000000000000000000000000004020d14140000000000000000000000000000000000000000000000000000000000000000000000000000000000000000000000000000000000000000000000040000000000000000000000000000000000000000000000000000000000000080000000000000000000000000000000000000000000000000000000000000024000000000000000000000000000000000000000000000000000000000000002a0000000000000000000000000000000000000000000000000000000000000030000000000000000000000000000000000000000000000000000000000000001a000000000000000000000000027116c0ddd6915ae8307f1ad9b405eff0051b1c0000000000000000000000000be7d12afee28b307657476399669efe9f9552933000000000000000000000000000000000000000000000000000000000000138800000000000000000000000000000000000000000000000000000000000000640000000000000000000000004be3cca466fd5aaa714cedbd27bdd30a3203cac0fffffffffffffffffffffffffffffffffffffffffffffffffffffffffffedb0800000000000000000000000000000000000000000000000000000000000124f80000000000000000000000000000000000000000000000000e364b50c0bf8e630000000000000000000000000000000000000000000000000de0b6b3a76400010000000000000000000000000000000000000000000000000de0b6b3a7640001000000000000000000000000384f416b0fdeb9b8555128e6901ff3949005bc5d00000000000000000000000000000000000000000000000000000000000001800000000000000000000000000000000000000000000000000000000000000000000000000000000000000000000000000000000000000000000000000000004000000000000000000000000027116c0ddd6915ae8307f1ad9b405eff0051b1c0000000000000000000000000be7d12afee28b307657476399669efe9f9552933000000000000000000000000000000000000000000000000000000000000004000000000000000000000000027116c0ddd6915ae8307f1ad9b405eff0051b1c0000000000000000000000000384f416b0fdeb9b8555128e6901ff3949005bc5d0000000000000000000000000000000000000000000000000000000000000040000000000000000000000000be7d12afee28b307657476399669efe9f9552933000000000000000000000000384f416b0fdeb9b8555128e6901ff3949005bc5d]"
      ],
      "transaction": {
        "from": "0x384f416b0fdeb9b8555128e6901ff3949005bc5d",
        "to": "0x5882bbf230dd2022b2d740e871a8aa9ff4307ac9",
        "gas": "0xaf121",
        "value": "0x0",
        "input": "0xac9650d800000000000000000000000000000000000000000000000000000000000000200000000000000000000000000000000000000000000000000000000000000002000000000000000000000000000000000000000000000000000000000000004000000000000000000000000000000000000000000000000000000000000001800000000000000000000000000000000000000000000000000000000000000104f702040500000000000000000000000027116c0ddd6915ae8307f1ad9b405eff0051b1c0000000000000000000000000be7d12afee28b307657476399669efe9f9552933000000000000000000000000000000000000000000000000000000000000138800000000000000000000000000000000000000000000000000000000000000640000000000000000000000004be3cca466fd5aaa714cedbd27bdd30a3203cac0000000000000000000000000000000000000000100000000000000000000000000000000000000000000000000000000000000000000000000000000000000e00000000000000000000000000000000000000000000000000000000000000000000000000000000000000000000000000000000000000000000000000000000000000000000000000000000000000000000000000000000000000464dd46508f000000000000000000000000000000000000000000000000000000000000004000000000000000000000000000000000000000000000000000000000687c617f0000000000000000000000000000000000000000000000000000000000000400000000000000000000000000000000000000000000000000000000000000004000000000000000000000000000000000000000000000000000000000000000800000000000000000000000000000000000000000000000000000000000000004020d14140000000000000000000000000000000000000000000000000000000000000000000000000000000000000000000000000000000000000000000000040000000000000000000000000000000000000000000000000000000000000080000000000000000000000000000000000000000000000000000000000000024000000000000000000000000000000000000000000000000000000000000002a0000000000000000000000000000000000000000000000000000000000000030000000000000000000000000000000000000000000000000000000000000001a000000000000000000000000027116c0ddd6915ae8307f1ad9b405eff0051b1c0000000000000000000000000be7d12afee28b307657476399669efe9f9552933000000000000000000000000000000000000000000000000000000000000138800000000000000000000000000000000000000000000000000000000000000640000000000000000000000004be3cca466fd5aaa714cedbd27bdd30a3203cac0fffffffffffffffffffffffffffffffffffffffffffffffffffffffffffedb0800000000000000000000000000000000000000000000000000000000000124f80000000000000000000000000000000000000000000000000e364b50c0bf8e630000000000000000000000000000000000000000000000000de0b6b3a76400010000000000000000000000000000000000000000000000000de0b6b3a7640001000000000000000000000000384f416b0fdeb9b8555128e6901ff3949005bc5d00000000000000000000000000000000000000000000000000000000000001800000000000000000000000000000000000000000000000000000000000000000000000000000000000000000000000000000000000000000000000000000004000000000000000000000000027116c0ddd6915ae8307f1ad9b405eff0051b1c0000000000000000000000000be7d12afee28b307657476399669efe9f9552933000000000000000000000000000000000000000000000000000000000000004000000000000000000000000027116c0ddd6915ae8307f1ad9b405eff0051b1c0000000000000000000000000384f416b0fdeb9b8555128e6901ff3949005bc5d0000000000000000000000000000000000000000000000000000000000000040000000000000000000000000be7d12afee28b307657476399669efe9f9552933000000000000000000000000384f416b0fdeb9b8555128e6901ff3949005bc5d00000000000000000000000000000000000000000000000000000000",
        "nonce": "0x39",
        "chainId": "0x530"
      },
      "additionalContracts": [],
      "isFixedGasLimit": false
    }
  ],
  "receipts": [
    {
      "status": "0x1",
      "cumulativeGasUsed": "0x0",
      "logs": [
        {
          "address": "0xbe7d12afee28b307657476399669efe9f9552933",
          "topics": [
            "0x8c5be1e5ebec7d5bd14f71427d1e84f3dd0314c0f7b2291e5b200ac8c7c3b925",
            "0x000000000000000000000000384f416b0fdeb9b8555128e6901ff3949005bc5d",
            "0x0000000000000000000000008761c94ff0b6959a4b96415d687365c707c42917"
          ],
          "data": "0xffffffffffffffffffffffffffffffffffffffffffffffffffffffffffffffff",
          "blockHash": "0xc6a4b502b33d2822ab4cdf522515ac0346e56abc83fe9fe07c75a3b46c498d91",
          "blockNumber": "0xb18ce1c",
          "transactionHash": "0x3e93a38ac032dd3244bc2a8bddd1e2daf3e0b4b9dcc153bc28160d0792d94ec9",
          "transactionIndex": "0x3",
          "logIndex": "0x6",
          "removed": false
        }
      ],
      "logsBloom": "0x00000000000000000000000000000000000000000000000000000000000000000000020000000000000000000000000000000000000000000000000000200000000000000000000000000000000000000000000000000000010000000000000000000000000000000000000000000000000000000000000000000000000000000000000000000000000000000000000000000000000000000000000000000000060000000000000000000000000000000000010000000000001000000000002000000000000000000000000000000000000000000000000080000000000000000010000000000000000000000000000000000000000010000000000000000000",
      "type": "0x2",
      "transactionHash": "0x3e93a38ac032dd3244bc2a8bddd1e2daf3e0b4b9dcc153bc28160d0792d94ec9",
      "transactionIndex": "0x3",
      "blockHash": "0xc6a4b502b33d2822ab4cdf522515ac0346e56abc83fe9fe07c75a3b46c498d91",
      "blockNumber": "0xb18ce1c",
      "gasUsed": "0xb888",
      "effectiveGasPrice": "0x7d2b7500",
      "from": "0x384f416b0fdeb9b8555128e6901ff3949005bc5d",
      "to": "0xbe7d12afee28b307657476399669efe9f9552933",
      "contractAddress": null
    },
    {
      "status": "0x1",
      "cumulativeGasUsed": "0x0",
      "logs": [
        {
          "address": "0x8761c94ff0b6959a4b96415d687365c707c42917",
          "topics": [
            "0xda9fa7c1b00402c17d0161b249b1ab8bbec047c5a52207b9c112deffd817036b",
            "0x000000000000000000000000384f416b0fdeb9b8555128e6901ff3949005bc5d",
            "0x000000000000000000000000be7d12afee28b307657476399669efe9f9552933",
            "0x0000000000000000000000005882bbf230dd2022b2d740e871a8aa9ff4307ac9"
          ],
          "data": "0x000000000000000000000000ffffffffffffffffffffffffffffffffffffffff0000000000000000000000000000000000000000000000000000ffffffffffff",
          "blockHash": "0xb17502d2f6946ecd5956a506027afecb10491db90da14b361bd2df13b5906b36",
          "blockNumber": "0xb18ce1d",
          "transactionHash": "0xc68c0f8ecc6288f6ec59c5a1974e939a9782040295f3e3b7f7eacdd1d64cba07",
          "transactionIndex": "0x1",
          "logIndex": "0x2",
          "removed": false
        }
      ],
      "logsBloom": "0x00000000000000000000000000000000000000000000000000000000000100000000000010004000000000000000000000000000000000000020100000200000000000000000000000000000000000000000000000000000000000000000000000000000000400000000400000000000000000000000000000000000000000000020000000000000000000000000000080000000000000000000000000000000000000000000000000000000000000000000000000000000001000080000000000000000000000000000000000000000000000000000000040000000000000000001000000000000000000000000000000000000000010000000000000000000",
      "type": "0x2",
      "transactionHash": "0xc68c0f8ecc6288f6ec59c5a1974e939a9782040295f3e3b7f7eacdd1d64cba07",
      "transactionIndex": "0x1",
      "blockHash": "0xb17502d2f6946ecd5956a506027afecb10491db90da14b361bd2df13b5906b36",
      "blockNumber": "0xb18ce1d",
      "gasUsed": "0xbaca",
      "effectiveGasPrice": "0x7d2b7500",
      "from": "0x384f416b0fdeb9b8555128e6901ff3949005bc5d",
      "to": "0x8761c94ff0b6959a4b96415d687365c707c42917",
      "contractAddress": null
    },
    {
      "status": "0x1",
      "cumulativeGasUsed": "0x0",
      "logs": [
        {
          "address": "0x27116c0ddd6915ae8307f1ad9b405eff0051b1c0",
          "topics": [
            "0x8c5be1e5ebec7d5bd14f71427d1e84f3dd0314c0f7b2291e5b200ac8c7c3b925",
            "0x000000000000000000000000384f416b0fdeb9b8555128e6901ff3949005bc5d",
            "0x0000000000000000000000008761c94ff0b6959a4b96415d687365c707c42917"
          ],
          "data": "0xffffffffffffffffffffffffffffffffffffffffffffffffffffffffffffffff",
          "blockHash": "0x55ef147d33efda765b454ee2d4de76b0e1367e91351dae7f56a8b459ccc75427",
          "blockNumber": "0xb18ce1e",
          "transactionHash": "0x4ef931506823e3ff0c82aa7f54ba6c386cda4ae8f0231316198c9205d9dc655c",
          "transactionIndex": "0x2",
          "logIndex": "0x6",
          "removed": false
        }
      ],
      "logsBloom": "0x00000000000000000000000000000000000000000000000000000000000000000000020000000000000000000000000000000000000000000000000000200000000000000000000000000040000000000000000000000000000000000000000000000000000000000000000000000000000000000000000000000000000000000000000000000000000000000000000000000000000000000000200000000000060000000000800000000000000000000000010000000000001000000000000000000000000000000000000000000000000000000000000000000000000000000010000000000000000000000000000000000000000010000000000000000000",
      "type": "0x2",
      "transactionHash": "0x4ef931506823e3ff0c82aa7f54ba6c386cda4ae8f0231316198c9205d9dc655c",
      "transactionIndex": "0x2",
      "blockHash": "0x55ef147d33efda765b454ee2d4de76b0e1367e91351dae7f56a8b459ccc75427",
      "blockNumber": "0xb18ce1e",
      "gasUsed": "0xb888",
      "effectiveGasPrice": "0x7d2b7500",
      "from": "0x384f416b0fdeb9b8555128e6901ff3949005bc5d",
      "to": "0x27116c0ddd6915ae8307f1ad9b405eff0051b1c0",
      "contractAddress": null
    },
    {
      "status": "0x1",
      "cumulativeGasUsed": "0x0",
      "logs": [
        {
          "address": "0x8761c94ff0b6959a4b96415d687365c707c42917",
          "topics": [
            "0xda9fa7c1b00402c17d0161b249b1ab8bbec047c5a52207b9c112deffd817036b",
            "0x000000000000000000000000384f416b0fdeb9b8555128e6901ff3949005bc5d",
            "0x00000000000000000000000027116c0ddd6915ae8307f1ad9b405eff0051b1c0",
            "0x0000000000000000000000005882bbf230dd2022b2d740e871a8aa9ff4307ac9"
          ],
          "data": "0x000000000000000000000000ffffffffffffffffffffffffffffffffffffffff0000000000000000000000000000000000000000000000000000ffffffffffff",
          "blockHash": "0x73b2cc2a786c344560aa8682369443038b2ca0718cadbca232fbf08c580f474b",
          "blockNumber": "0xb18ce1f",
          "transactionHash": "0x2170d3c7fbd7c832dc54bb8cc1c9afe44e99d2e6a7de12c6668e8306e248c48f",
          "transactionIndex": "0x2",
          "logIndex": "0x4",
          "removed": false
        }
      ],
      "logsBloom": "0x00000000000000000000000000000000000000000000000000000000000000000000000010004000000000000000000000000000000000000000100000200000000000000000000000000000000000000000000000000000000000000000000000000000000000000000400000000000000000000000000010000000000000000020000000000000000000000000000080000000000000000000000000000000000000000000000000000000000000000000000000000008001000080000002000000000000000000000000000000000000000000000000040000000000000000001000000000000000000000000000000000000000010000000000000000000",
      "type": "0x2",
      "transactionHash": "0x2170d3c7fbd7c832dc54bb8cc1c9afe44e99d2e6a7de12c6668e8306e248c48f",
      "transactionIndex": "0x2",
      "blockHash": "0x73b2cc2a786c344560aa8682369443038b2ca0718cadbca232fbf08c580f474b",
      "blockNumber": "0xb18ce1f",
      "gasUsed": "0xbabe",
      "effectiveGasPrice": "0x7d2b7500",
      "from": "0x384f416b0fdeb9b8555128e6901ff3949005bc5d",
      "to": "0x8761c94ff0b6959a4b96415d687365c707c42917",
      "contractAddress": null
    },
    {
      "status": "0x1",
      "cumulativeGasUsed": "0x0",
      "logs": [
        {
          "address": "0x0bf5908bdf1d352a293e40276b3fe35543639588",
          "topics": [
            "0xdd466e674ea557f56295e2d0218a125ea4b4f0f6f3307b95f85e6110838d6438",
            "0x46c15e52b130d82cb3898ac86d5443998dd8f0ccea37fc2f01753c874c46fb8f",
            "0x00000000000000000000000027116c0ddd6915ae8307f1ad9b405eff0051b1c0",
            "0x000000000000000000000000be7d12afee28b307657476399669efe9f9552933"
          ],
          "data": "0x000000000000000000000000000000000000000000000000000000000000138800000000000000000000000000000000000000000000000000000000000000640000000000000000000000004be3cca466fd5aaa714cedbd27bdd30a3203cac000000000000000000000000000000000000000010000000000000000000000000000000000000000000000000000000000000000000000000000000000000000",
          "blockHash": "0xd5d7e8d6bdbc3d7aeb919285f96dfaba3d1a776e2bcf3c505dfbddcd16baca25",
          "blockNumber": "0xb18ce21",
          "transactionHash": "0x81b16f0e4f86c04ad5fd5f24dd986e68bf8ed08cd004f771f3263ca2f20e8dad",
          "transactionIndex": "0x2",
          "logIndex": "0x6",
          "removed": false
        },
        {
          "address": "0x5882bbf230dd2022b2d740e871a8aa9ff4307ac9",
          "topics": [
            "0xddf252ad1be2c89b69c2b068fc378daa952ba7f163c4a11628f55a4df523b3ef",
            "0x0000000000000000000000000000000000000000000000000000000000000000",
            "0x000000000000000000000000384f416b0fdeb9b8555128e6901ff3949005bc5d",
            "0x0000000000000000000000000000000000000000000000000000000000000001"
          ],
          "data": "0x",
          "blockHash": "0xd5d7e8d6bdbc3d7aeb919285f96dfaba3d1a776e2bcf3c505dfbddcd16baca25",
          "blockNumber": "0xb18ce21",
          "transactionHash": "0x81b16f0e4f86c04ad5fd5f24dd986e68bf8ed08cd004f771f3263ca2f20e8dad",
          "transactionIndex": "0x2",
          "logIndex": "0x7",
          "removed": false
        },
        {
          "address": "0x0bf5908bdf1d352a293e40276b3fe35543639588",
          "topics": [
            "0xf208f4912782fd25c7f114ca3723a2d5dd6f3bcc3ac8db5af63baa85f711d5ec",
            "0x46c15e52b130d82cb3898ac86d5443998dd8f0ccea37fc2f01753c874c46fb8f",
            "0x0000000000000000000000005882bbf230dd2022b2d740e871a8aa9ff4307ac9"
          ],
          "data": "0xfffffffffffffffffffffffffffffffffffffffffffffffffffffffffffedb0800000000000000000000000000000000000000000000000000000000000124f80000000000000000000000000000000000000000000000000e364b50c0bf8e630000000000000000000000000000000000000000000000000000000000000001",
          "blockHash": "0xd5d7e8d6bdbc3d7aeb919285f96dfaba3d1a776e2bcf3c505dfbddcd16baca25",
          "blockNumber": "0xb18ce21",
          "transactionHash": "0x81b16f0e4f86c04ad5fd5f24dd986e68bf8ed08cd004f771f3263ca2f20e8dad",
          "transactionIndex": "0x2",
          "logIndex": "0x8",
          "removed": false
        },
        {
          "address": "0x27116c0ddd6915ae8307f1ad9b405eff0051b1c0",
          "topics": [
            "0xddf252ad1be2c89b69c2b068fc378daa952ba7f163c4a11628f55a4df523b3ef",
            "0x000000000000000000000000384f416b0fdeb9b8555128e6901ff3949005bc5d",
            "0x0000000000000000000000000bf5908bdf1d352a293e40276b3fe35543639588"
          ],
          "data": "0x0000000000000000000000000000000000000000000000000de0b6b3a7640000",
          "blockHash": "0xd5d7e8d6bdbc3d7aeb919285f96dfaba3d1a776e2bcf3c505dfbddcd16baca25",
          "blockNumber": "0xb18ce21",
          "transactionHash": "0x81b16f0e4f86c04ad5fd5f24dd986e68bf8ed08cd004f771f3263ca2f20e8dad",
          "transactionIndex": "0x2",
          "logIndex": "0x9",
          "removed": false
        },
        {
          "address": "0xbe7d12afee28b307657476399669efe9f9552933",
          "topics": [
            "0xddf252ad1be2c89b69c2b068fc378daa952ba7f163c4a11628f55a4df523b3ef",
            "0x000000000000000000000000384f416b0fdeb9b8555128e6901ff3949005bc5d",
            "0x0000000000000000000000000bf5908bdf1d352a293e40276b3fe35543639588"
          ],
          "data": "0x0000000000000000000000000000000000000000000000000de0b6b3a7640000",
          "blockHash": "0xd5d7e8d6bdbc3d7aeb919285f96dfaba3d1a776e2bcf3c505dfbddcd16baca25",
          "blockNumber": "0xb18ce21",
          "transactionHash": "0x81b16f0e4f86c04ad5fd5f24dd986e68bf8ed08cd004f771f3263ca2f20e8dad",
          "transactionIndex": "0x2",
          "logIndex": "0xa",
          "removed": false
        }
      ],
      "logsBloom": "0x00000000000000000000000000000000000000000000000000000000000104000000000010004000000000000000000000000000000000000020000020240000000000000000000000000048000000000000000000040000010000000000000000004000020440000000400000000800000000000000000014000010000000000000000081000808000000000000000000000001000000000000200000200000000004000000800000000000000000000000000000000008001000000000002800000002800400000000000040000000000000000000000080000000000060000000000000000000000001000000000004000000000010000000000000000000",
      "type": "0x2",
      "transactionHash": "0x81b16f0e4f86c04ad5fd5f24dd986e68bf8ed08cd004f771f3263ca2f20e8dad",
      "transactionIndex": "0x2",
      "blockHash": "0xd5d7e8d6bdbc3d7aeb919285f96dfaba3d1a776e2bcf3c505dfbddcd16baca25",
      "blockNumber": "0xb18ce21",
      "gasUsed": "0x7ebf8",
      "effectiveGasPrice": "0x7d2b7500",
      "from": "0x384f416b0fdeb9b8555128e6901ff3949005bc5d",
      "to": "0x5882bbf230dd2022b2d740e871a8aa9ff4307ac9",
      "contractAddress": null
    }
  ],
  "libraries": [],
  "pending": [],
  "returns": {},
  "timestamp": 1752978296,
  "chain": 1328,
  "commit": "8b204a6"
}