{
  "transactions": [
    {
      "hash": "0xfd74e1c436945fda833d6d3081e94250beed567fe9717940a60525e8c874fd0d",
      "transactionType": "CALL",
      "contractName": null,
      "contractAddress": "0x3340941380f515741fd81054b1f47264f85ecf7d",
      "function": "approve(address,uint256)",
      "arguments": [
        "0x3Bf032ce8D9FBda0bc89932BFC87d8Fa3174Faa8",
        "115792089237316195423570985008687907853269984665640564039457584007913129639935"
      ],
      "transaction": {
        "from": "0x384f416b0fdeb9b8555128e6901ff3949005bc5d",
        "to": "0x3340941380f515741fd81054b1f47264f85ecf7d",
        "gas": "0xfee1",
        "value": "0x0",
        "input": "0x095ea7b30000000000000000000000003bf032ce8d9fbda0bc89932bfc87d8fa3174faa8ffffffffffffffffffffffffffffffffffffffffffffffffffffffffffffffff",
        "nonce": "0x16",
        "chainId": "0x530"
      },
      "additionalContracts": [],
      "isFixedGasLimit": false
    },
    {
      "hash": "0x6302e2b574ca4aaee80e0b1e7754ac5776e47cb0cca4525f454e6858ca19a9cc",
      "transactionType": "CALL",
      "contractName": null,
      "contractAddress": "0x486c5e15b33f550d0c7ee44d58b6c25d91d37024",
      "function": "approve(address,uint256)",
      "arguments": [
        "0x3Bf032ce8D9FBda0bc89932BFC87d8Fa3174Faa8",
        "115792089237316195423570985008687907853269984665640564039457584007913129639935"
      ],
      "transaction": {
        "from": "0x384f416b0fdeb9b8555128e6901ff3949005bc5d",
        "to": "0x486c5e15b33f550d0c7ee44d58b6c25d91d37024",
        "gas": "0xfee1",
        "value": "0x0",
        "input": "0x095ea7b30000000000000000000000003bf032ce8d9fbda0bc89932bfc87d8fa3174faa8ffffffffffffffffffffffffffffffffffffffffffffffffffffffffffffffff",
        "nonce": "0x17",
        "chainId": "0x530"
      },
      "additionalContracts": [],
      "isFixedGasLimit": false
    },
    {
      "hash": "0xa5f3279f0c4f2ca94002fa6e53aecd7eb205065541448584c7f8e48375b4b75e",
      "transactionType": "CALL",
      "contractName": null,
      "contractAddress": "0x3bf032ce8d9fbda0bc89932bfc87d8fa3174faa8",
      "function": "swapExactTokensForTokens(uint256,uint256,bool,(address,address,uint24,int24,address),bytes,address,uint256)",
      "arguments": [
        "1000000000000000000",
        "0",
        "true",
        "(0x3340941380F515741FD81054b1f47264F85ecf7D, 0x486c5e15B33f550D0c7eE44D58b6c25D91d37024, 5000, 100, 0xFBac1016b761C47413F611439B619ae4F0528Ac0)",
        "0x",
        "0x384f416b0fDeB9B8555128e6901FF3949005BC5d",
        "1752975271"
      ],
      "transaction": {
        "from": "0x384f416b0fdeb9b8555128e6901ff3949005bc5d",
        "to": "0x3bf032ce8d9fbda0bc89932bfc87d8fa3174faa8",
        "gas": "0x3e806",
        "value": "0x0",
        "input": "0xb1a0d5710000000000000000000000000000000000000000000000000de0b6b3a7640000000000000000000000000000000000000000000000000000000000000000000000000000000000000000000000000000000000000000000000000000000000010000000000000000000000003340941380f515741fd81054b1f47264f85ecf7d000000000000000000000000486c5e15b33f550d0c7ee44d58b6c25d91d3702400000000000000000000000000000000000000000000000000000000000013880000000000000000000000000000000000000000000000000000000000000064000000000000000000000000fbac1016b761c47413f611439b619ae4f0528ac00000000000000000000000000000000000000000000000000000000000000160000000000000000000000000384f416b0fdeb9b8555128e6901ff3949005bc5d00000000000000000000000000000000000000000000000000000000687c47a70000000000000000000000000000000000000000000000000000000000000000",
        "nonce": "0x18",
        "chainId": "0x530"
      },
      "additionalContracts": [],
      "isFixedGasLimit": false
    }
  ],
  "receipts": [
    {
      "status": "0x1",
      "cumulativeGasUsed": "0x0",
      "logs": [
        {
          "address": "0x3340941380f515741fd81054b1f47264f85ecf7d",
          "topics": [
            "0x8c5be1e5ebec7d5bd14f71427d1e84f3dd0314c0f7b2291e5b200ac8c7c3b925",
            "0x000000000000000000000000384f416b0fdeb9b8555128e6901ff3949005bc5d",
            "0x0000000000000000000000003bf032ce8d9fbda0bc89932bfc87d8fa3174faa8"
          ],
          "data": "0xffffffffffffffffffffffffffffffffffffffffffffffffffffffffffffffff",
          "blockHash": "0x80900970b4164dacf80c60361e433674bd3bc968683d76b5a51e267c2cdec916",
          "blockNumber": "0xb18ad7e",
          "transactionHash": "0xfd74e1c436945fda833d6d3081e94250beed567fe9717940a60525e8c874fd0d",
          "transactionIndex": "0x1",
          "logIndex": "0x3",
          "removed": false
        }
      ],
      "logsBloom": "0x00000000000000000000000000000000000000000000000000000000000000000000008000004000000000000000000000000000000000000000000000200000000000000000000000000000000000000000000000000000000000000000000000000000000000000400000000000000000000000000000000000000000000000000000000000000000000008000000000000000000000000000000000000000020000000000000000000000000000000000000000000000001000000000000000000000400000000000000000000000000000000000000000000000000400000010000000000000000000000000000000000000000010000000000000000000",
      "type": "0x2",
      "transactionHash": "0xfd74e1c436945fda833d6d3081e94250beed567fe9717940a60525e8c874fd0d",
      "transactionIndex": "0x1",
      "blockHash": "0x80900970b4164dacf80c60361e433674bd3bc968683d76b5a51e267c2cdec916",
      "blockNumber": "0xb18ad7e",
      "gasUsed": "0xb888",
      "effectiveGasPrice": "0x7d2b7500",
      "from": "0x384f416b0fdeb9b8555128e6901ff3949005bc5d",
      "to": "0x3340941380f515741fd81054b1f47264f85ecf7d",
      "contractAddress": null
    },
    {
      "status": "0x1",
      "cumulativeGasUsed": "0x0",
      "logs": [
        {
          "address": "0x486c5e15b33f550d0c7ee44d58b6c25d91d37024",
          "topics": [
            "0x8c5be1e5ebec7d5bd14f71427d1e84f3dd0314c0f7b2291e5b200ac8c7c3b925",
            "0x000000000000000000000000384f416b0fdeb9b8555128e6901ff3949005bc5d",
            "0x0000000000000000000000003bf032ce8d9fbda0bc89932bfc87d8fa3174faa8"
          ],
          "data": "0xffffffffffffffffffffffffffffffffffffffffffffffffffffffffffffffff",
          "blockHash": "0x48dc598b1dee6bc38b433d43c5c54c34e6e6d18884d128e45f66490b18023a94",
          "blockNumber": "0xb18ad80",
          "transactionHash": "0x6302e2b574ca4aaee80e0b1e7754ac5776e47cb0cca4525f454e6858ca19a9cc",
          "transactionIndex": "0x5",
          "logIndex": "0xf",
          "removed": false
        }
      ],
      "logsBloom": "0x00000000000000040000000000000000000000000000000000000000000000000000008000004000000000000000000000000000000000000000000000200000000000000000000000000000000000000000000000000000000000000000000000000000000000000800000000000000000000000000000000000000000000000000000000000000000000000000000000000000000000000000000000000000020000000000000000000000000000000000000000000000001000000000000000000000400000000000000000000000000000000000000000000000000000000010000000000004000000000000000000000000000010000000000000000000",
      "type": "0x2",
      "transactionHash": "0x6302e2b574ca4aaee80e0b1e7754ac5776e47cb0cca4525f454e6858ca19a9cc",
      "transactionIndex": "0x5",
      "blockHash": "0x48dc598b1dee6bc38b433d43c5c54c34e6e6d18884d128e45f66490b18023a94",
      "blockNumber": "0xb18ad80",
      "gasUsed": "0xb888",
      "effectiveGasPrice": "0x7d2b7500",
      "from": "0x384f416b0fdeb9b8555128e6901ff3949005bc5d",
      "to": "0x486c5e15b33f550d0c7ee44d58b6c25d91d37024",
      "contractAddress": null
    },
    {
      "status": "0x1",
      "cumulativeGasUsed": "0x0",
      "logs": [
        {
          "address": "0xabe535b9e243686b98874889512cc52e30465900",
          "topics": [
            "0x40e9cecb9f5f1f1c5b9c97dec2917b7ee92e57ba5563708daca94dd84ad7112f",
            "0xb6794dccb58bd6f4c20f77bf9acad056d4c63bf54c353c644a0399280f8c05d6",
            "0x0000000000000000000000003bf032ce8d9fbda0bc89932bfc87d8fa3174faa8"
          ],
          "data": "0xfffffffffffffffffffffffffffffffffffffffffffffffff21f494c589c000000000000000000000000000000000000000000000000000009448ce40543e6680000000000000000000000000000000000000000abd1c20ad8432c0a7875c9de0000000000000000000000000000000000000000000000001c2f1d44b5460790ffffffffffffffffffffffffffffffffffffffffffffffffffffffffffffe0d80000000000000000000000000000000000000000000000000000000000001388",
          "blockHash": "0x84e3f6abcd647ad91c247406d90a20f801c5854a5a94a7aab5c31fc4859d751e",
          "blockNumber": "0xb18ad81",
          "transactionHash": "0xa5f3279f0c4f2ca94002fa6e53aecd7eb205065541448584c7f8e48375b4b75e",
          "transactionIndex": "0x1",
          "logIndex": "0x2",
          "removed": false
        },
        {
          "address": "0x3340941380f515741fd81054b1f47264f85ecf7d",
          "topics": [
            "0xddf252ad1be2c89b69c2b068fc378daa952ba7f163c4a11628f55a4df523b3ef",
            "0x000000000000000000000000384f416b0fdeb9b8555128e6901ff3949005bc5d",
            "0x000000000000000000000000abe535b9e243686b98874889512cc52e30465900"
          ],
          "data": "0x0000000000000000000000000000000000000000000000000de0b6b3a7640000",
          "blockHash": "0x84e3f6abcd647ad91c247406d90a20f801c5854a5a94a7aab5c31fc4859d751e",
          "blockNumber": "0xb18ad81",
          "transactionHash": "0xa5f3279f0c4f2ca94002fa6e53aecd7eb205065541448584c7f8e48375b4b75e",
          "transactionIndex": "0x1",
          "logIndex": "0x3",
          "removed": false
        },
        {
          "address": "0x486c5e15b33f550d0c7ee44d58b6c25d91d37024",
          "topics": [
            "0xddf252ad1be2c89b69c2b068fc378daa952ba7f163c4a11628f55a4df523b3ef",
            "0x000000000000000000000000abe535b9e243686b98874889512cc52e30465900",
            "0x000000000000000000000000384f416b0fdeb9b8555128e6901ff3949005bc5d"
          ],
          "data": "0x00000000000000000000000000000000000000000000000009448ce40543e668",
          "blockHash": "0x84e3f6abcd647ad91c247406d90a20f801c5854a5a94a7aab5c31fc4859d751e",
          "blockNumber": "0xb18ad81",
          "transactionHash": "0xa5f3279f0c4f2ca94002fa6e53aecd7eb205065541448584c7f8e48375b4b75e",
          "transactionIndex": "0x1",
          "logIndex": "0x4",
          "removed": false
        }
      ],
      "logsBloom": "0x00000000000000040000000000000000000000000000000000000000000000000000808000004000000000000000000000000000040000000000000000200000000000100000000000000008000000000000000000000020000000000000000000000000000000400c0000000000000000000000000100000000001000000000000000000000200000000400800000000000000000000000040000000000000000000000100000000000000000000000000000000000000000100000000000000000000240000000000000000000000000000000000000000000000000040000000000000000000400c000000000000000000000000010000000000000000000",
      "type": "0x2",
      "transactionHash": "0xa5f3279f0c4f2ca94002fa6e53aecd7eb205065541448584c7f8e48375b4b75e",
      "transactionIndex": "0x1",
      "blockHash": "0x84e3f6abcd647ad91c247406d90a20f801c5854a5a94a7aab5c31fc4859d751e",
      "blockNumber": "0xb18ad81",
      "gasUsed": "0x2d400",
      "effectiveGasPrice": "0x7d2b7500",
      "from": "0x384f416b0fdeb9b8555128e6901ff3949005bc5d",
      "to": "0x3bf032ce8d9fbda0bc89932bfc87d8fa3174faa8",
      "contractAddress": null
    }
  ],
  "libraries": [],
  "pending": [],
  "returns": {},
  "timestamp": 1752974977,
  "chain": 1328,
  "commit": "505599a"
}