{
  "transactions": [
    {
      "hash": "0x5577234a133cd121ab7da8fe427492447a68bd77fee529621006339010df3f88",
      "transactionType": "CALL",
      "contractName": null,
      "contractAddress": "0x081d574f2b23a820adca454a3278739263cb2c2c",
      "function": "approve(address,uint256)",
      "arguments": [
        "0x3196e05387b1c484870d978a463063cEea748fd5",
        "115792089237316195423570985008687907853269984665640564039457584007913129639935"
      ],
      "transaction": {
        "from": "0x384f416b0fdeb9b8555128e6901ff3949005bc5d",
        "to": "0x081d574f2b23a820adca454a3278739263cb2c2c",
        "gas": "0xfee1",
        "value": "0x0",
        "input": "0x095ea7b30000000000000000000000003196e05387b1c484870d978a463063ceea748fd5ffffffffffffffffffffffffffffffffffffffffffffffffffffffffffffffff",
        "nonce": "0x2a",
        "chainId": "0x530"
      },
      "additionalContracts": [],
      "isFixedGasLimit": false
    },
    {
      "hash": "0xbfba5219d999b43b59c5691d1f3dbe1e440b70ce7fec5dc0e644ce231e8dfcad",
      "transactionType": "CALL",
      "contractName": null,
      "contractAddress": "0xcd13fdb6befdcc73500a23eeb03bd06ded3b4eee",
      "function": "approve(address,uint256)",
      "arguments": [
        "0x3196e05387b1c484870d978a463063cEea748fd5",
        "115792089237316195423570985008687907853269984665640564039457584007913129639935"
      ],
      "transaction": {
        "from": "0x384f416b0fdeb9b8555128e6901ff3949005bc5d",
        "to": "0xcd13fdb6befdcc73500a23eeb03bd06ded3b4eee",
        "gas": "0xfee1",
        "value": "0x0",
        "input": "0x095ea7b30000000000000000000000003196e05387b1c484870d978a463063ceea748fd5ffffffffffffffffffffffffffffffffffffffffffffffffffffffffffffffff",
        "nonce": "0x2b",
        "chainId": "0x530"
      },
      "additionalContracts": [],
      "isFixedGasLimit": false
    },
    {
      "hash": "0x82682a232faeb4112c34fa955222d4de7e0a9509a3f7c0510e077ce827ebc5fa",
      "transactionType": "CALL",
      "contractName": null,
      "contractAddress": "0x3196e05387b1c484870d978a463063ceea748fd5",
      "function": "swapExactTokensForTokens(uint256,uint256,bool,(address,address,uint24,int24,address),bytes,address,uint256)",
      "arguments": [
        "1000000000000000000",
        "0",
        "true",
        "(0x081D574f2B23a820aDCA454A3278739263CB2c2C, 0xcd13FDb6BEfdCC73500a23eEB03bD06ded3B4eeE, 5000, 100, 0x004888Ee239d247562822a500166B1f3D31fcaC0)",
        "0x",
        "0x384f416b0fDeB9B8555128e6901FF3949005BC5d",
        "1752977625"
      ],
      "transaction": {
        "from": "0x384f416b0fdeb9b8555128e6901ff3949005bc5d",
        "to": "0x3196e05387b1c484870d978a463063ceea748fd5",
        "gas": "0x3e7f5",
        "value": "0x0",
        "input": "0xb1a0d5710000000000000000000000000000000000000000000000000de0b6b3a764000000000000000000000000000000000000000000000000000000000000000000000000000000000000000000000000000000000000000000000000000000000001000000000000000000000000081d574f2b23a820adca454a3278739263cb2c2c000000000000000000000000cd13fdb6befdcc73500a23eeb03bd06ded3b4eee00000000000000000000000000000000000000000000000000000000000013880000000000000000000000000000000000000000000000000000000000000064000000000000000000000000004888ee239d247562822a500166b1f3d31fcac00000000000000000000000000000000000000000000000000000000000000160000000000000000000000000384f416b0fdeb9b8555128e6901ff3949005bc5d00000000000000000000000000000000000000000000000000000000687c50d90000000000000000000000000000000000000000000000000000000000000000",
        "nonce": "0x2c",
        "chainId": "0x530"
      },
      "additionalContracts": [],
      "isFixedGasLimit": false
    }
  ],
  "receipts": [
    {
      "status": "0x1",
      "cumulativeGasUsed": "0x0",
      "logs": [
        {
          "address": "0x081d574f2b23a820adca454a3278739263cb2c2c",
          "topics": [
            "0x8c5be1e5ebec7d5bd14f71427d1e84f3dd0314c0f7b2291e5b200ac8c7c3b925",
            "0x000000000000000000000000384f416b0fdeb9b8555128e6901ff3949005bc5d",
            "0x0000000000000000000000003196e05387b1c484870d978a463063ceea748fd5"
          ],
          "data": "0xffffffffffffffffffffffffffffffffffffffffffffffffffffffffffffffff",
          "blockHash": "0xc116b5d6be9f6d781096bc5a812cfee8d88cb93e45db014e7959f51c61f852c9",
          "blockNumber": "0xb18c47b",
          "transactionHash": "0x5577234a133cd121ab7da8fe427492447a68bd77fee529621006339010df3f88",
          "transactionIndex": "0x0",
          "logIndex": "0x0",
          "removed": false
        }
      ],
      "logsBloom": "0x00000000000000000000000000000000000000000000000000000000000000000000100000000000000000000000000000000000000000000000000000200000200000000000000000000000000000000000000000000000000000400000000000000000000000000000000000000000000000000000000000000001000000000000000000000000000000000000000000000000000000000000000000000000020000000000000010000000000000000000000000000000001000000000000000001000000000000000000000000000000000000000000000000000000000000010000000000000000000000000000000000000000010000000000000000000",
      "type": "0x2",
      "transactionHash": "0x5577234a133cd121ab7da8fe427492447a68bd77fee529621006339010df3f88",
      "transactionIndex": "0x0",
      "blockHash": "0xc116b5d6be9f6d781096bc5a812cfee8d88cb93e45db014e7959f51c61f852c9",
      "blockNumber": "0xb18c47b",
      "gasUsed": "0xb888",
      "effectiveGasPrice": "0xa1875180",
      "from": "0x384f416b0fdeb9b8555128e6901ff3949005bc5d",
      "to": "0x081d574f2b23a820adca454a3278739263cb2c2c",
      "contractAddress": null
    },
    {
      "status": "0x1",
      "cumulativeGasUsed": "0x0",
      "logs": [
        {
          "address": "0xcd13fdb6befdcc73500a23eeb03bd06ded3b4eee",
          "topics": [
            "0x8c5be1e5ebec7d5bd14f71427d1e84f3dd0314c0f7b2291e5b200ac8c7c3b925",
            "0x000000000000000000000000384f416b0fdeb9b8555128e6901ff3949005bc5d",
            "0x0000000000000000000000003196e05387b1c484870d978a463063ceea748fd5"
          ],
          "data": "0xffffffffffffffffffffffffffffffffffffffffffffffffffffffffffffffff",
          "blockHash": "0xe6de2fbf163cb204934ac04ab15974c0c0be812b292dd056ffe5c93517a478f6",
          "blockNumber": "0xb18c47d",
          "transactionHash": "0xbfba5219d999b43b59c5691d1f3dbe1e440b70ce7fec5dc0e644ce231e8dfcad",
          "transactionIndex": "0x3",
          "logIndex": "0x9",
          "removed": false
        }
      ],
      "logsBloom": "0x00000000000000000000000000000000200000000000000000000000000000000000000000000000000000000000000000000000000000000000000000200000000000000000000000000000000000000000000000000000000000400000000000000000000000000008000000000000000000000000000000000001000000000000000000000000000000000000000000000000000000000000000000000000020000000000000000000000000000000000000000000000001000000000010000001000000000000000000000000000000000000000000000000000000000000010000000000000000000000000000000000000000010000000000000000000",
      "type": "0x2",
      "transactionHash": "0xbfba5219d999b43b59c5691d1f3dbe1e440b70ce7fec5dc0e644ce231e8dfcad",
      "transactionIndex": "0x3",
      "blockHash": "0xe6de2fbf163cb204934ac04ab15974c0c0be812b292dd056ffe5c93517a478f6",
      "blockNumber": "0xb18c47d",
      "gasUsed": "0xb888",
      "effectiveGasPrice": "0xa1875180",
      "from": "0x384f416b0fdeb9b8555128e6901ff3949005bc5d",
      "to": "0xcd13fdb6befdcc73500a23eeb03bd06ded3b4eee",
      "contractAddress": null
    },
    {
      "status": "0x1",
      "cumulativeGasUsed": "0x0",
      "logs": [
        {
          "address": "0xd01e41f03c58ee64b2303e9335de8caeee0974b8",
          "topics": [
            "0x40e9cecb9f5f1f1c5b9c97dec2917b7ee92e57ba5563708daca94dd84ad7112f",
            "0x4c5511f257749ac7e30fd76b48e35ddc6563ea860a0faa847e6842de55d054d3",
            "0x0000000000000000000000003196e05387b1c484870d978a463063ceea748fd5"
          ],
          "data": "0xfffffffffffffffffffffffffffffffffffffffffffffffff21f494c589c000000000000000000000000000000000000000000000000000009448ce40543e6680000000000000000000000000000000000000000abd1c20ad8432c0a7875c9de0000000000000000000000000000000000000000000000001c2f1d44b5460790ffffffffffffffffffffffffffffffffffffffffffffffffffffffffffffe0d80000000000000000000000000000000000000000000000000000000000001388",
          "blockHash": "0x2f09bbb881af24abf09da0dc9b7408b1148e45fb66c5388ef1a7d3bc234009b4",
          "blockNumber": "0xb18c47e",
          "transactionHash": "0x82682a232faeb4112c34fa955222d4de7e0a9509a3f7c0510e077ce827ebc5fa",
          "transactionIndex": "0x3",
          "logIndex": "0x8",
          "removed": false
        },
        {
          "address": "0x081d574f2b23a820adca454a3278739263cb2c2c",
          "topics": [
            "0xddf252ad1be2c89b69c2b068fc378daa952ba7f163c4a11628f55a4df523b3ef",
            "0x000000000000000000000000384f416b0fdeb9b8555128e6901ff3949005bc5d",
            "0x000000000000000000000000d01e41f03c58ee64b2303e9335de8caeee0974b8"
          ],
          "data": "0x0000000000000000000000000000000000000000000000000de0b6b3a7640000",
          "blockHash": "0x2f09bbb881af24abf09da0dc9b7408b1148e45fb66c5388ef1a7d3bc234009b4",
          "blockNumber": "0xb18c47e",
          "transactionHash": "0x82682a232faeb4112c34fa955222d4de7e0a9509a3f7c0510e077ce827ebc5fa",
          "transactionIndex": "0x3",
          "logIndex": "0x9",
          "removed": false
        },
        {
          "address": "0xcd13fdb6befdcc73500a23eeb03bd06ded3b4eee",
          "topics": [
            "0xddf252ad1be2c89b69c2b068fc378daa952ba7f163c4a11628f55a4df523b3ef",
            "0x000000000000000000000000d01e41f03c58ee64b2303e9335de8caeee0974b8",
            "0x000000000000000000000000384f416b0fdeb9b8555128e6901ff3949005bc5d"
          ],
          "data": "0x00000000000000000000000000000000000000000000000009448ce40543e668",
          "blockHash": "0x2f09bbb881af24abf09da0dc9b7408b1148e45fb66c5388ef1a7d3bc234009b4",
          "blockNumber": "0xb18c47e",
          "transactionHash": "0x82682a232faeb4112c34fa955222d4de7e0a9509a3f7c0510e077ce827ebc5fa",
          "transactionIndex": "0x3",
          "logIndex": "0xa",
          "removed": false
        }
      ],
      "logsBloom": "0x00000000000000000000000008000080200000000000000000000000000000000000100000000000000000000000000000000000040200000000000000200004200000000000000000000008000000000000000000000020000000400000000000000000000000000008000000000000001000000000000000000011000000000000000000000000000000000000000000000000000000000000000000000000000000000000000010000000000000000000000000000000001000000008010000001002000000000000000000000000000000000000000000400000000000000000000000000000005000000000000000000000000011000000000000000000",
      "type": "0x2",
      "transactionHash": "0x82682a232faeb4112c34fa955222d4de7e0a9509a3f7c0510e077ce827ebc5fa",
      "transactionIndex": "0x3",
      "blockHash": "0x2f09bbb881af24abf09da0dc9b7408b1148e45fb66c5388ef1a7d3bc234009b4",
      "blockNumber": "0xb18c47e",
      "gasUsed": "0x2d3f4",
      "effectiveGasPrice": "0xa1875180",
      "from": "0x384f416b0fdeb9b8555128e6901ff3949005bc5d",
      "to": "0x3196e05387b1c484870d978a463063ceea748fd5",
      "contractAddress": null
    }
  ],
  "libraries": [],
  "pending": [],
  "returns": {},
  "timestamp": 1752977331,
  "chain": 1328,
  "commit": "ddc4d03"
}